:020000040800F2
:10000000001F00203D3400087F7C000829340008D0
:1000100029340008293400082934000800000000B1
:100020000000000000000000000000008134000813
:100030002934000800000000453600082148000867
:10004000C1360008C1360008C1360008C1360008B4
:10005000C1360008C1360008C1360008C1360008A4
:10006000C1360008C1360008C1360008C136000894
:10007000C1360008C1360008C1360008C136000884
:10008000C1360008C1360008C1360008C136000874
:10009000C1360008C1360008C1360008C136000864
:1000A000C1360008C1360008C1360008C136000854
:1000B000C1360008C1360008C1360008C136000844
:1000C000C1360008C1360008C1360008C136000834
:1000D000C1360008C1360008C1360008C136000824
:1000E000C1360008C1360008C1360008C136000814
:1000F000C1360008C1360008C1360008C136000804
:10010000C1360008C1360008C1360008C1360008F3
:10011000C1360008C1360008C1360008C1360008E3
:10012000C1360008C1360008C1360008C1360008D3
:10013000C1360008C1360008C1360008C1360008C3
:10014000C1360008C1360008C1360008C1360008B3
:10015000C1360008C1360008C1360008C1360008A3
:10016000C1360008C1360008C1360008C136000893
:10017000C1360008C1360008C1360008C136000883
:10018000C1360008C1360008C1360008C136000873
:04019000C13600086C
:100198007BB972B90029BEBF00204FF0004106E0CC
:1001A80008BF00281CBF6FF000414FF0FF3000F07F
:1001B80057B8ADF1080C6DE904CE002909DB002B16
:1001C8001ADB00F069F8DDF804E0DDE9022304B089
:1001D8007047404261EB4101002B1BDB00F05CF8EB
:1001E800DDF804E0DDE9022304B0404261EB41019F
:1001F800524263EB43037047524263EB430300F000
:100208004BF8DDF804E0DDE9022304B0404261EB7D
:1002180041017047524263EB430300F03DF8DDF8BB
:1002280004E0DDE9022304B0524263EB4303704764
:1002380053B94AB9002908BF00281CBF4FF0FF3145
:100248004FF0FF3000F00CB8ADF1080C6DE904CEAA
:1002580000F022F8DDF804E0DDE9022304B070477D
:10026800704700BF10F8012B11F8013B012A28BF85
:100278009A42F7D0D01A7047034611F8012B03F8B9
:10028800012B002AF9D17047034613F8012B002AE5
:10029800FBD1181A013870472DE9F04786468C467D
:1002A8000846089E154674461946002B40F0C28041
:1002B8008542B2FA82F245D94AB1C2F1200300FA66
:1002C80002FC2EFA03F3954043EA0C0C94404FEAE3
:1002D800154EA8B2BCFBFEF8230C0EFB18CC08FB8D
:1002E80000F943EA0C43994528D9EB1808F1FF3780
:1002F80004D2994502D9A8F102072B44A3EB0903BC
:10030800A4B2B3FBFEFC0EFB1C330CFB00F044EA6A
:100318000344A04214D92C190CF1FF3304D2A04293
:1003280002D9ACF102032C44241A43EA07401EB157
:10033800D440002334607360BDE8F0874746DDE7AA
:100348006346F1E792BB431B01214FEA154EAFB25A
:10035800B3FBFEFC200C0EFB1C330CFB07F840EA39
:100368000343984562D9EB180CF1FF3004D2984545
:1003780002D9ACF102002B44A3EB0803A4B2B3FBEF
:10038800FEFC0EFB1C330CFB07F744EA0344A742B0
:100398004ED92C190CF1FF3304D2A74202D9ACF183
:1003A80002032C44E41B43EA0040C0E7C2F12003E7
:1003B80020FA03F1954090402EFA03F303434FEAE5
:1003C800154EAFB2B1FBFEFC0EFB1C10190C0CFB5A
:1003D80007F841EA0041884504FA02F422D969186D
:1003E8000CF1FF3004D2884502D9ACF1020029444F
:1003F800A1EB08019BB2B1FBFEFC0EFB1C110CFB30
:1004080007F743EA01439F420ED9EB180CF1FF317D
:1004180004D29F4202D9ACF102012B44DB1B41EA12
:10042800004192E76046E3E76146F7E76046A3E7E5
:100438006346B7E7834206D916B9002108467BE729
:10044800C6E900E0F9E7B3FA83F78FB9834201D32D
:10045800724508D8BEEB020460EB030301209C46FA
:100468001EB9002168E73846FAE7C6E9004CF8E704
:10047800C7F1200CBB4022FA0CF41C432EFA0CF1F5
:1004880020FA0CF3B84001434FEA14490EFA07F575
:10049800B3FBF9F81FFA84FE09FB18300B0C08FBB4
:1004A8000EFA43EA00439A4502FA07F240D9E318E4
:1004B80008F1FF3004D29A4502D9A8F1020023447A
:1004C800A3EB0A0389B2B3FBF9F809FB183308FB5D
:1004D8000EFE41EA03418E452CD9611808F1FF331D
:1004E80004D28E4502D9A8F10203214443EA004010
:1004F800A0FB0298A1EB0E014145CE46434602D32C
:1005080006D14D4504D2B9EB020E68EB040301385D
:10051800002EA6D0B5EB0E0261EB030101FA0CFC2C
:1005280022FA07F34CEA0303F940C6E9003198E7D9
:100538004046C5E74346D9E72DE9F047044688B069
:100548008846174608F07BFA0A220023FFF770FE58
:10055800B8F1010F06460D4607D102460B46204664
:10056800274906F04EFC002011E07F6825483946EF
:10057800FFF778FE70B124483946FFF773FE48B19B
:10058800204622493A4606F058FC6FF0040008B0AD
:10059800BDE8F0873046294617A3D3E90023FFF7C3
:1005A800F7FD06460D4610461946194A0023FFF77F
:1005B800EFFD80460F46104619464EF6602200238E
:1005C800FFF7E6FD82468946104619464FF47A72CF
:1005D8000023FFF7DDFDCDE902A9CDE90623CDE92A
:1005E8000401CDE900870B4932462B46204606F028
:1005F80008FCB8E7AFF30080005C260500000000A7
:10060800FA9C00080B9D00080E9D0008179D000825
:1006180080EE36002F9D000810B504460548836813
:100628004FF400515B6998472046034906F0E9FBFF
:10063800002010BD508F0008BA9B000810B50C4C64
:10064800204607F0D6FF88B12269A168136843F4F1
:10065800005313600B68074A0D212046984700286D
:1006680004DB42F21070002108F036F9002010BDBA
:10067800508F00080100060030B50446EFF31185DD
:10068800102383F31288BFF36F8F044B0FCB84E8DA
:100698000F0085F31188BFF36F8F30BDB8000020BD
:1006A80001281FB50C4605D004281DD06FF0150091
:1006B80004B010BD08F0C3F942F210720023FFF72E
:1006C800B7FD104B5A43C4E90001A2606846FFF722
:1006D800D3FF6946204606F00AF818B90A4B0FCB33
:1006E80084E80F000020E3E708F0A9F942F210724D
:1006F8000023FFF79DFD034B5A43C4E90001A260A4
:10070800F0E700BFA0860100A094000801287FB58B
:100718000D462DD18A68184B9A4229D808F08FF9CE
:1007280042F210720023FFF783FD144B404261EB45
:1007380041016C46CDE9000153432046029300F085
:10074800E7F82946204605F0D2FFEFF3118610237B
:1007580083F31288BFF36F8F94E80F00084D85E884
:100768000F0086F31188BFF36F8F002004B070BDAF
:100778006FF01500FAE700BFFFC99A3B6079FEFFEA
:10078800B8000020014B1B68184700BF000000207C
:10079800014B1860704700BF0000002030B50446C8
:1007A80085B00D4610220021684608F045FA02235C
:1007B8008DF802302A46044B01932146684605F01D
:1007C800B9FB05B030BD00BF8D07000880B50546F0
:1007D8000E461746984604F08BFE034602F07EFF4D
:1007E800DFF81890044649F800304246304639464A
:1007F800A84754F8090002F00BFF00BF08000000EA
:100808002DE9F84344690569C76840F26C73E1173C
:100818000135E41841F10001022D8CBF00230123AA
:10082800E41A61F100010029064607F1FF3751DAA1
:100838006FF4C77020184FF4C8724FF0000361F1CD
:100848000001FFF7A5FC264B03FB0044D6E9008313
:10085800B6684FEAE37C4FF03C0E99466346C6FB08
:100868000E93A9FB0EC60EFB0366A30840F26D1E8D
:10087800022D0EFB043302463B448CBF6FF002008E
:10088800092064270544B4FBF7F499201B1B154C79
:1008980045431CEB080C4FF0050005F10205B5FBBC
:1008A800F0F5A2FB04202B4404FB010146EBE8769B
:1008B80098180D4A41F1000380180C4A63F10003AF
:1008C800A0FB020102FB031110EB0C0041EB060137
:1008D800BDE8F8834FF4C87200232046B1E700BF93
:1008E80070FEFFFFB13A02009405F5FF8051010048
:1008F80010B5FFF785FF024602F0F0FE0B460349EC
:10090800002444501046194610BD00BF0C000000DA
:1009180070B5204B82689A4216DDD0E9001601298D
:1009280076F1000503F1010392FBF3F34FEAE37458
:100938001DDAC91844EB0604C0E90014164901FB86
:1009480003238360012070BD002AFBDAD0E900414F
:100958000029124EA3EB0203B3FBF6F310DA01F100
:1009680000459C4275F100050ADA0020EBE7CD430B
:100978009D426FF00045A5EB0605A541D9DAF4E7DD
:10098800E41A61F1000106FB0322C0E9004182601C
:10099800D8E700BFFFC99A3B003665C400CA9A3B36
:1009A80008B500F0B9F80A4941610A490122C0E9CD
:1009B80000220A6008490A60084A00231360084AAE
:1009C80003611360C0E90233064A136008BD00BF23
:1009D800E89E0008200000201C000020A004002041
:1009E8009C040020980400202DE9F04107460E469B
:1009F800154600F091F8C36804461BB943691A7894
:100A0800002A41D10023E3606368BB4256F82320E3
:100A180008DB324B6361204600F062F84FF0FF308C
:100A2800BDE8F081511C616192F80080B8F12D0F8A
:100A3800EFD1911C61615178A1602D2904D1927880
:100A48006AB901336360E4E749B9244B63614146FD
:100A5800284608F009F90028DDD0C4F80880D4F841
:100A680008802846414608F0FFF8B8F13A0F636954
:100A780000D070B91B7813B96368013363602046EE
:100A880000F02EF83F20CBE75A1C42611B788360A8
:100A9800E5E742783A2A0BD0002222611B7813B985
:100AA800636801336360204600F01AF8A068B7E76E
:100AB80018786268094928B901329742626004DDF2
:100AC80056F82230C4E90431EAE761612D783A2DFD
:100AD8002046D5D100F004F82846A1E7E89E000892
:100AE800084A01681160084A41681160074A81682C
:100AF8001160074AC168074B116002691A6003F068
:100B0800E3B900BF200000201C000020A004002042
:100B18009C0400209804002000487047040000202E
:100B2800034A536823F0020353600020704700BF54
:100B3800002004E008B54168054883681B680C314B
:100B48001BB1984700EAE07008BD6FF05700F9E75D
:100B5800708E0008192810B502D90024204610BD4F
:100B6800044B53F82040204607F043FD0028F5D1F8
:100B7800F3E700BF18960008084B1A6842F4807221
:100B88001A601A6842F400721A601A6842F48062A5
:100B98001A60034B034A1A60704700BF003C0240CA
:100BA800680000200024F400014B03600020704717
:100BB8008096000810B5044603F0F8FE0349024683
:100BC800204606F01EF9002010BD00BFA59C0008B5
:100BD80037B5134600220192054601AA58680A2132
:100BE80001F0D4FC019C4CB920EAE0700A2180FB9A
:100BF800010107F071FE204603B030BD22460349CB
:100C0800284606F01AF9019CF5E700BFD19C0008B8
:100C180008B5034A034906F0F4F8002008BD00BFF0
:100C2800C19D0008C89D000807B5002300906946CB
:100C380004488DF8043004F0A3FD9DF8040003B0C7
:100C48005DF804FBA369000810B5044603F090FEA4
:100C580007490246204606F0D4F82046054906F022
:100C6800D0F80548214604F0A5FD002010BD00BFBE
:100C78000A9E0008299E0008850C000870B58EB0F1
:100C880004460D46D0F8A06007F046FD034602F082
:100C980025FD214A21491058214A002B18BF1A4620
:100CA8000092204A2346844218BF0A4628461E4915
:100CB80006F0A7F8D4E90A23CDE90023284694F9D9
:100CC8000E30A289194906F09CF806A92022204670
:100CD80004F0C2F8A36E16490246284606F091F8B9
:100CE80005A9204607F026FD024628B111492846E5
:100CF80006F087F80EB070BD059B6422F11A4A43CE
:100D08000091B2FBF6F20C49CDE901622846324661
:100D180006F077F8EEE700BF08000000A3A8000877
:100D2800339E0008F6B30008369E0008429E00086D
:100D38006E9E0008859E0008B29E0008F0B500254A
:100D480091B00446294608AF1C2209A807F074FF91
:100D5800134E1A222021384607F06EFF214611480B
:100D680004F028FD07AA4FF40061304607F0D6FCCE
:100D7800079A0097C2F5006164234B43DB0A059389
:100D88004FF40063CDE90313CDE90132204606494B
:100D98002B46A6F1400206F034F8284611B0F0BD03
:100DA80080110020B50D0008039F000870B50446A7
:100DB800D0F8A06088B00D4607A907F0BBFC024632
:100DC80028B10F49284606F01CF808B070BD204627
:100DD80007F0A2FC079B0096F11ACDE90131094BF7
:100DE80064224A43002818BF0346B2FBF6F20649BC
:100DF800CDE903622846224606F003F8E5E700BF7E
:100E0800859E0008339E00084C9F000838B513469D
:100E1800054610225868002104F0A0FF0446FFF799
:100E280003FF38B90E492246284606F006F86FF047
:100E3800150038BD02F052FC0A4B1B589C4204D1E5
:100E48000949284605F0F9FFF1E7204604F0DCF9E6
:100E580028460649224605F0D4FF0020E9E700BFEE
:100E6800B09F000808000000CB9F0008F39F00080F
:100E780038B51346054610225868002104F06EFF65
:100E88000446FFF7D1FE38B90E492246284605F038
:100E9800D4FF6FF0150038BD02F020FC0A4B1B5838
:100EA8009C4204D10949284605F0C7FFF1E72046CE
:100EB80007F08EFC28460649224605F0A2FF0020CE
:100EC800E9E700BFB09F00080800000032A0000852
:100ED80058A0000838B51346054610225868002166
:100EE80004F03CFF0446FFF79FFE38B90E4922463E
:100EF800284605F0A2FF6FF0150038BD02F0EEFBA2
:100F08000A4B1B589C4204D10949284605F095FF15
:100F1800F1E7204602F07CFB28460649224605F008
:100F280070FF0020E9E700BFB09F0008080000003C
:100F380093A00008B8A0000810B50C46002106F0E0
:100F480043FA00B10068034A20600023C4E9012382
:100F5800E36010BDD8A1000810B50C46002106F0CA
:100F680037FA00B10068034A20600023C4E901236E
:100F7800E36010BDD8A1000870B506465068154654
:100F880006F02AFA044640B96A681049304605F066
:100F980054FF6FF01204204670BD07F02AFB30B1F1
:100FA8006A680B49304605F01EFF0024F3E7204627
:100FB80007F016FB044630B103466A680549304617
:100FC80005F03BFFE7E76A680349EBE7F0A0000894
:100FD80005A1000827A1000854A100082DE9F04F39
:100FE8008FB0044601A80F46904603F06FFD019BA1
:100FF8002C4A03EB401B0821204605F0E7FE019D23
:101008005D4503D300200FB0BDE8F08F2E680EB108
:10101800337833B9244A2B46302102A804F0FEFD68
:1010280002AE022F07D1D8F80410304607F057FE59
:1010380008B92035E4E71D4A33460821204605F063
:10104800C5FE284607F0D5FA194A1A4B0821002888
:1010580008BF1346184A204605F0B8FEEB69002B76
:10106800E7D01E68002EE4D03368002BE1D0134A85
:101078000821204605F0AAFEB2464FF00009336861
:101088000F4A4B4505D80F4A0821204605F09EFE19
:10109800CFE75AF8043F0821204605F097FE09F1EA
:1010A8000109ECE787A1000891A1000896A10008B2
:1010B8007EA1000878A10008FEA000089BA10008F6
:1010C80097A10008E79E00081FB50C68D1E9043213
:1010D80003944C6802948C680194C96800910133A8
:1010E800034902F26C7205F08CFE04B010BD00BF1B
:1010F80022A20008F7B513783A2B06460F46154684
:1011080014D1541C23783A2B28D101340A2201A97E
:10111800204604F0ADFD019A3860A242034617D07C
:101128001078A8B93C2B15D915490EE00A2201A957
:10113800284604F09DFD019CB860AC4208D0237895
:101148003A2B05D1172807D90E49304605F075FE08
:101158006FF0150003B0F0BD0134D3E70A2201A9EE
:10116800204604F085FD019B7860A342F0D01A78F0
:101178003A2AEDD13B2801D90349E6E75C1CC5E7CB
:1011880061A2000843A2000851A200082DE9F0411D
:1011980090B00D46044602A901201746FFF780FAD1
:1011A80007A902A804F08CFC032D55D17D680A22FA
:1011B80001A9284604F05CFD019EB542804615D081
:1011C80032782D2A12D101360A2201A9304604F0BC
:1011D8004FFD019B9E4209D01A782D2A06D1451E43
:1011E8000B2D0CD92849204605F027FE204605F08E
:1011F80058FE6FF01505284610B0BDE8F0815E1C5A
:101208000A2201A9304604F033FD019B9E42EDD02D
:101218001B78002BEAD1431E1E2B01D91B49E2E79C
:10122800A8F26C73CDE90B53BA680A9007A9204657
:10123800FFF760FF0028D9D107A8FFF759FBB1F1E4
:10124800FF3F08BFB0F1FF3FCDE9020108D11049C7
:10125800204605F0F2FDCCE7022DC7D17A68E5E714
:1012680000230493012002A9FFF750FA054628B18C
:1012780002460849204605F0E0FDBAE707A92046DE
:10128800FFF722FFB7E700BF71A2000880A200089D
:101298008DA20008B6A200082DE9F0411446884640
:1012A800074610226068002104F058FDB8F1020FCB
:1012B800064606D824492022384605F0A2FD3268A1
:1012C80015E00A220021A06804F048FDC5B21E49B5
:1012D8002A46384605F095FDB8F1030F19D1102DAF
:1012E8000CD0202DEBD0082D0BD13278D2B2174973
:1012F8000023384605F085FD002008E0328892B2C8
:10130800F5E73846124905F07CFD6FF01500BDE899
:10131800F081E0681022002104F086FD0B460246A9
:101328000C490446384605F06CFD102D06D0202DDA
:1013380007D0082DE5D1E4B23470DDE7A4B23480DB
:10134800DAE73460D8E700BFFBA2000826A300084C
:1013580010A3000839A300082DE9F04F87B0002337
:101368000193544BDFF850A1914601220746884665
:101378001A60FFF715FB4FF0FF362025344652461A
:1013880049464046FFF730FB431C06D1711C41D14A
:101398004A49384605F051FD17E073281AD07728D6
:1013A80028D0612811D1DFF818B101AADBF80000B4
:1013B800102101F0EBF8019B0646002BDFD0DBF88B
:1013C80000204049384605F038FD6FF0150007B099
:1013D800BDE8F08FDFF8E8B001AADBF800000021D3
:1013E80001F0D4F8019B0446002BC8D0DBF800209C
:1013F8003549E7E7DFF8C8B001AADBF800000021AB
:1014080001F0C4F8019B0546002BB8D0DBF800209A
:101418002E49D7E7621C01D12D49BAE7EDB2A5F1F3
:101428000803DBB2182B0ED82A4A22FA03F3DB078B
:1014380009D54FEAD508002C3AD002AB30461A46F7
:10144800A8EB060C0FE024492A46384605F0D9FCDB
:10145800BBE7102D1BD0202D1FD0082D01D10178FE
:10146800197040444344A04503D80CEB00011029EF
:10147800EFD9102CA14628BF4FF0100931464B4632
:10148800384600F06BFF1036A4EB0904D3E7018857
:1014980089B21970090A5970E3E701681970C1F334
:1014A800072E090C9970090A83F801E0D970D8E76A
:1014B80020468CE71C00002089A3000890A30008A0
:1014C800980400204FA3000862A3000875A3000831
:1014D800ADA3000801010001C7A3000870B5104EB4
:1014E800044633780D4671B123B1BDE870400D490B
:1014F80005F0A3BC012333700B49204605F081FC9D
:101508000123337004E083F001033370002BF3D11F
:10151800294620460022BDE8704005F0DCBC00BF2B
:10152800C8080020E1A300081CA400082DE9F04128
:10153800DFF8F0803C4E05460C468F18A74201D1D3
:10154800BDE8F08198F8002014F8013B182A22D150
:10155800112B20D1354C364922680026284688F8B8
:10156800006005F04EFC28463146FFF7B7FF314BC7
:1015780018780028E4D1304A23681168042B2EDC3F
:1015880008B12360116013F003012FD112681368AA
:101598001BBA1360D4E7A3F13002092A88F8003097
:1015A80004D923F02002413A052A04D83168234A95
:1015B8005354013131603368022BBFD110221F48C8
:1015C800002104F0CBFB1E4A136803F8010B1360DB
:1015D800164A13680133136000233360AEE70868C6
:1015E80000BA41F8040B043B0120C7E75B4203F053
:1015F800030358BF5942022904D1126813885BBA01
:101608009BB2C6E703299BD1106802681104C2F394
:10161800074301F47F010B4302F47F421343036045
:101628008EE700BFC90800202405002028050020F7
:1016380046A40008CA0800202C050020CB0800207A
:10164800300500202DE9F84F0C462B49DFF8AC8017
:10165800DFF8AC90DFF8ACB000230B602A4988F8BB
:10166800003006460B601546012C2F4655F804AF8E
:101678001ED902224946504607F003FB80B99AF862
:101688000220003A18BF0122924420490222504603
:1016980007F0F7FA30B9012388F80030013CE3E796
:1016A8000022F1E749465046FEF7DCFDA8B90437A9
:1016B80000221146786804F051FB154B00221146B0
:1016C8001860786804F04AFB124B134918603046DA
:1016D800FFF704FF0020BDE8F88F9AF800202D2AB4
:1016E800E6D19AF80120002AE2D0524659463046FF
:1016F80005F087FBD2E700BF24050020CA080020B8
:1017080060A4000866A400082805002063A4000857
:10171800300500202C0500203515000813B50948B0
:1017280006F067FF58B1084A0649126807480024BE
:101738000094012300F078FE204602B010BD6FF03F
:101748001200FAE7D08F00089C970008349300082D
:1017580010B54468C4E90012A360426813464021EA
:1017680053F8404B53625163002302F13801C2E938
:101778000413C2E90A33C2E906330821136311626C
:10178800C2F8B830A36823B19B6C13B10449204652
:101798009847A3689B6A0BB120469847002010BD64
:1017A8008D6A000810B581680446183101F07EF989
:1017B800A168034A20461831BDE8104001F012B96B
:1017C800E6A5000838B58368D3F88032DB050446FF
:1017D8001AD4406803685B689847054620B9E068F2
:1017E80006F0E7F9A3681D75A3685B6C13B1294679
:1017F80020469847A36801F071FF0022C3F8A02291
:10180800034B185801F004FF6FF00F05ECE700BF19
:1018180008000000014905F0E7B900BFE79E00088D
:101828002DE9F04FA7B004465422002111A807F073
:1018380003FA0023CDE90533A36820465C330293FD
:1018480005F0E5FE204605F029FE10B96069FFF7AE
:10185800E1FFA06814220021183007F0EDF92046B6
:1018680005F077FDA168E068B1F854205C310026E6
:1018780006F064F9204606F0C5F94FF0FF38B24685
:10188800039611AFB3463546B146DDE90532012A64
:101898006CD0132B6DD8B8F1000F2BD1BBF1000F12
:1018A8000AD0204606F0CFF9A26814235C3211A9A9
:1018B8000DEB030005F0CCFBB9F1000F0CD099F843
:1018C8001130FE2B08D1059B26AA02EB830252F8A1
:1018D800542C0AB101330593A068059D436A002B77
:1018E80040F0B580C6B1C3699E422BD00D9600F179
:1018F800180522E0029A0223394606A805F0A8FB3B
:1019080006997A680292034631B101290AD148B191
:10191800694A204605F02AFF6FF00705284627B0D8
:10192800BDE8F08F059B002B32D0386801F0ECF849
:1019380098B166B1A5680D9618350CAE0FCE0FC5D7
:1019480033682B602046FFF72DFF0125E6E75B4A49
:101958000121204605F00AFFDEE7059BC3B13A687E
:101968002946204601F072FA022809D1059B132B5B
:1019780094D9069B022B91D1514B524A0121C8E7B9
:10198800032805D0059B013305934FF0010B7CE735
:10199800039B2BB9396807AA484605F050FC054651
:1019A800043708F1FF38A5B3EB68BBF1000F08D086
:1019B800FBB1204605F02BFE204605F086FD424A85
:1019C800C6E7B3B1A368DDF814A0AE4603F1180C5E
:1019D800BEE80F00ACE80F00DEF80030CCF80030AD
:1019E800AB6833B96B7CFE2B04BF95F8108008F107
:1019F800FF38D5F804C0BCF1000F08D0AE46BEE8E9
:101A08000F000CAE0FC6DEF8003033606646A946FC
:101A180003E0059B63B101230393069BB8F1000F14
:101A280002D1022B7FF431AF059B013305932CE7DC
:101A3800A368DB6A13B1DB68002BECD1234B00935E
:101A4800234A119B0121204605F090FEE3E790F818
:101A58002830A5EB0A05BBB190F829104FF6FF72A4
:101A6800FF2918BF0A469D4202D313449D420BD951
:101A78008369184A0121204605F078FE2046FFF7C1
:101A880091FE6FF0150549E7012105F0CCF8A06833
:101A980005F0BDF8A36811AA29465B6A02EB8A0221
:101AA800204698470546A06805F0B5F8A0680021CB
:101AB80005F0B9F832E700BFF4A5000808A6000849
:101AC80069A600082B9D000826A6000855A6000850
:101AD80063A900088DA60008F7B5044680680D467E
:101AE800817D002949D1D0F880325A0504D505F006
:101AF800A5F8E06805F0F4FFE368DB6873B9002D2A
:101B08003BD0A66806F15C07384605F07AF800284D
:101B180035D0394606F5AE70FEF7AEFBA268E06830
:101B28000DF106035C32294605F0DDFF58B9A068BF
:101B380000F5AE715C30FEF79FFBA0685C3005F0E5
:101B480060F8ADF80600204605F05AFDA368D3F802
:101B58007C329B0603D50B49606905F045F82046A1
:101B680000F07AFDA268BDF80630A2F85630A268E7
:101B78002046A2F8543005F0A8FC03B0F0BD86F862
:101B88005C01CBE7C894000810B5836802221A7577
:101B980083689B6C0446BBB904F0FDFF8368D3F8E7
:101BA8008032DB040BD50321084B094A05F0DEFD22
:101BB800A0686FF4805100F5207005F006F8204603
:101BC800BDE8104000F0CEBE10BD00BFA8A60008BA
:101BD80098A100082DE9F04FB1B0002304460993FD
:101BE800A3686068D3E9126703681D6909AB0EB37F
:101BF80010221BA9A847099BCBB10121A06805F0B9
:101C080012F8A06805F003F83B46099A1BA920467C
:101C1800B047A06804F0FFFFA068002105F003F8B2
:101C2800A3689B6C002BDBD12046FFF7ADFF31B0DA
:101C3800BDE8F08F01220DF12301A847099B002B75
:101C4800F5D09DF923209DF82330A068002AC7DB32
:101C5800427D032A00F20583DFE812F004008502C2
:101C68009C0203030D2B5FD00A2B43D0B0F88022CF
:101C7800092B6FF30702A0F8802278D029D8002B0F
:101C880000F00C81082BA06800F0F2810246D2F81F
:101C98007C12890740F10281013B162B00F2FE807D
:101CA800DFE813F0C80203020702FF01C2022002A4
:101CB800FC00FC00FC00FC0024022802FC003D02A1
:101CC800FC004202FC00FC00FC00FC004402FC009A
:101CD80059021B2BA06847D07F2B00F0D581A3F1B8
:101CE80020015E290246D2D8012104F0A7FF9DF801
:101CF8002310C1E0D0F88022D2B222B1D0F88022DD
:101D0800D2B20A2AC2D1B0F8802263F30702A0F83F
:101D18008022A568AB7D012B10D16069FFF77AFDA1
:101D2800A36802229A7582E7D0F88022D2B2002AEC
:101D3800E9D0D0F88022D2B20D2AE3E7B5F85410E2
:101D480061B9284604F07AFFE06805F0C9FE6069C9
:101D5800FFF760FD2046FFF717FF41E72046FFF732
:101D68005FFDC5F8A402F5E70123437596E0A06876
:101D7800D0F87C329B0740F19180012104F05EFF8E
:101D8800A068857D002D40F08980B0F85430FF2B85
:101D980000F08480B0F8562000F15C0100F5AE70C8
:101DA80006F022FFA368B3F8562013441BA983F852
:101DB8005C51A268142302F5AE720BA805F048F92D
:101DC8000B9914296AD830AB03EB810343F8545CB0
:101DD800A368B3F85620002A52D0134493F85B3016
:101DE800202B02D0093B042B4AD800294BD10025CF
:101DF8000A950A9B30AA02EB8303002653F854ACD9
:101E0800504604F0FEFEB3468146B046374616AA51
:101E18003946284600F080FB0346002842D1012EAF
:101E280068D10A9B30AA02EB830353F8540C04F0E0
:101E3800E8FEA268064618324146284600F06CFBC8
:101E48000568284604F0DDFE864205D0821B92B262
:101E5800A919204605F0D1FCA068B0F85630034413
:101E680093F85C30202B34D0093B042B31D9D0F8BF
:101E78007C32DF0732D42021204600F03BFD0DE004
:101E88000129B4D9013900200CAB009301900AABA9
:101E98001BAA05F0FFF905460028AAD1606905F0DC
:101EA80025F89DE61B6803934A465146184606F0F6
:101EB800E8FE60B9039B1846FEF7E6F9584538BFB7
:101EC80058461FFA80FB002E08BFB8460136013776
:101ED8009DE70121204605F02CFBDFE7002104F0F7
:101EE800B8FE2021204600F005FDA068012104F07D
:101EF800B0FED3E70490D1D90A9A30AB03EB820243
:101F0800C24652F8543C0393184604F07AFEA2687D
:101F1800049B0590A2F840300496A26851461832F6
:101F2800284600F0F9FA039BD0F800900AF1010A5C
:101F38004BB1B9F1000F06D0059A1946484606F08C
:101F4800A0FE0028E9D1A168B9F1000F4ED1A1F88F
:101F58004090049B013B0493DFD16069FFF75AFC72
:101F6800204600F0FFFC0A9B30AA02EB830308F12D
:101F7800010A53F8540C04F044FE414611AA814664
:101F8800284600F0C9FA0746A0683968FF2200F51C
:101F9800AE7006F088FE3B6803934FF6FF77B846AD
:101FA80016AA514628460AF1010B00F0B5FA002896
:101FB80052D0A168036801F25B11002211F801EF09
:101FC800985C704503D110B101324245F6D1B9F1A0
:101FD800000F01D04A4507DBBA4206F1FF36A8BF19
:101FE8003A46012E97B237D0DA46D9E79E4806918D
:101FF80004F007FE069907914A8F00EB0B07BFB262
:10200800121A484692FBF7F292B2069204F0F9FDD2
:102018000799069A3F1AB1F8400000F1010CA1F89F
:1020280040C0B0FBF2F102FB110080B2BFB260B950
:102038008D4B8E4ACDF800900621204605F096FB80
:102048003946204600F0F2FA83E7894A4B460621D2
:10205800204605F08BFBF3E7002F3FF41FAF0399F1
:10206800A7EB090292B24944204605F0C6FB15E7E2
:10207800D0F87C329E077FF511AF012104F0DEFD18
:10208800204605F0DBFB09E7D0F87C329D077FF599
:1020980005AF012104F0D2FDA368D3F87C321807FC
:1020A800EED4204605F0ABFBF8E6204605F0B8FA7A
:1020B800F4E6204605F0ABFA204605F0EFF910B932
:1020C8006069FFF7A7FBA068012104F0B7FDA368CA
:1020D8009A7D012A02D103229A75DFE62046FFF78E
:1020E80053FDDBE6204605F0A4FAD7E6204605F0C6
:1020F800ABFAD3E6D2F87C329F0603D55D49606916
:1021080004F072FDA368D3F87C329E0603D55A49C1
:10211800606904F069FD204600F024FCBEE6002159
:102128002046FFF7D9FCB9E60121F9E7204605F07A
:1021380067FA204604F02FFD0121A06804F07EFD17
:10214800A368D3F87C329D067FF5A8AE4B49606939
:1021580004F04AFDA2E6204600F0F8FAA068012142
:1021680004F06CFD9AE65B2B01D10223FDE5D0F863
:102178007C22900706D5622B08D14FF0FF3120460C
:1021880005F000FAA36800225A7587E6662BF9D194
:102198000121F4E700224275A268D2F87C1289076F
:1021A8007FF51EAD313B1B2B3FF678AE01A151F8F0
:1021B80023F000BF392200084522000859220008F0
:1021C8002D220008A51E0008A51E0008A51E00084F
:1021D800A51E0008A51E0008A51E0008A51E0008CB
:1021E800A51E0008A51E0008A51E0008A51E0008BB
:1021F800A51E00083121000827210008ED2000084D
:10220800B3200008A51E000831220008A51E0008FA
:102218003D220008A51E0008A51E0008A51E0008EE
:102228004922000803235375204605F0F0F935E6E6
:1022380003235375204605F0E3F92FE6032353756E
:10224800A068D0F87C1201F0010181F001014EE68E
:1022580003235375A368D3F87C329B077FF51EAE22
:102268001FE7002381E500BFA2A80008ECA600082C
:1022780098A10008CD940008D2940008C8940008DA
:102288002DE9F34104468068154600F520700029C1
:1022980035D04FF4804104F089FCA3681D6560685F
:1022A800036800219B68984770BB204604F028FD0E
:1022B80050BB174DDFF85C804FF0FF364FF0FF370B
:1022C800A06800F5217000220721CDE9006706F01B
:1022D80088FCA06804F09FFC2A460421204604F0EC
:1022E800C7FC20464246012104F0C2FC606803682E
:1022F8005B6903B19847A06804F089FCE0E76FF4D4
:10230800804104F062FCC8E702B0BDE8F08100BF7C
:10231800CD170008D76C000810B50B49044604F027
:1023280070FD2046094904F06CFD2046084904F078
:1023380068FD2046074904F064FD2046064A00214E
:1023480000F050FB002010BDF2A6000830A70008DE
:102358008FA70008E3A700087EA80008F8B517466D
:102368001E460A462949044604F04BFD3EB33A7816
:102378002749204604F045FD01256A0703D1254970
:10238800204604F03EFDAE421ED97A5D2049204623
:1023980004F037FD0135102DEFD11F49204604F018
:1023A80030FDB6B91B49204604F02BFD0125AE428D
:1023B8002B4610D81749204604F023FD15E017498D
:1023C800204604F01EFD01251449204604F019FD9D
:1023D800E0E700252B46FA5C1149A2F120035F2BA8
:1023E80028BF2E22204604F00CFD0135102D06D002
:1023F8006B07DCD10749204604F003FDD7E72046E8
:102408000849BDE8F84004F0FCBC00BF94A80008E7
:102418009BA80008A3A80008A5A80008A1A8000870
:10242800C7A80008A7A800082DE9F041044680685D
:10243800D0F8A06288B0884615461F46002E50D1B5
:102448004FF42A72314606F0F7FBA06800F52170B8
:1024580006F0BBFBA06800F524700122114606F0C7
:102468004FF9A3691E60A0684FF4007100F5207051
:1024780004F09CFBA36850225A87A36818221A8785
:102488002168204604F0E7FCA368174A66F3820532
:10249800C3F87C526068036841461D682346A84714
:1024A8000546D0B9A36801221A75D4E909010022AA
:1024B8000023CDE906230E2303930E9B0495CDE953
:1024C80001730094094B4FF4006202F083FDA36886
:1024D800C3F8A002216A02F0AFFC284608B0BDE8A4
:1024E800F0816FF07705F8E7C36C000889220008CF
:1024F80010B5044613460A460146064801F05CFA40
:1025080023691B7923B12046BDE8104004F0EEBCD6
:1025180010BD00BF0D6F000838B50B46154648B909
:102528001449154A521AB3EB920F05D251F82350A9
:10253800284638BD84680CB90025F9E70F4A94424B
:102548000AD30F4A944207D2184622682946904770
:102558002B68002BECD1EFE70A4A944202D30A4ACF
:10256800944205D3246814225343E518E358F0E74E
:102578000133F8E7609300089093000894940008EA
:102588009C9400089093000894940008F7B5037889
:102598002D2B0446164605D16FF015033360002035
:1025A80003B0F0BD01F09AF80B4F00230546C35164
:1025B8000A46204601A903F0D1FBEB59222B02D190
:1025C8006FF02103EAE7002BE6D1019BA342E3D099
:1025D8001B78002BE4D0DFE70C0000008368D3F8F9
:1025E8007C329B0603D50249406904F038BF704726
:1025F800D8940008014904F032BF00BFE79E0008E4
:102608000A1E0DDC0ED042238168D1F87C1289069F
:1026180008D5002A04494069B8BF524204F01FBFD8
:102628004123F1E7704700BFC3A800080A1E0DDC6C
:102638000ED044238168D1F87C12890608D5002A77
:1026480004494069B8BF524204F009BF4323F1E787
:10265800704700BFC3A800082DE9F0478568DFF878
:102668006890044605F15C00FDF70EFE002395F81E
:102678003C7086B29846A268558FED1BB54209DBBF
:10268800002E1FDD5C3360691049BDE8F0471A442D
:1026980004F0E5BE1D442A445C3392F85CA082F83D
:1026A8005C80A26860691A44494604F0D8FEA368B1
:1026B8002B4483F85CA0A3685B8FDB1BF61A00270A
:1026C8002B46D8E7BDE8F0872B9D000898A10008A5
:1026D80008290A4617D8836893F83E10914212D009
:1026E80083F83E208368082AD3F87C3205D09906FF
:1026F80009D50549406904F0B2BE9B0603D50349D4
:10270800406904F0ACBE7047CAA80008DD94000810
:1027180038B50D4609780446FFF7DAFF6A78072AC4
:1027280011D8A36893F83F1091420CD083F83F204A
:10273800A368D3F87C329B0605D560690249BDE8D9
:10274800384004F08CBE38BDD3A80008F8B58368BB
:10275800B3F854200446002A55D0B3F8561000297F
:1027680051D05B3103F15C050B441846A84206D3EF
:10277800014611F80169202E3CD0A8423CD286B20D
:102788009DB2AB1B9BB2591C471CD21A0144384658
:1027980006F038FAA268B2F85430711B13FA81F3C4
:1027A800A2F85430A368B3F854201344002283F8E5
:1027B8005C2009B2204604F0BCFEA368D3F87C3242
:1027C8009A0603D51049606904F049FE3B460F4A52
:1027D8000821204604F0CAFF2046FFF7FFFEA36841
:1027E800D3F87C329B060ED560690949BDE8F840EC
:1027F80004F035BE0846B9E7014611F80169202EF4
:10280800BDD00846B9E7F8BDE294000898A10008D1
:10281800E69400082DE9F84F04460F4690460AB1A1
:10282800FFF7DCFEA668D6F87C32B6F856505B0790
:1028380024D505F15C003044FDF726FD2A4E0546F7
:10284800B5B9A368B3F85420A3F85620A06804F0DB
:1028580013FE30B1B8F1000F00D017B16069FFF76F
:10286800C9FE7942204609B2BDE8F84F04F061BEBE
:102878006069314604F0F3FD013DE1E73046FDF7BC
:1028880003FDB6F85490738F19FA80F915FA80F0A1
:10289800B0FBF3F2B9FBF3F39A42AA461BD0134DEF
:1028A800A3684845CDDA5A8FB0FBF2F302FB130355
:1028B800461C13B96069FFF79DFEA3685344204680
:1028C80093F85C300AF1010B2A46082104F04EFF08
:1028D800DA463046E4E75C35054A73190821204694
:1028E80004F044FFADE700BFF6B30008C7A800082E
:1028F80098A1000813B583688DF80710D3F87C22D7
:102908000446D00725D5B3F85610B3F854208A42A8
:102918001FD0481CA3F856000B449DF8072083F8E5
:102928005C20A368D3F87C12890710D5D3F87C32D1
:1029380060690B4913F0040F18BF2A2204F08FFDB9
:10294800204604F0ABFD10B16069FFF753FE02B0FA
:1029580010BD01220DF10701204604F014FFF6E72F
:10296800C7A8000810B583689A7D04461AB9094AB1
:10297800022104F0FBFEA368D3F87C329B0707D53D
:102988002046FFF769FE2046BDE8104004F0ACBDC4
:1029980010BD00BF98A10008014904F089BF00BF1D
:1029A800E79E0008F8B50F465168044615461E46CE
:1029B80011B11A4604F089FFAB6883B1314620464D
:1029C800FFF734FE2046064A3B46082104F0CEFEB7
:1029D800A968F21D2046BDE8F84004F076BFF8BDAE
:1029E800DCA800082DE9F04F0E46002189B0044606
:1029F80017460D4603AA304601F10108FFF78CFD82
:102A0800A8B98DB127B13A460821204604F0AEFE98
:102A1800DFF88C90DFF88CB0002103AA304601F172
:102A2800010AFFF779FD60B909B0BDE8F08F0068C9
:102A380010B1FDF729FC80B2854238BF05464146F2
:102A4800D8E7D0F80080B8F1000F0FD098F8003020
:102A580063B14768144ACDE900584B46082120461F
:102A680004F084FE27B96069FFF796FF5146D4E762
:102A78004B4620465A46082104F078FE384604F0B2
:102A880005FFAB1D9BB228B13A4641462046FFF7E9
:102A980089FFEBE71A463946204604F016FFE5E7BA
:102AA80001A90008EEA80008E7A80008F7B50F6814
:102AB80005460E46D7B13846FDF7E6FB84B2104B03
:102AC800009308213B4628460E4A04F04FFE7168E1
:102AD800084604F0DBFEE31C9BB248B10A463168A5
:102AE800284603B0BDE8F040FFF75CBF3C46E6E788
:102AF8001A46284603B0BDE8F04004F0E6BE00BF21
:102B0800FDA80008EDA6000810B507490446FDF722
:102B1800A9FB38B105492046FDF7A4FBB0FA80F0BF
:102B2800400910BD0120FCE7F3A80008F6A800083A
:102B380010B58368D3F87C329B06044603D5064952
:102B4800406904F032FFA36850225A87A36818220C
:102B58001A87002010BD00BFEA94000808B58369F1
:102B680002491A6804F04DF9002008BD04A90008BC
:102B78002DE9F3410D490E4C0E4EDFF83C80054619
:102B880004F03FF90022B44202F1010703D3002008
:102B980002B0BDE8F081236A0093A36892B241466F
:102BA800284604F02EF92C343A46ECE714A900081C
:102BB80034930008609300082CA9000808B502495E
:102BC80004F049F9002008BDE89E000873B50E4ED0
:102BD80004460025A268E0680DF1060302F5AE720E
:102BE800012104F080FFBDF80600A36840B12A4621
:102BF80003F5AE733146204604F003F90135E9E7E1
:102C080083F85C0102B070BD3DA9000810B5044608
:102C180004F059F903490246204604F0F2F800206E
:102C280010BD00BF5CA40008022907B50BD153688A
:102C3800009312680B4B0C4904F0FFF86FF0150075
:102C480003B05DF804FB8368084AD3F87C3208496E
:102C580013F0020F074B18BF1A4604F0D2F80020F1
:102C6800EEE700BF4BA9000860A9000847A90008C3
:102C780069A90008E09D000810B58368D3F87C3284
:102C88009A06044603D50749406904F08EFEA368F6
:102C9800D3F87C329B0603D50349606904F085FEAE
:102CA800002010BDF1940008F6940008F0B5012941
:102CB80085B004460AD05368009312685D4B5E499C
:102CC80004F0BBF86FF0150005B0F0BD8368D3F8C9
:102CD8007C32990603D55949406904F066FE6FF0C5
:102CE800F9012046FFF78CFCFA212046FFF79EFCED
:102CF800A06800254FF48072294600F5AE708DF863
:102D08000B5005F099FF4E49606904F04EFE60696A
:102D180004F0ECF84FF47A766068036801221F69C2
:102D28000DF10B0103ABB847039BEBB9013E4FF420
:102D38007A70B6B205F02EFC002EEDD1A368D3F858
:102D48007C329B0603D53F49606904F02EFEA368D8
:102D58003D4950225A87A368182220461A8704F052
:102D68005EF86FF00700AFE79DF80B20A3681B2AF9
:102D780053D093F85C111B29CED1522A4DD15A1940
:102D8800002382F85C31A66896F85D215B2A2BD176
:102D980006F25D10022510F8011F2A463B2905F1AD
:102DA8000105ADB223D1FF2AC8D002F5AE7216FADA
:102DB80082F1002211F8010F18BB86F85C01FA2A8B
:102DC800A16828BFFA224A87FA2BA26828BFFA23EB
:102DD8001387A368D3F87C329A0603D5194960692A
:102DE80004F0E3FD00206FE786F85C31A6E703EB0B
:102DF8008303303901EB4301B5F5807F8BB2CAD12B
:102E08009CE7013502EB8202ADB2303800EB42009C
:102E1800B5F5807F82B2CDD190E72B440135ADB2B4
:102E2800092D83F85C217FF677AFA368002283F829
:102E38005C2183E74BA9000860A90008FC940008FE
:102E4800B4A90008009500087AA900082DE9F04FF8
:102E5800074689B01546894621B1104604F0BEFEE2
:102E680000285BD1032455E05C463CE029460AF57E
:102E7800AE7005F034FF0646002854D0FDF704FA7A
:102E880082B2601C01323146304405F0BBFE224656
:102E98005946304605F0A8FE4FF020033355BAF8DE
:102EA800583001331C44AAF8584008F1010800249E
:102EB80001994B1C03AA48460193FFF72DFB0646D0
:102EC800E8B131680022284604F01AFF0028EFD143
:102ED800D6F800B0D7F808A0BBF1000FC4D0584608
:102EE800FDF7D2F984B2BAF858302344FF2BBDDD80
:102EF8000E4A2B460321384604F038FC0124B8F169
:102F0800000F07D0B8682A4600F1580100F5AE70E6
:102F180004F06EF9204609B0BDE8F08F4FF00008C4
:102F280041460224C5E70224E9E700BF7CAE000859
:102F380008B50348034A0021121A04F094FE08BD9C
:102F4800B8000020F00800200748084A084908B5DA
:102F5800121A04F08AFE0748074A0849BDE80840E3
:102F6800121A04F082BE00BF00000020B400002046
:102F7800F8B300080000002000000020F8B30008A3
:102F880038B505460C4699B1D1E901230F480968BF
:102F980003F0DFFBD4E90423E1680D4803F0D9FB13
:102FA800E1690C4803F0D5FBA1690B4803F0D1FB9C
:102FB800012D05D1EFF305810848103903F0C9FB4D
:102FC80021462846BDE8384001F08ABDCEAE00084B
:102FD800FEAE00082EAF00083EAF00086DAF000837
:102FE80030BFFFF7FDBF00BF2DE9F0410B4EDFF802
:102FF800308006EB0807CC1B0546324609492046B7
:1030080005F0F2FDA01942460021083C05F014FE27
:10301800C5F8AC4007F10800BDE8F08100000000E9
:10302800080000009C9400082DE9F843324D8046C2
:1030380032488946174603F08CFBAB6ADE0622D578
:103048002F4803F086FB1124AB6A1D0703D52D48D2
:1030580003F07FFB1224284DAB6A980715D52A4840
:1030680003F077FB6E6BAB6A190642D527483146E9
:1030780003F06FFBB9F1000F03D0AB6A23F08003B4
:10308800AB62132403E01024DEE76FF015061A4D37
:10309800AB6ADA0703D51E4803F05BFB1424AB6A5E
:1030A8009B0603D51B4803F054FB1524124B9A6A60
:1030B800D50602D49A6A90070AD55B68190507D520
:1030C8004146304600F056FA10B180F309880224D0
:1030D800094B9A6A920642BF5A6A22F400525A620F
:1030E8009A6A42F0FF029A6200233B702046BDE8CC
:1030F800F8836FF01506C4E700ED00E081AF000823
:1031080098AF0008CCAF0008E0AF0008F9AF00089E
:1031180010B0000830B0000810B51D4C1D4803F071
:1031280018FBA36A990130D51B4803F012FB1E2037
:10313800A36ADA0103D5194803F00BFB1F20144CCE
:10314800A36A1B0303D5164803F003FB2120A36AD7
:10315800590303D5134803F0FCFA22200C4CA36A48
:103168009A0303D5104803F0F4FA2320A36ADB037B
:1031780003D50E4803F0EDFA2420054A936A6FEA56
:1031880003436FEA1343936210BD1D20D0E700BFCD
:1031980000ED00E060B0000879B000088DB00008CC
:1031A800A8B00008C7B00008EDB0000808B10008D2
:1031B80070B5244C064624480D4603F0CAFAA36AA3
:1031C800D90435D5214803F0C4FA1720A36A1A0593
:1031D80003D51F4803F0BDFA18201A4CA36A9B05B3
:1031E8000FD51C4803F0B5FAA16BA36A180407D5DC
:1031F800194803F0AEFA1EB1A36A23F40043A36290
:103208001920104CA36A590503D5144803F0A1FAF4
:103218001A20A36ADA050DD5114803F09AFA1B2083
:10322800084A936A43F47F43936200232B7070BD6E
:103238001620CBE7A36A9B04F2D50A4803F089FA63
:103248001C20EDE700ED00E034B100084BB10008A8
:10325800CCAF00085DB1000877B100088DB1000857
:10326800A9B1000830B000082DE9F0415B4B5F6858
:103278008AB00446C7F30806002585F31188BFF312
:103288006F8F02F07F43B3F17F4F06D102F00C033A
:10329800082B13D1524803F05CFA00252C464FF056
:1032A8000008F31E8DF80780092B00F28680DFE8FE
:1032B80003F00A7A7E7684848484848210074CBF63
:1032C8000C460125EBE74748444E03F042FA8DF8D7
:1032D8000780F36A9A0704D5434803F03AFA0023B3
:1032E80030E0F36A002B01DA4048F6E7F36A5B0046
:1032F800F5D53F4803F02DFA7369A26943F480734A
:103308007361BFF34F8FBFF36F8F736932F8022C6D
:1033180023F480737361BFF34F8FBFF36F8F4DF644
:1033280002739A4209D0B36ADBB253B30DF10702B4
:1033380001212046FFF778FE33E021682D4803F08D
:1033480008FA23689DF80720C2B902AE04F12007E5
:1033580020686168324603C20834BC421646F7D179
:10336800099AB5B3C2F3080121B96FEA52226FEA8C
:103378004222099202A91846FFF702FE0AB0BDE8E8
:10338800F081B36A13F47F4F05D00DF107010120D6
:10339800FFF70EFF05E0B36AB3F5803F9FD3FFF751
:1033A800BBFE0346CEE70DF107020021C1E70DF190
:1033B80007010020ECE710488FE7104B104911482F
:1033C80017F4F87FA6F1100218BF194603F0C1F9E7
:1033D80085E722F4FF7222F00102CAE700ED00E05F
:1033E800F0B100081CB2000834B2000856B2000858
:1033F80065B2000885B20008A2B20008D7B100087B
:10340800C2B10008C7B20008044B5A6942F0100262
:103418005A615A6922F008025A61704700ED00E0CB
:10342800EFF30880EFF3098101B57246FFF71CFF3F
:1034380001BD00BF0E4880F30888102080F3118872
:103448000C484FF0AA014FF4046204F00CFC094840
:103458004FF40461401880F30988EFF314800221C7
:10346800084380F31488BFF36F8F00F04BF8000017
:10347800001F0020401100201EF0040F0CBFEFF3C6
:103488000880EFF30980816911F8021C0229FFD036
:1034980001B5724604F0EBFB01BD00BF40B2002845
:1034A80007DB044A4109012300F01F00834042F86A
:1034B8002130704700E100E040B20028A8BF00F1C9
:1034C800604001F10101B8BF064B4FEA0111ACBFE2
:1034D80000F5614000F00F00C9B2B4BF195480F87C
:1034E8000013704714ED00E0044B054A23F07F03F6
:1034F8009360BFF34F8FBFF36F8F704700000008D2
:1035080000ED00E008B5FFF7EFFF0B4AD2F888306E
:1035180023F47003C2F88830EFF3148323F0040314
:1035280083F31488BFF36F8FFFF702FDFFF70CFDDD
:1035380000F0B6F801F0A0FB00ED00E042F8203CF6
:10354800009B42F81C3C0A49019B42F8183C029B2C
:1035580042F8143C21F001014FF0807342F8043C1A
:1035680042F8081C0023203A0265C0F8B0307047C2
:10357800D50700080A4A0346906878B113F1160F78
:10358800D0F89C0005D0A0F14002934205D38342B5
:1035980003D2814228BF002070470020704700BF37
:1035A8009808002008B515460C4A0D4B9060D0F8D5
:1035B800AC201A600E4600F0A3F82C4686F3098862
:1035C8000020044B98472046002100220023024C8B
:1035D800204700009B7C0008D507000898080020B9
:1035E800E0070020014B10221A61704700ED00E04F
:1035F800054B5A699B689A421FBF044A536843F0B7
:1036080080535360704700BF9808002000ED00E029
:10361800084B9B6883420BD1EFF3058343B1064BFC
:103628005A6842F080525A605A6A22F400425A623A
:1036380001F064BF9808002000ED00E015498A6891
:103648004FF030001044EFF3098C80E8F01F102091
:1036580080F31288BFF36F8F0F4F4FF000664A69EF
:103668008A603E60D2F8AC000C4C2060D2F8B00002
:103678000023C2F8B03080F3118804B5104600F07A
:103688003FF8BDE8044002F1300090E8F01F8CF3E9
:10369800098870479808002004ED00E0E007002042
:1036A800044800231021C2180133552B82F8001357
:1036B800F9D1704700E100E008B5EFF30583064A49
:1036C800103B02EBC30152F8330049688847BDE854
:1036D8000840FFF78DBF00BFF08F00080148006861
:1036E80070470000E0070020024B034A034801210D
:1036F80000F078B80000012000000020A89A000817
:10370800D0F89C20054B403A1A60054A4021C3E98D
:1037180001121846012100F06FB800BFE40700202D
:1037280000000B15084AC2F898000B6823F01F0325
:10373800034343F01003C2F89C308B6843F0010345
:10374800C2F8A030704700BF00ED00E02DE9F0435B
:10375800DFF8608085B00E461F4604464FF000092A
:10376800B14523DA6068D8B13FB1411E08421BD188
:103778001F2819D92368194216D12368019304F028
:103788009CFAA36803430393D8F89050C5F3072520
:10379800D0B2013DA84207D801A9FFF7C3FF421CD8
:1037A80009F101090C34DBE76FF01502104605B08A
:1037B800BDE8F08300ED00E0044B0522C3F8942037
:1037C800BFF34F8FBFF36F8F704700BF00ED00E06E
:1037D800BFF35F8F024B0022C3F89420704700BFED
:1037E80000ED00E010B5034C01232278FFF7AEFF8F
:1037F800207010BDEB08002008B50B4A0023127892
:10380800FFF7A4FF10F1160F07D0084A0021D2F8DD
:103818009030C3F30723984200DB08BDC2F8980034
:10382800C2F8A0100130F2E7EB08002000ED00E03C
:103838002DE9F0435B4B5C4CD3F890302568C3F31B
:1038480007239D4285B000F2A980FFF7C1FF002041
:103858000C2685421BD1554C554F25706846FDF7FF
:10386800A3F9DFF84081DFF84C9106460025AE4207
:1038780014D123784B490020D1F89020C2F30722B5
:103888009342C0F28580FFF797FF002045E061680A
:1038980006FB0011FFF746FF0130DAE7009800EB5E
:1038A80005114FEA051CCB683B40B3F5000F4DD01E
:1038B8000AD8B3F5001F33D0B3F5800F3BD0B3F56A
:1038C800801F13D00135D2E7B3F1007F47D0B3F1A1
:1038D800805F4DD0B3F1807FF4D150F80C30886808
:1038E8004A6804F0EAF940F0887009E050F80C30B2
:1038F80088684A6804F0E1F940F0885040F43020C4
:10390800CDE901230390D8F890302078C3F307233A
:10391800013B984235D96FF0150005B0BDE8F0833A
:1039280050F80C3088684A6804F0C7F940F08850AD
:1039380040F40020E4E750F80C3088684A6804F046
:10394800BCF940F0C06040F40030D9E750F80C30C2
:1039580088684A6804F0B1F940F08270D0E750F8FE
:103968000C3088684A6804F0A8F940F48020C7E75A
:1039780050F80C3088684A6804F09FF940EA09005A
:10398800BEE701A9FFF7CEFE23780133237099E73C
:10399800C1F89830C1F8A00001336DE74FF0FF304F
:1039A800BBE700BF00ED00E0B49A0008EB08002078
:1039B8000000F0FF00000211F0B587B007460E4680
:1039C80014460021102268461D4605F035F90223E9
:1039D8008DF802302A46054B019321466846CDE909
:1039E800047602F0A7FA07B0F0BD00BFE37C000838
:1039F80008B5024B1B689847002008BDF007002057
:103A0800034B044A1860937843F00203937070479D
:103A1800F00700204400002008B50649064821F0B8
:103A28000701C1F1005202F5803202F023FE0020A6
:103A380008BD00BF47210020F40700202DE9F04F02
:103A480089B01E46129B049204460D46002B00F0D6
:103A58002082A34631461BF8010B04F049F95FFAAE
:103A680080F90246287804F043F9B9F13F0FC3B250
:103A78000293484629D012F0C00F09D1B9F1000FBE
:103A880017D0B9F12A0F38D0029B994533D022E0DC
:103A9800B9F15B0F00F08480B9F15C0FF4D1F30742
:103AA800F2D4607804F024F904F1020B5FFA80F98B
:103AB800EAE7F10602D5029B2F2B03D0029B181EC2
:103AC80018BF012009B0BDE8F08F029B1BB12F2B56
:103AD80003D1B2070FD50120F4E7029B2E2B0AD1A0
:103AE800730708D5049B9D42F5D0B70703D515F891
:103AF800013C2F2BEFD001352EE0607804F0F8F868
:103B0800C1B22A291AD0029B2E2B0AD1740708D5D4
:103B1800049B9D42DFD0B00703D515F8013C2F2B3D
:103B2800D9D079B916F00200CCD0F20600F1B381F1
:103B38002F21284605F098F80038C1E71BF8010F37
:103B48003146DBE72F2909D1B30707D5284605F009
:103B58008BF805460028BED05C467AE7129B06F033
:103B6800020903F1FF38029B2C46002BB3D0049ABC
:103B7800CDF80080334629465846FFF75FFF0028F6
:103B8800A0D02078314604F0B3F8C3B22F2B05F14A
:103B980001050293E7D1B9F1000F9CD12C46E6E765
:103BA800029B002B97D02F2B21D1B70793D4637892
:103BB800212B01D05E2B2AD1A31C06930123029846
:103BC8000793314604F094F803909DF80C30DDF823
:103BD80018800593002498F800305D2B1ED1069BB1
:103BE800434523D2079B08F1010BA34282E7029BBE
:103BF8002E2BDCD17007DAD5049B9D423FF46BAFC6
:103C0800B107D4D515F8013C2F2BD0D163E7CDF8F7
:103C180018B00023D3E70124D046DCE7002B3FF49B
:103C280033AF2F2B36D1B2073FF555AFC2463146D9
:103C38001AF8010B04F05CF898F801302D2BC2B289
:103C480040F0228198F80230002B00F01D815D2B96
:103C580000F01A815C2B08F1020A03D1F00758BF63
:103C680008F1030A1AF8010B314604F041F810F084
:103C7800FF003FF409AF310705D5A0F14103192B27
:103C880098BF2030C0B2059B9342C5D3834298BFEA
:103C98000124C1E75C2B98F8011004D1F307C5D4BF
:103CA80008F10108C2E75B2B9DF80C20BED13A2928
:103CB800BCD1002108F102000B46824610F801CB66
:103CC800BCF1000F48D17548754FBB4208BF81420F
:103CD80000F0CC80884277EB03005CD37148A7F5ED
:103CE80010276FF4817C6744BB4208BF814200F013
:103CF800AD80884277EB030039D307F1D0476A4893
:103D0800A7F50D37173F834208BFB94200F09180ED
:103D180000F57F4007F1C167F13007F500378342AE
:103D280008BFB94200F08B80A0F57F4007F1E0673B
:103D3800F33807F50037834208BFB9427FF476AFFE
:103D4800039B03F0DF03413B192B7FF664AF303A46
:103D5800092A98BF01245FE710F802ECBEF15D0F55
:103D6800B1D01B0243EA11634CEA0121A5E74F4891
:103D78004F4FBB4208BF81426FD007F1E0474D4823
:103D880007F57437F637834208BFB9427FF44EAF60
:103D9800213A5D2A63E04848484FBB4208BF814248
:103DA8006AD0884277EB030023D34548A7F53F370D
:103DB800A7F5FC77BB4208BF81425AD000F1754095
:103DC80007F20537BB4208BF81427FF42FAFA2F14B
:103DD80021030E2B7FF61FAFA2F13A03062B7FF6C5
:103DE8001AAFA2F15B03052B7FF615AF7B3A032AC6
:103DF800AFE72A48334FBB4208BF814242D007F1A0
:103E0800F04700F18060A7F588176FF4E16C00F5C2
:103E180000306744BB4208BF81427FF407AF303AA5
:103E2800092A7FF6F8AE039B03F0DF03413B052B1D
:103E38008FE7039B03F0DF03413B192B89E7202A17
:103E48003FF4E9AE092A08BF0124E5E6039B13F015
:103E5800E00F3FF4E0AE7F2AF5E7303A092A94BF35
:103E680000220122012A18BF0124D5E6613A192A45
:103E7800F5E7203A5E2AF2E7202A3FF4CCAE093A69
:103E8800042A66E7413AF2E7059B934208BF0124FA
:103E9800C2E6032016E6084614E600BF5D3A7265DE
:103EA800776F6C005D3A6C72706C61005D3A746992
:103EB80067696400617267005D3A656361707300E9
:103EC8005D3A746E70707500064B02681A60064B96
:103ED80042681A60054B82681A60054B02691A60CD
:103EE800704700BF080800200408002000080020D0
:103EF8000C08002007B5094A92E803006B4683E8DE
:103F0800030007488268126822B11946904703B037
:103F18005DF804FB6FF05700F9E700BFC094000894
:103F2800708E00081F2809D8012303FA00F0044BFB
:103F38005B6998430CBF0120002070470020704740
:103F4800003C014000F01F021F284FF0010303FA54
:103F580002F39DBF024A002053616FF015007047BD
:103F6800003C0140044B184400230133994200F8F7
:103F7800012BFADC704700BF780000202DE9F041E2
:103F8800104F054600264FF001086B78F4B2A342A3
:103F980001D8BDE8F0812B781C442046FFF7C2FF0A
:103FA80068B12046FFF7CEFF57F834303BB107EB36
:103FB800C40204F01F04516808FA04F09847013657
:103FC800E3E700BF10080020034660B1B0FA80F2B2
:103FD800C2F11F02D2B205498856054A11680B433F
:103FE8001360FFF75BBAFF22F5E700BF78000020F7
:103FF800003C0140024A136823EA0003136070473B
:10400800003C0140032921D8DFE801F0020C101917
:104018000F4B9A6822EA00029A60DA6822EA0002E4
:10402800DA6070470A4B9A680243F5E7084BDA688A
:104038000243DA609A6822EA00029A607047044BE9
:104048009A6802439A60DA681043D860704700BFE4
:10405800003C014030B5B0B1B0FA80F3C3F11F03A2
:10406800DBB20B4850F833408C4204D100EBC30557
:104078006D68954205D044B940F8331000EBC30091
:104088004260002030BDFF23EBE76FF00F00F9E737
:104098001008002060B1B0FA80F3C3F11F03DBB24F
:1040A800044A002142F8331002EBC3025160704702
:1040B800FF23F5E71008002000F003020432920005
:1040C8000F23934043EA9000C3B20233054A52F8E3
:1040D8002320030C02EA104093FAA3F3B3FA83F304
:1040E800D84070470038014038B508883D4BC0F3C8
:1040F8000B0016281B680D4614463ED810B96FF001
:10410800850039E001381528F9D801A252F820F0C5
:1041180075410008DB41000871410008DB410008D7
:10412800D7410008AB410008BF410008074100081B
:104138000741000807410008074100080741000837
:104148000741000807410008074100080741000827
:104158000741000807410008074100080741000817
:1041680075410008754100084FF4FA432360296837
:10417800B1F5805F2FD2002038BD44280ED82F28F3
:10418800BDD900F57D61C1F30B0101228A401649B2
:104198000A42EBD14028B2D15B08E7E7A828E5D06E
:1041A800ADE700F0D5F84FF4A8721923B0FBF3F38C
:1041B80053439B08DAE700F0CBF84FF4A8721923B1
:1041C800B0FBF3F353430722B3FBF2F3CEE7074BFD
:1041D800CCE70023CAE7C1F313310131B3FBF1F394
:1041E8002360C8E7680000201101100040787D01B5
:1041F800162808D8054BC34013F0010F14BF002040
:104208006FF0850070476FF085007047EA00600026
:10421800F8B54A4E4A4F00F0BDF8304603F059FE53
:1042280000F0D8FBBB68474AC3F303131478D35C88
:1042380046FA04F420FA03F5A54202D2204600F01B
:10424800F7FB3B6823F480233B603B6843F48033EF
:104258003B603B4B1A689103FCD55A6F42F0010250
:104268005A675A6F9207FCD59A6802F00C02082A1E
:1042780017D11A68970707D41A6842F001021A6022
:104288002F4A13689807FCD52D4B9A6822F0030231
:104298009A609A6812F00C0FFBD19A6822F0F0022B
:1042A8009A60274F3B6823F080733B603B68990115
:1042B800FCD4254AD2F8043823F4403343F480333D
:1042C800C2F80438D2F8043823F0706343F0E0638E
:1042D800C2F8043800F040F83B6843F080733B6054
:1042E800174B1A689201FCD59A6822F0F0029A607E
:1042F8009A6822F0030242F002029A609A6802F079
:104308000C02082AFAD1A54202D3204600F090FBFD
:104318000E4B1E600A4B9A6822F4E05242F4805217
:104328009A609A6822F460429A60D3F88C2022F04E
:104338008072C3F88C200020F8BD00BF00BD0105C5
:104348000038024059B300080030024068000020DD
:104358000048704740787D01094B0A495A68114066
:10436800094A0A435A605A68084922F4403242F41A
:1043780080325A605A681140054A0A435A607047A9
:10438800003802400080BFFF195440000080BFF091
:1043980019544007064B1A6C42F080521A641B6C81
:1043A80082B003F080530193019B02B0704700BFB5
:1043B8000038024008B5074804F01BF938B1064830
:1043C800FFF71EFB0448FCF7E3F9002008BD6FF077
:1043D8001200FBE7D08F0008E54300080A2838B52B
:1043E800074D044604D1AB680D215B682846984701
:1043F800AB6803485B68E1B29847204638BD00BF08
:10440800D08F00082DE9F843D0F804900746D9F872
:10441800080090460D461E4603F0C5FCB8F5001F7F
:10442800044616D12846D9F80840FFF745FE8442CD
:104438000CD1294603F0B7FC0446FFF7DBFD204604
:10444800FFF728FE00212046FFF7DCFD0020BDE82D
:10445800F883B8F5800F20D0B6F1806F19D0B6F187
:10446800C06F18D0B6F1007F1AD102260F493A461C
:104478002046FFF7EFFDB0B9D9F80810284603F039
:1044880097FC20463146FFF7BDFD2046FFF79CFD0F
:10449800DCE70126EAE70326E8E76FF08500D6E7C0
:1044A8006FF01500D3E76FF00F00D0E761800008C8
:1044B80043681B6803F1140252E8002F42F001021E
:1044C80003F1140040E800210029F3D10D4A93427A
:1044D80007D0A2F54C42934203D002F550429342D2
:1044E80003D11A6942F040021A6103F10C0252E842
:1044F800002F42F4807203F10C0040E800210029EB
:10450800F3D170470010014043681B6803F114029F
:1045180052E8002F22F0010203F1140040E80021C4
:104528000029F3D10D4A934207D0A2F54C42934299
:1045380003D002F55042934203D11A6922F0400297
:104548001A6103F10C0252E8002F22F4807203F181
:104558000C0040E800210029F3D170470010014009
:10456800F8B50C46036941681D682379012B36D0DC
:104578009A1E56425641B6026279022A9CBF384FAB
:1045880037F812C0A27988BF4FF4005C042A29D0FA
:10459800003B18BF01231B03E279012A0A680CBFFC
:1045A8004FF440770027A542D1681ED121F4B051BD
:1045B80031430B43D360136923F4405343EA0C039C
:1045C800136143681A68536923F440733B4353618A
:1045D8002968406803F095FE00EAE070F8BD4FF4E2
:1045E800C066C9E74FF48053D6E701F4C0618E4234
:1045F8001FBFD16821F4C0613143D160426811689E
:104608000A6902F4405294451FBF0A6922F44052D5
:1046180042EA0C020A6142681168CA6802F48052D0
:1046280093421FBFCA6822F480521343CB60436889
:104638001A68536903F440739F421FBF536923F4F8
:1046480040733B43536121682B68994206D0406808
:1046580003F057FE0028C1DB23682B600020BDE76C
:10466800B49B0008F8B543681D6803691F680B7997
:104678000C46012B4979A67935D102294AD9042E4D
:1046880045D04FF4C0624FF480534FF0030C8C4573
:104698003DD1002B77D0002A14BF03220422B24256
:1046A80035D1E37963B1012B31D1394B9D4207D024
:1046B800A3F54C439D4203D003F550439D4226D1B8
:1046C800EB6823F40053EB602146FFF749FF00280D
:1046D8001DDBEB6843F40053EB6094E8030087E8C4
:1046E8000300002015E0022B06D102291FD9042E51
:1046F8000DD04FF48062C6E702290A461FD9042E5E
:1047080002D123B90022BEE713BB0329C7D06FF03B
:104718008500F8BD1F4A042E32F811C0F7D04FF4B7
:10472800C062033B012BF2D94FF4805319E0194AB8
:10473800042E32F811C0EAD04FF48062F1E7154A2E
:10474800042E32F811C009D1002BE0D11A46EBE74C
:10475800033B012BDBD9D5E70022E2E7002BFBD195
:104768001A46BCF5805F08D0BCF5405F08D0BCF1A4
:10477800000F8AD14FF0010C89E74FF0000C86E753
:104788004FF0020C83E7002A14BF0222032286E7B7
:1047980000100140B49B000810B54FF0E0230F490A
:1047A8009C691A6908689B690D4902F4803234B91A
:1047B80093B903464AB90A681044C01A10BD002BC1
:1047C80008BF03460AB9A342F5D90A6802440A6039
:1047D8004FF0E0221269EEE70446F3E79408002060
:1047E80090080020094B102283F82320084B42F23E
:1047F800D0021A60074B002018604FF0E02342F205
:10480800CF025A61072298611A61704700ED00E0F3
:104818009408002090080020684620F007018D4683
:1048280019B5FFF7B9FF114B1149D3E900420868E0
:10483800001942F10002C3E900020E4A00230B608E
:10484800D2E9004142F2D003001BB0FBF3F043432E
:104858001B1941F10001C2E9003101F08DF8FEF7A2
:10486800C7FEBDE819408546704700BF48020020D2
:1048780090080020400200202DE9F041DFF8DC809C
:1048880099B1421C0BD14FF0E022136923F00103C8
:1048980013614FF07F43C8F80030BDE8F081D8F8C5
:1048A8000060012807DC00270BE0431CD8F80060F3
:1048B800F7D140F2CC7040F2CD739842A8BF1846A9
:1048C800471EEFF31185102383F31288BFF36F8F10
:1048D800FFF762FF224C4FF0E0239969D4E90023E7
:1048E800801843F10003C4E900031E4B00221A603C
:1048F8001D4B1A68831A2ED442F2D00C0CFB0733D6
:1049080003F503530F33B3FBFCF7131A0CFB073300
:10491800B3F5806F154A38BF4FF48063934228BFC0
:1049280013464FF0E022C8F80030013B906953610C
:10493800002393618142A1EB0003D4E9001238BF40
:104948009B195B1842F10002C4E9003285F3118813
:10495800BFF36F8FA1E74FF48063E2E7940800206C
:10496800480200209008002040020020C0D5FF0027
:1049780038B5EFF31185102383F31288BFF36F8FD7
:10498800084B1C68084B1B68E41AFFF705FF85F302
:104998001188BFF36F8F42F2D0032044B0FBF3F0CD
:1049A80038BD00BF480200204002002038B5EFF3B0
:1049B8001185102383F31288BFF36F8F044B1C6893
:1049C800FFF7EAFE85F31188BFF36F8F204438BDE7
:1049D8004802002008B513498B6803F00C03042B28
:1049E8001CD0082B1CD14A684B68496813F4800313
:1049F80014BF0D480D48C1F3881118BF002302F0F9
:104A08003F02A1FB0001FBF713FC064B5B68C3F3F5
:104A1800014301335B00B0FBF3F008BD0248FCE73B
:104A28000248FAE70038024040787D010024F4008B
:104A3800002841D0214B1A681A6802F44042B2F5A6
:104A4800004F25D11E4A90421DD81E4A1B6890422D
:104A580001D8002005E003F440430120B3F5804F5E
:104A680024D0194A136823F007030343136013681B
:104A780003F0070383421CBF136803F00703C01A3F
:104A880018BF012070471B68022003F44043E5E784
:104A98001B6803F44043B3F5804FDAD1084B9842C2
:104AA80008D8084B98424FF00000DAD9012838BFDF
:104AB8000120D6E70220D4E70120704700700040AB
:104AC8000087930380C3C901003C0240024B036086
:104AD8000248C01A40097047708E0008F08F00081D
:104AE80038B5EFF31185102383F31288BFF36F8F66
:104AF800064B9C6803F090FD85F31188BFF36F8F18
:104B08002046BDE83840FEF783BD00BF9808002066
:104B180038B50A4B53F82040013053F82050A542CD
:104B280000D838BD606830B1037EDB0701D403F0DC
:104B38003FFD0834F3E723689847FAE75C9B0008D1
:104B480070B52A4B2A4C2B4D012286B003201A70CF
:104B5800FFF7DEFF00F0AEFF0420FFF7D9FF26467F
:104B6800AE4204F1300410D300F0FCFB204C224E7E
:104B7800AC4226D300F00AFCFBF760FD1F4A93897C
:104B880023F00103938106B070BD54F80C3C0593E3
:104B980054F8103C049354F8143C039354F8183C0C
:104BA800029354F81C3C019354F8203C009354E9B8
:104BB8000A2354E90C0100F091F954F8303C5E6581
:104BC800CDE7D4E90A23B3F1FF3F08BFB2F1FF3FB5
:104BD80005D052EA0301206803D103F09CFE30346B
:104BE800C6E73146183000F037FEF8E7EC08002039
:104BF8009892000898920008578800080803002037
:104C080070B5174E174D184986B0B82303FB0066D8
:104C1800164B059301220F23CDE903320023CDE97A
:104C28000133142303FB005504464FF4C07000FB06
:104C380004110F4B00954FF4A072304600F04EF966
:104C4800337C0C4AEE6023F0040333744FF404639E
:104C580004FB033313442C746B6006B070BD00BFB3
:104C680050020020980800208019002069B300082D
:104C7800F386000840110020BFB50020FFF748FF69
:104C8800284B83F30888284C284F636943F4007342
:104C980063610025F02384F82230E5772576657670
:104CA800A57684F82050636A43F4E0236362FEF734
:104CB800ABFBFEF797FC4FF0FF33A362E362FEF70E
:104CC800B7FDFEF711FD1A481A4C00F0AFF9FBF7D3
:104CD80053FF0120FFF71CFF0220FFF719FF00F028
:104CE8007FFB154B15495C61154B05930123CDE9F5
:104CF80003534FF480623B46CDE9015500952046A9
:104D080000F0ECF8227C064622F0040220462274C9
:104D180003F04FFD2846FFF773FF3A463146204619
:104D2800FEF740FC8019002000ED00E0494B000828
:104D3800C00300200803002098080020001B002062
:104D48006EB3000838B5064C064DAC4201D30020BE
:104D580038BDD4E90112204603F0A3FC1434F4E76B
:104D6800A0000020B40000201FB5054C0294CDE936
:104D780000230A46002103F052FC04B010BD00BF16
:104D88007766000870B5EFF31186102383F3128855
:104D9800BFF36F8F0468A0421BD0D4B1D4E90032AE
:104DA80013605A60237C002523F002032374C4E9AE
:104DB8000055A56004F1180003F015FE2046C4F85C
:104DC800B45003F0F6FC31460748BDE8704003F0E4
:104DD8006CBDD0E902329A4218BF0133836086F372
:104DE8001188BFF36F8F70BDED08002013B5EFF386
:104DF8001181102484F31288BFF36F8F846844B143
:104E0800013C846081F31188BFF36F8F002002B0EA
:104E180010BD52EA030406D181F31188BFF36F8FE6
:104E28006FF00F00F3E7CDE900230246014800F0D8
:104E380063FAECE7ED08002010B5044608B9054B05
:104E48009C681F2204F17C0003F02DFF002084F8E9
:104E58009B0010BD980800202DE9F84F0C46A1B31F
:104E68009AB390F81090DFF86880571E0846B9F199
:104E7800000F25D0DFF85CA00025B8F804B019EAC7
:104E88000B0F19D0B8F80630D8F800107E1B9E42D8
:104E980028BF1E46324603F0A7FE2E4439EA0B0906
:104EA80004EB06000CD0BD1B012D28BF01252A46A6
:104EB800514603F099FE354408F108086019DCE70B
:104EC800002303702046BDE8F88F0348FBE700BFC6
:104ED800749B000873B30008E89E00082DE9F04FA2
:104EE800D51D85B025F0070504461F467F3500F11E
:104EF8005803C0E9163325F03F05129BA381002013
:104F08000E46119BDDF838B0DDF84C80A060042116
:104F18003F2DC4E906002174A373E07306F1400A2B
:104F2800A5F1400905D880F31188BFF36F8F0846B3
:104F380002DF4A463544AA21504603F07DFE294641
:104F48002046FEF751F80730109B20F00700C4E90F
:104F580027A9C4F8A40002930F9B2D1ACDE900B32A
:104F68002A463B4631462046FEF7E8FA0F9B236760
:104F78004FF00009109BC4F85490C4E91A7B63678A
:104F8800EFF31182102181F31288BFF36F8F104E57
:104F9800316AA167346282F31188BFF36F8FB8F169
:104FA800000F11D01F22414604F17C0003F07BFE64
:104FB80084F89B90B3680BB1D3F8A830C4F8A83034
:104FC800284605B0BDE8F08F84F87C80F2E700BF82
:104FD80098080020F0B587B000250595109D049528
:104FE8000F9D03950E9D0295DDE912760D9D0195A5
:104FF8000C9D00950446FFF771FFB6F1FF3F08BF0F
:10500800B7F1FF3F05D056EA070305D1204603F064
:1050180082FC204607B0F0BD3A46334604F118003A
:10502800014900F019FCF4E75788000801230374CC
:1050380083810023C0E92733C0F8A830014B98606A
:10504800704700BF980800200A4A93686FF00A0169
:10505800C3F8B4100849C3F8B0004B6843F0805354
:105068004B60002383F31188BFF36F8F9368D3F8E5
:10507800B40070479808002000ED00E070B590F982
:105088001020037C002A36DBD90634D11B4C63F090
:105098007F032246037452F8183FE169934207D10F
:1050A800C0E900210860E06111E09942F8D01B686E
:1050B800002BF5D090F90E5093F90E60B542F4D05C
:1050C800AE42F2DD5968C0E9003108605860A56950
:1050D800954200D005B9E568A3681A7CD20604D1C8
:1050E800DA897F2A01D9AA6932B1AB4202D02846AF
:1050F80000F0D6FA656170BD6361FCE7980800208E
:1051080038B590F91020037C002A014604DA03F030
:105118007F03037403F013FB0D4D2A46AB6852F866
:10512800184F944200D004B9EC688B4207D01A7C1F
:10513800D20604D1DA897F2A01D9A2692AB1A34209
:1051480002D0204600F0ACFA23466B6138BD00BFA0
:1051580098080020B3F1FF3F08BFB2F1FF3F03D02A
:105168000249183000F078BB704700BF5788000824
:10517800034648B9EFF3058232B9064A5169926885
:10518800914201D0FFF760BF83F31188BFF36F8F9F
:10519800704700BF9808002038B5194CA168E0692D
:1051A8000B68814214BF1A46002249680B60596097
:1051B800A368E1692AB9134AC3E900210B60E361D6
:1051C8000CE093F90E0092F90E50A84214D08542D3
:1051D80012DD5168C3E900210B605360A569094BD2
:1051E8009D4200D005B9E568A3689D4202D02846D3
:1051F80000F056FA656138BD9142DCD01268D9E7F3
:1052080098080020B0080020F8B5394CA2688242FE
:10521800074624D1EFF305830BBBEFF31186102368
:1052280083F31288BFF36F8F137C03F07F0343F07F
:105238001003137403F083FA234653F8185F9D4252
:1052480000D005B9E568A3689D4202D0284600F061
:1052580027FA65613046BDE8F840FFF7F5BEEFF381
:105268001185102383F31288BFF36F8F3B7CD90617
:1052780004D585F31188BFF36F8FF8BDD90943F0C2
:10528800100219D13A74A6691A4B9E4200D006B989
:10529800E668A368B34202D0304600F001FAA3687A
:1052A80066619F42E5D1EFF30583002BE1D1BA890E
:1052B800D2070AD42846CEE703F07F0343F0100351
:1052C8003B74384603F03BFADDE785F31188BFF3FA
:1052D8006F8F83F31188BFF36F8F0423184602DFA3
:1052E800EFF31180102383F31288BFF36F8FB2E7B7
:1052F80098080020B0080020F8B50E4B0C4611465F
:105308000D4A98681060DDE90667EFF311821022F4
:1053180082F31288BFF36F8F9D68284603F021FA45
:10532800284632463B46FFF715FF2046BDE8F840C1
:10533800FFF78ABE98080020BC080020034648B939
:10534800EFF3058232B9064A51699268914201D059
:10535800FFF77ABE83F31188BFF36F8F704700BFE2
:1053680098080020EFF31181102383F31288BFF30C
:105378006F8F054B9A68D37B013BD37381F31188F8
:10538800BFF36F8F704700BF9808002070B5EFF328
:105398001186102383F31288BFF36F8F0F4DAB680C
:1053A800DA7B0132DA732A4652F8184F944200D059
:1053B80004B9EC681A7CD20604D1DA897F2A01D9AB
:1053C800A2692AB19C4202D0204600F069F923461E
:1053D8006B613046BDE87040FFF7CABE98080020F0
:1053E800024B03F11802C3E906227047980800200F
:1053F80070B5EFF31186102383F31288BFF36F8F14
:105408001B4CA168E0690B68814214BF1A46002250
:1054180049680B605960A368E1692AB9154AC3E96C
:1054280000210B60E3610CE093F90E0092F90E5035
:10543800A84218D0854216DD5168C3E900210B60E7
:105448005360A5690B4B9D4200D005B9E568A36878
:105458009D4202D0284600F023F965613046BDE838
:105468007040FFF7F1BD8A42D8D01268D5E700BF77
:1054780098080020B0080020F8B550EA0103064655
:105488000C4603D1FFF7B4FF0020F8BDEFF31187F6
:10549800102383F31288BFF36F8F124D124BA86845
:1054A8001860FFF72DFEA8681049234632461830C9
:1054B80000F0D2F9AA68137C43F00403137404467D
:1054C8003846FFF7C1FDAB68D3E90A23B3F1004FB3
:1054D80008BF002AD8D103F0AEFA201A20EAE070FB
:1054E800D3E700BF98080020BC08002057880008B0
:1054F800014B9868704700BF980800202DE9F843D1
:1055080004468789EFF31185102383F31288BFF3CC
:105518006F8F037C190705D585F31188BFF36F8F4B
:10552800BDE8F883D90943F0080260D10274A36882
:1055380013B1204603F00BF904F1180003F053FAF5
:10554800A66D04F15808B04511D04FF0000976B1A6
:10555800304603F0FCF806F1180003F044FAC6F8E8
:10556800B4903046FFF78AFDA66DB045EFD1DFF85D
:10557800C480D8F808309C4241D1EFF30589B9F1CD
:10558800000918BF4FF00109D8F818602A4A964256
:1055980000D00EB9D8F80C60B34202D0304600F003
:1055A8007FF82046C8F8146002F070FB204600F02F
:1055B800C9F8B9F1000F02D02048FFF737FDD8F835
:1055C80008309C4231D1EFF3058373BBA289D2071F
:1055D80018D42846FFF738FDFB07A1D5002383F32D
:1055E8001188BFF36F8F0423184602DF98E703F092
:1055F8007F0343F00803037403F0A1F897E74FF023
:105608000009C1E785F31188BFF36F8F83F3118811
:10561800BFF36F8F0423184602DFEFF311801023C6
:1056280083F31288BFF36F8FD4E785F31188BFF334
:105638006F8FD1E798080020B0080020C003002031
:10564800027C12F01F02034610D10A4988420DD08D
:105658000949086868B1D9897F2909D893F90E20C2
:10566800064B1B689A42B8BF00207047002070475D
:1056780010467047500200206C000020C00800202F
:10568800044BC01A044BC0105843044B01221A544F
:10569800704700BF78040020ABAAAAAAED08002032
:1056A80070B50D4B0D4D1E7CFFF7CAFF06EB460388
:1056B80005EBC3050446284603F095F9084B00227C
:1056C8009A553CB1621E28460649BDE87040D3177A
:1056D80000F0C2B870BD00BF980800207804002010
:1056E800ED0800208956000838B5EFF3118510231E
:1056F80083F31288BFF36F8F0F4B104A9C681068B2
:10570800A04206D1FFF7CCFF85F31188BFF36F8F56
:1057180038BD00211B7C1160094AD35C002BF3D0F3
:105728002046FFF78DFF0028EED0237CDB0601D151
:10573800FFF732FD2046E5E798080020BC08002066
:10574800ED080020EFF31181102383F31288BFF3D3
:105758006F8F0A4A136A834207D19B6F136281F3E2
:105768001188BFF36F8F70471346002BF7D09A6FDD
:105778008242F9D1826F9A67F1E700BF980800204A
:10578800F8B505460E46EFF31187102383F3128808
:10579800BFF36F8F064B1C6A24B987F31188BFF3D8
:1057A8006F8FF8BD20463146A847A46FF4E700BFC5
:1057B80098080020F8B506460F46EFF3118310222B
:1057C80082F31288BFF36F8F0B490C6A154624B910
:1057D80083F31188BFF36F8FF8BD83F31188BFF38C
:1057E8006F8F39462046B047EFF3118385F312884F
:1057F800BFF36F8FA46FEAE798080020024B186880
:10580800984208BF0020704770000020034B1B68B7
:105818000BB9FFF7ADB80020704700BFC4080020DF
:1058280030B570B10B4B5B6898420AD0036843B13E
:10583800D3E90421D0E90445121941EB0501C3E974
:105848000421D0E9003213605A600023C0E9003314
:1058580030BD00BF70000020B3F1FF3F08BFB2F1B8
:10586800FF3F2DE9F84F0446994615461F467AD062
:105878008160EFF31188102383F31288BFF36F8FD1
:10588800B9F1000FDFF8E4A020DBFFF7BFFFDAE98A
:105898000027013549F100092D1849EBE073C4E9E7
:1058A8000453AD18064643EB07074FF00109FFF70D
:1058B800A5FFDFF8BCE0DEF804A00346EBB9C4E9B5
:1058C80000EACAF80040CEF8044028E0DAE90012FD
:1058D8006FF001035B1A4FF0FF3161EB02025B1BB3
:1058E80062EB0902012B72F10001BCBF0123002207
:1058F800C0E904324FF00009D9E7D3E9041CD4E920
:1059080004208A4270EB0C0B24DA891A5A686CEB73
:105918000000C3E90410C4E9003214605C60FFF7BA
:105928006DFF84420ED1134B1B685BB9B9F1000FB0
:1059380002D1FFF76BFF0646304603F03DF8002121
:10594800FEF79AFF88F31188BFF36F8F2846394610
:10595800BDE8F88F521A60EB0C009A45C4E90420A0
:10596800ADD01B68AAE700252F46EFE7900400207A
:1059780070000020C40800202DE9F047EFF31185DE
:10598800102383F31288BFF36F8FDFF8A490DFF83A
:10599800A480C9F80000FFF731FF00260027D9F8D6
:1059A8000030D8E900ECD91750B1D0E90442A3423D
:1059B80071EB020A1CDAE41A62EB0102C0E9044244
:1059C80013EB0E034FF000044CEB01012046C8E92D
:1059D8000031C9F8004002F0EFFF2146FEF74CFF06
:1059E80085F31188BFF36F8FBDE8F047FFF77CBEE2
:1059F80014EB0E024CEBE473C0E90467C8E900231A
:105A0800FFF70EFF85F31188BFF36F8F8368984700
:105A1800EFF31185102383F31288BFF36F8FD9F842
:105A280000301B1BC9F80030FFF7E8FEB7E700BFDE
:105A3800C40800209004002010B5EFF3118410234F
:105A480083F31288BFF36F8FFFF7E0FE054A034622
:105A5800D2E90001181841EBE37184F31188BFF310
:105A68006F8F10BD9004002073B50446EFF31186C4
:105A7800102383F31288BFF36F8F8368594003EABA
:105A880002050A405340009300226B4608490192E0
:105A980002F061FFDDE9003223EA020304F10C00A1
:105AA800A360314602F001FF284602B070BD00BF76
:105AB800958B0008014800F04CBE00BFAEB300084B
:105AC800F8B5504A0D460023D0E90001FAF760FB0B
