:020000040800F2
:10000000801600201D0C00084D340008090C000863
:10001000090C0008090C0008090C00080000000089
:10002000000000000000000000000000510C00086B
:10003000090C0008000000000D0E0008A91E0008B1
:10004000850E0008850E0008850E0008850E000844
:10005000850E0008850E0008850E0008850E000834
:10006000850E0008850E0008850E0008850E000824
:10007000850E0008850E0008850E0008850E000814
:10008000850E0008850E0008850E0008850E000804
:10009000850E0008850E0008850E0008850E0008F4
:1000A000850E0008850E0008850E0008850E0008E4
:1000B000850E0008850E0008850E0008850E0008D4
:1000C000850E0008850E0008850E0008850E0008C4
:1000D000850E0008850E0008850E0008850E0008B4
:1000E000850E0008850E0008850E0008850E0008A4
:1000F000850E0008850E0008850E0008850E000894
:10010000850E0008850E0008850E0008850E000883
:10011000850E0008850E0008850E0008850E000873
:10012000850E0008850E0008850E0008850E000863
:10013000850E0008850E0008850E0008850E000853
:10014000850E0008850E0008850E0008850E000843
:10015000850E0008850E0008850E0008850E000833
:10016000850E0008850E0008850E0008850E000823
:10017000850E0008850E0008850E0008850E000813
:10018000850E0008850E0008850E0008850E000803
:04019000850E0008D0
:1001940053B94AB9002908BF00281CBF4FF0FF31EA
:1001A4004FF0FF3000F00CB8ADF1080C6DE904CE4F
:1001B40000F008F8DDF804E0DDE9022304B070473C
:1001C400704700BF2DE9F04786468C460846089ED6
:1001D400154674461946002B40F0C2808542B2FA97
:1001E40082F245D94AB1C2F1200300FA02FC2EFA88
:1001F40003F3954043EA0C0C94404FEA154EA8B221
:10020400BCFBFEF8230C0EFB18CC08FB00F943EAF8
:100214000C43994528D9EB1808F1FF3704D29945C6
:1002240002D9A8F102072B44A3EB0903A4B2B3FB40
:10023400FEFC0EFB1C330CFB00F044EA0344A0421A
:1002440014D92C190CF1FF3304D2A04202D9ACF119
:1002540002032C44241A43EA07401EB1D44000236D
:1002640034607360BDE8F0874746DDE76346F1E735
:1002740092BB431B01214FEA154EAFB2B3FBFEFC08
:10028400200C0EFB1C330CFB07F840EA0343984593
:1002940062D9EB180CF1FF3004D2984502D9ACF1C5
:1002A40002002B44A3EB0803A4B2B3FBFEFC0EFB39
:1002B4001C330CFB07F744EA0344A7424ED92C191C
:1002C4000CF1FF3304D2A74202D9ACF102032C444F
:1002D400E41B43EA0040C0E7C2F1200320FA03F123
:1002E400954090402EFA03F303434FEA154EAFB204
:1002F400B1FBFEFC0EFB1C10190C0CFB07F841EAC9
:100304000041884504FA02F422D969180CF1FF303F
:1003140004D2884502D9ACF102002944A1EB0801BA
:100324009BB2B1FBFEFC0EFB1C110CFB07F743EA6E
:1003340001439F420ED9EB180CF1FF3104D29F42C6
:1003440002D9ACF102012B44DB1B41EA004192E7E4
:100354006046E3E76146F7E76046A3E76346B7E72D
:10036400834206D916B9002108467BE7C6E900E0B6
:10037400F9E7B3FA83F78FB9834201D3724508D8FA
:10038400BEEB020460EB030301209C461EB900216E
:1003940068E73846FAE7C6E9004CF8E7C7F1200CED
:1003A400BB4022FA0CF41C432EFA0CF120FA0CF395
:1003B400B84001434FEA14490EFA07F5B3FBF9F8C4
:1003C4001FFA84FE09FB18300B0C08FB0EFA43EAF3
:1003D40000439A4502FA07F240D9E31808F1FF30C6
:1003E40004D29A4502D9A8F102002344A3EB0A03DC
:1003F40089B2B3FBF9F809FB183308FB0EFE41EA96
:1004040003418E452CD9611808F1FF3304D28E457F
:1004140002D9A8F10203214443EA0040A0FB029858
:10042400A1EB0E014145CE46434602D306D14D45CC
:1004340004D2B9EB020E68EB04030138002EA6D0F7
:10044400B5EB0E0261EB030101FA0CFC22FA07F38F
:100454004CEA0303F940C6E9003198E74046C5E792
:100464004346D9E710B500F01FF8041E05DA0B481F
:10047400214602F04EFF204610BD00F0B1F8041EE4
:1004840002DA07482146F4E7064802F042FF00F08A
:100494002DF800210A2003F09EFEF8E7924B000895
:1004A400B54B0008D84B000808B50D4803F002FE10
:1004B40010B96FF0120008BD094803F0FBFD0028D5
:1004C400F7D008484FF4803102F099FE0028F2DB9F
:1004D40005484FF4B01102F092FE00EAE070EAE73A
:1004E40048450008644900085C49000837B5134CC6
:1004F4002569A36801A95B682046984700280CD0A9
:100504001ADB2B68990511D4A368DB680B484FF4F8
:10051400007103B0BDE8304018472A68019B53407E
:10052400920503F4807304D5002BEDD0A3681B69F6
:10053400ECE7002BFAD0E7E703B030BD48450008EC
:1005440070B5214C8AB023783BB32048204D02F08B
:10055400E0FE204B9C685A238DF8063000238DF86A
:1005640007300DF106030DF1070202930123CDE9D3
:10057400042302AACDE9062304AACDE908230393A0
:1005840014482668294608AB06AAB04710F1740F30
:10059400014607D102F0F2F8DDE70021642003F000
:1005A4001AFED0E7002807DA0B4802F0B2FE002159
:1005B400642003F010FECEE79DF806209DF8071096
:1005C400064802F0A6FEC6E75C040020EE4B0008D5
:1005D40000000020B84500080C4C0008284C000816
:1005E40008B5064803F066FD20B1054B01221A70D8
:1005F400002008BD6FF01200FBE700BFB8450008FB
:100604005C040020014B1B68184700BF1C0000203D
:10061400014B1860704700BF1C00002030B5044631
:1006240085B00D4610220021684603F064FE0223C3
:100634008DF802302A46044B01932146684602F0A5
:1006440081FB05B030BD00BF0906000880B5054632
:100654000E461746984602F011F9034600F022FCB4
:10066400DFF81890044649F80030424630463946CF
:10067400A84754F8090000F0B1FB00BF08000000CF
:10068400034A536823F0020353600020704700BFFD
:10069400002004E008B54168054883681B680C31F4
:1006A4001BB1984700EAE07008BD6FF05700F9E706
:1006B40068440008192810B502D90024204610BD4A
:1006C400044B53F82040204603F0F4FC0028F5D1F5
:1006D400F3E700BF0C4A0008084B1A6842F4807222
:1006E4001A601A6842F400721A601A6842F480624E
:1006F4001A60034B034A1A60704700BF003C024073
:100704009C0000200024F400014B0360002070478B
:10071400744A000808B50348034A0021121A02F07B
:100724008BFE08BDD8000020600400200748084A5A
:10073400084908B5121A02F081FE0748074A084919
:10074400BDE80840121A02F079BE00BF0000002084
:10075400D8000020AC510008000000200000002058
:10076400AC51000838B505460C4699B1D1E90123CE
:100774000F48096802F0CDFDD4E90423E1680D486F
:1007840002F0C7FDE1690C4802F0C3FDA1690B4802
:1007940002F0BFFD012D05D1EFF3058108481039A2
:1007A40002F0B7FD21462846BDE8384001F0C0BC40
:1007B400C74C0008F74C0008274D0008374D0008C7
:1007C400664D000830BFFFF7FDBF00BF2DE9F041C3
:1007D4000B4EDFF8308006EB0807CC1B054632468B
:1007E4000949204603F079FDA01942460021083C3E
:1007F40003F081FD2C6707F10800BDE8F08100BF1C
:100804000000000004000000544900082DE9F843EA
:10081400324D804632488946174602F07AFDAB6A6B
:10082400DE0622D52F4802F074FD1124AB6A1D07A1
:1008340003D52D4802F06DFD1224284DAB6A9807AC
:1008440015D52A4802F065FD6E6BAB6A190642D5D0
:100854002748314602F05DFDB9F1000F03D0AB6AC1
:1008640023F08003AB62132403E01024DEE76FF06F
:1008740015061A4DAB6ADA0703D51E4802F049FD86
:100884001424AB6A9B0603D51B4802F042FD1524D1
:10089400124B9A6AD50602D49A6A90070AD55B6805
:1008A400190507D54146304600F04EFA10B180F3E1
:1008B40009880224094B9A6A920642BF5A6A22F4B2
:1008C40000525A629A6A42F0FF029A6200233B7015
:1008D4002046BDE8F8836FF01506C4E700ED00E09C
:1008E4007A4D0008914D0008C54D0008D94D000807
:1008F400F24D0008094E0008294E000810B51D4CA1
:100904001D4802F006FDA36A990130D51B4802F088
:1009140000FD1E20A36ADA0103D5194802F0F9FC90
:100924001F20144CA36A1B0303D5164802F0F1FCE4
:100934002120A36A590303D5134802F0EAFC2220BC
:100944000C4CA36A9A0303D5104802F0E2FC23205E
:10095400A36ADB0303D50E4802F0DBFC2420054A1E
:10096400936A6FEA03436FEA1343936210BD1D2039
:10097400D0E700BF00ED00E0594E0008724E0008B9
:10098400864E0008A14E0008C04E0008E64E00083E
:10099400014F000870B5244C064624480D4602F069
:1009A400B8FCA36AD90435D5214802F0B2FC17205B
:1009B400A36A1A0503D51F4802F0ABFC18201A4C91
:1009C400A36A9B050FD51C4802F0A3FCA16BA36A84
:1009D400180407D5194802F09CFC1EB1A36A23F43D
:1009E4000043A3621920104CA36A590503D5144887
:1009F40002F08FFC1A20A36ADA050DD5114802F023
:100A040088FC1B20084A936A43F47F4393620023C3
:100A14002B7070BD1620CBE7A36A9B04F2D50A485D
:100A240002F077FC1C20EDE700ED00E02D4F0008FC
:100A3400444F0008C54D0008564F0008704F000889
:100A4400864F0008A24F0008294E00082DE9F04106
:100A54005B4B5F688AB00446C7F30806002585F33C
:100A64001188BFF36F8F02F07F43B3F17F4F06D13C
:100A740002F00C03082B13D1524802F04AFC002563
:100A84002C464FF00008F31E8DF80780092B00F266
:100A94008680DFE803F00A7A7E7684848484848204
:100AA40010074CBF0C460125EBE74748444E02F0C3
:100AB40030FC8DF80780F36A9A0704D5434802F0A6
:100AC40028FC002330E0F36A002B01DA4048F6E703
:100AD400F36A5B00F5D53F4802F01BFC7369A26919
:100AE40043F480737361BFF34F8FBFF36F8F7369E8
:100AF40032F8022C23F480737361BFF34F8FBFF37A
:100B04006F8F4DF602739A4209D0B36ADBB253B3C6
:100B14000DF1070201212046FFF778FE33E021683A
:100B24002D4802F0F6FB23689DF80720C2B902AEF7
:100B340004F1200720686168324603C20834BC42CD
:100B44001646F7D1099AB5B3C2F3080121B96FEA81
:100B540052226FEA4222099202A91846FFF702FEC6
:100B64000AB0BDE8F081B36A13F47F4F05D00DF1EC
:100B740007010120FFF70EFF05E0B36AB3F5803FDC
:100B84009FD3FFF7BBFE0346CEE70DF1070200211A
:100B9400C1E70DF107010020ECE710488FE7104B87
:100BA4001049114817F4F87FA6F1100218BF19462E
:100BB40002F0AFFB85E722F4FF7222F00102CAE7DC
:100BC40000ED00E0E94F0008155000082D50000822
:100BD4004F5000085E5000087E5000089B500008EB
:100BE400D04F0008BB4F0008C0500008044B5A699E
:100BF40042F010025A615A6922F008025A617047A1
:100C040000ED00E0EFF30880EFF3098101B57246CF
:100C1400FFF71CFF01BD00BF0A4880F308881020BD
:100C240080F3118808484FF40461401880F3098860
:100C3400EFF314800221084380F31488BFF36F8F0D
:100C440000F04AF880160020C00800201EF0040FAF
:100C54000CBFEFF30880EFF30980816911F8021CDF
:100C64000229FFD001B5724602F0EAFB01BD00BFC4
:100C740040B2002807DB044A4109012300F01F00A9
:100C8400834042F82130704700E100E040B2002880
:100C9400A8BF00F1604001F10101B8BF064B4FEA63
:100CA4000111ACBF00F5614000F00F00C9B2B4BF40
:100CB400195480F80013704714ED00E0044B054A02
:100CC40023F07F039360BFF34F8FBFF36F8F7047A1
:100CD4000000000800ED00E008B5FFF7EFFF0B4A45
:100CE400D2F8883023F47003C2F88830EFF3148309
:100CF40023F0040383F31488BFF36F8FFFF70AFD17
:100D0400FFF714FD00F0B0F801F0DAFA00ED00E0AE
:100D140042F8203C009B42F81C3C0A49019B42F8E3
:100D2400183C029B42F8143C21F001014FF08073FF
:100D340042F8043C42F8081C0023203A0265436749
:100D4400704700BF51060008094A0346906870B115
:100D540013F1160F006E05D0A0F14002934205D3A3
:100D6400834203D2814228BF00207047002070478D
:100D74003004002008B515460B4A0C4B9060026FF6
:100D84001A600E4600F0A0F82C4686F3098800206D
:100D9400034B98472046002100220023014C2047A2
:100DA400693400085106000830040020880300203C
:100DB400014B10221A61704700ED00E0054B5A699F
:100DC4009B689A421FBF044A536843F080535360A0
:100DD400704700BF3004002000ED00E0084B9B6822
:100DE40083420BD1EFF3058343B1064B5A6842F0BB
:100DF40080525A605A6A22F400425A6201F044BD99
:100E04003004002000ED00E014498A684FF03000FF
:100E14001044EFF3098C80E8F01F102080F312884F
:100E2400BFF36F8F0E4F4FF000664A698A603E60D1
:100E3400106F0C4C2060506F0023536780F31188AF
:100E440004B5104600F040F8BDE8044002F130005B
:100E540090E8F01F8CF309887047000030040020EC
:100E640004ED00E088030020044800231021C21888
:100E74000133552B82F80013F9D1704700E100E0EB
:100E840008B5EFF30583064A103B02EBC30152F8A1
:100E9400330049688847BDE80840FFF78FBF00BFAB
:100EA400D44500080148006870470000880300200A
:100EB400024B034A0348012100F076B800000120E8
:100EC40000000020744A0008026E054B403A1A6084
:100ED400044A4021C3E901121846012100F06EB80A
:100EE4008C03002000000B15084AC2F898000B6818
:100EF40023F01F03034343F01003C2F89C308B68B4
:100F040043F00103C2F8A030704700BF00ED00E0D9
:100F14002DE9F043DFF8608085B00E461F46044695
:100F24004FF00009B14523DA6068D8B13FB1411EE2
:100F340008421BD11F2819D92368194216D12368E6
:100F4400019302F0A3FAA36803430393D8F89050E3
:100F5400C5F30725D0B2013DA84207D801A9FFF780
:100F6400C3FF421C09F101090C34DBE76FF01502E1
:100F7400104605B0BDE8F08300ED00E0044B052207
:100F8400C3F89420BFF34F8FBFF36F8F704700BF38
:100F940000ED00E0BFF35F8F024B0022C3F8942002
:100FA400704700BF00ED00E010B5034C0123227828
:100FB400FFF7AEFF207010BD5D04002008B50B4A9A
:100FC40000231278FFF7A4FF10F1160F07D0084A88
:100FD4000021D2F89030C3F30723984200DB08BD08
:100FE400C2F89800C2F8A0100130F2E75D040020B6
:100FF40000ED00E02DE9F0435B4B5C4CD3F89030FE
:101004002568C3F307239D4285B000F2A980FFF74A
:10101400C1FF00200C2685421BD1554C554F25702D
:101024006846FFF771FBDFF84081DFF84C91064614
:101034000025AE4214D123784B490020D1F89020EA
:10104400C2F307229342C0F28580FFF797FF002086
:1010540045E0616806FB0011FFF746FF0130DAE75F
:10106400009800EB05114FEA051CCB683B40B3F533
:10107400000F4DD00AD8B3F5001F33D0B3F5800F5D
:101084003BD0B3F5801F13D00135D2E7B3F1007F15
:1010940047D0B3F1805F4DD0B3F1807FF4D150F8E5
:1010A4000C3088684A6802F0F1F940F0887009E071
:1010B40050F80C3088684A6802F0E8F940F088502B
:1010C40040F43020CDE901230390D8F89030207803
:1010D400C3F30723013B984235D96FF0150005B0DF
:1010E400BDE8F08350F80C3088684A6802F0CEF905
:1010F40040F0885040F40020E4E750F80C30886851
:101104004A6802F0C3F940F0C06040F40030D9E707
:1011140050F80C3088684A6802F0B8F940F08270E0
:10112400D0E750F80C3088684A6802F0AFF940F410
:101134008020C7E750F80C3088684A6802F0A6F9A6
:1011440040EA0900BEE701A9FFF7CEFE2378013388
:10115400237099E7C1F89830C1F8A00001336DE716
:101164004FF0FF30BBE700BF00ED00E0804A00080D
:101174005D0400200000F0FF0000021108B5024BDE
:101184001B689847002008BD98030020034B044ABD
:101194001860937843F0020393707047980300201B
:1011A4002000002008B50649064821F00701C1F1D6
:1011B400005202F5803202F06DF8002008BD00BF35
:1011C400C71600209C03002007B5094A92E80300D3
:1011D4006B4683E8030007488268126822B1194607
:1011E400904703B05DF804FB6FF05700F9E700BFC8
:1011F40054490008684400081F2809D8012303FA49
:1012040000F0044B5B6998430CBF01200020704739
:1012140000207047003C014000F01F021F284FF0DF
:10122400010303FA02F39DBF024A002053616FF0E9
:1012340015007047003C0140044B1844002301335F
:10124400994200F8012BFADC704700BFAC00002083
:101254002DE9F041104F054600264FF001086B7848
:10126400F4B2A34201D8BDE8F0812B781C44204697
:10127400FFF7C2FF68B12046FFF7CEFF57F83430BE
:101284003BB107EBC40204F01F04516808FA04F0F0
:1012940098470136E3E700BFA8030020034660B186
:1012A400B0FA80F2C2F11F02D2B205498856054A4B
:1012B40011680B431360FFF7DBBCFF22F5E700BFA7
:1012C400AC000020003C0140024A136823EA0003FA
:1012D40013607047003C0140032921D8DFE801F086
:1012E400020C10190F4B9A6822EA00029A60DA681D
:1012F40022EA0002DA6070470A4B9A680243F5E773
:10130400084BDA680243DA609A6822EA00029A60BB
:101314007047044B9A6802439A60DA681043D860B5
:10132400704700BF003C014030B5B0B1B0FA80F363
:10133400C3F11F03DBB20B4850F833408C4204D195
:1013440000EBC3056D68954205D044B940F83310ED
:1013540000EBC3004260002030BDFF23EBE76FF0D9
:101364000F00F9E7A803002060B1B0FA80F3C3F1DD
:101374001F03DBB2044A002142F8331002EBC3021C
:1013840051607047FF23F5E7A803002000F0030233
:10139400043292000F23934043EA9000C3B2023315
:1013A400054A52F82320030C02EA104093FAA3F3EF
:1013B400B3FA83F3D84070470038014038B5088841
:1013C4003D4BC0F30B0016281B680D4614463ED84F
:1013D40010B96FF0850039E001381528F9D801A259
:1013E40052F820F045140008AB140008411400081A
:1013F400AB140008A71400087B1400088F1400081D
:10140400D7130008D7130008D7130008D713000810
:10141400D7130008D7130008D7130008D713000800
:10142400D7130008D7130008D7130008D7130008F0
:10143400D713000845140008451400084FF4FA4374
:1014440023602968B1F5805F2FD2002038BD44287D
:101454000ED82F28BDD900F57D61C1F30B010122FF
:101464008A4016490A42EBD14028B2D15B08E7E72B
:10147400A828E5D0ADE700F0D5F84FF4A8721923F9
:10148400B0FBF3F353439B08DAE700F0CBF84FF4D7
:10149400A8721923B0FBF3F353430722B3FBF2F30F
:1014A400CEE7074BCCE70023CAE7C1F31331013180
:1014B400B3FBF1F32360C8E79C0000201101100086
:1014C40040787D01162808D8054BC34013F0010F5E
:1014D40014BF00206FF0850070476FF085007047DF
:1014E400EA006000F8B54A4E4A4F00F0BDF83046B5
:1014F40002F0C0F800F0A0FDBB68474AC3F3031331
:101504001478D35C46FA04F420FA03F5A54202D217
:10151400204600F0BFFD3B6823F480233B603B681A
:1015240043F480333B603B4B1A689103FCD55A6FFC
:1015340042F001025A675A6F9207FCD59A6802F08A
:101544000C02082A17D11A68970707D41A6842F0C0
:1015540001021A602F4A13689807FCD52D4B9A682C
:1015640022F003029A609A6812F00C0FFBD19A6879
:1015740022F0F0029A60274F3B6823F080733B60AF
:101584003B689901FCD4254AD2F8043823F440334B
:1015940043F48033C2F80438D2F8043823F070637B
:1015A40043F0E063C2F8043800F040F83B6843F0CD
:1015B40080733B60174B1A689201FCD59A6822F03D
:1015C400F0029A609A6822F0030242F002029A60E2
:1015D4009A6802F00C02082AFAD1A54202D32046E6
:1015E40000F058FD0E4B1E600A4B9A6822F4E0523C
:1015F40042F480529A609A6822F460429A60D3F866
:101604008C2022F08072C3F88C200020F8BD00BF2B
:1016140000BD0105003802404A5100080030024074
:101624009C0000200048704740787D01094B0A491E
:101634005A681140094A0A435A605A68084922F410
:10164400403242F480325A605A681140054A0A43D3
:101654005A607047003802400080BFFF19544000B0
:101664000080BFF019544007064B1A6C42F08052B8
:101674001A641B6C82B003F080530193019B02B087
:10168400704700BF0038024008B5074802F012FD59
:1016940038B10648FFF77AFD0448FEF7B9FF002089
:1016A40008BD6FF01200FBE79C450008B516000862
:1016B4000A2838B5074D044604D1AB680D215B6890
:1016C40028469847AB6803485B68E1B298472046D0
:1016D40038BD00BF9C4500082DE9F843D0F80490BC
:1016E4000746D9F8080090460D461E4601F02CFF27
:1016F400B8F5001F044616D12846D9F80840FFF76C
:1017040045FE84420CD1294601F01EFF0446FFF732
:10171400DBFD2046FFF728FE00212046FFF7DCFD15
:101724000020BDE8F883B8F5800F20D0B6F1806FB3
:1017340019D0B6F1C06F18D0B6F1007F1AD10226C5
:101744000F493A462046FFF7EFFDB0B9D9F8081023
:10175400284601F0FEFE20463146FFF7BDFD204637
:10176400FFF79CFDDCE70126EAE70326E8E76FF0D4
:101774008500D6E76FF01500D3E76FF00F00D0E7D0
:10178400FF37000843681B6803F1140252E8002F76
:1017940042F0010203F1140040E800210029F3D1D2
:1017A4000D4A934207D0A2F54C42934203D002F56E
:1017B4005042934203D11A6942F040021A6103F184
:1017C4000C0252E8002F42F4807203F10C0040E84E
:1017D40000210029F3D170470010014043681B68C1
:1017E40003F1140252E8002F22F0010203F1140065
:1017F40040E800210029F3D10D4A934207D0A2F515
:101804004C42934203D002F55042934203D11A69E9
:1018140022F040021A6103F10C0252E8002F22F474
:10182400807203F10C0040E800210029F3D17047D5
:1018340000100140F8B50C46036941681D6823791E
:10184400012B36D09A1E56425641B6026279022ABC
:101854009CBF384F37F812C0A27988BF4FF4005CA0
:10186400042A29D0003B18BF01231B03E279012A73
:101874000A680CBF4FF440770027A542D1681ED1F7
:1018840021F4B05131430B43D360136923F4405323
:1018940043EA0C03136143681A68536923F44073E1
:1018A4003B4353612968406802F0FCF800EAE070A9
:1018B400F8BD4FF4C066C9E74FF48053D6E701F48E
:1018C400C0618E421FBFD16821F4C0613143D16031
:1018D400426811680A6902F4405294451FBF0A69BC
:1018E40022F4405242EA0C020A6142681168CA6852
:1018F40002F4805293421FBFCA6822F480521343F9
:10190400CB6043681A68536903F440739F421FBF56
:10191400536923F440733B43536121682B68994214
:1019240006D0406802F0BEF80028C1DB23682B60B3
:101934000020BDE78C4B0008F8B543681D680369B7
:101944001F680B790C46012B4979A67935D10229F8
:101954004AD9042E45D04FF4C0624FF480534FF05F
:10196400030C8C453DD1002B77D0002A14BF0322F1
:101974000422B24235D1E37963B1012B31D1394B21
:101984009D4207D0A3F54C439D4203D003F5504339
:101994009D4226D1EB6823F40053EB602146FFF708
:1019A40049FF00281DDBEB6843F40053EB6094E827
:1019B400030087E80300002015E0022B06D102296A
:1019C4001FD9042E0DD04FF48062C6E702290A46BF
:1019D4001FD9042E02D123B90022BEE713BB032969
:1019E400C7D06FF08500F8BD1F4A042E32F811C02D
:1019F400F7D04FF4C062033B012BF2D94FF480536C
:101A040019E0194A042E32F811C0EAD04FF480626A
:101A1400F1E7154A042E32F811C009D1002BE0D1A8
:101A24001A46EBE7033B012BDBD9D5E70022E2E7BB
:101A3400002BFBD11A46BCF5805F08D0BCF5405F93
:101A440008D0BCF1000F8AD14FF0010C89E74FF0A8
:101A5400000C86E74FF0020C83E7002A14BF022231
:101A6400032286E7001001408C4B000838B5436818
:101A740005695B69044698472B6923B96B6005F1D6
:101A8400080000F083FC6068012102F09BF9002843
:101A940002DA10F1860F0ED164680021204602F0AC
:101AA40091F9002805DB0648A16883681B681BB10F
:101AB400984700EAE07038BD6FF05700F9E700BFBF
:101AC400684400082DE9F74F814605690E461F4614
:101AD400924612B9002B00F0D980B3889A042BD413
:101AE4004FF0FF324FF0FF3305F1080000F082FCA5
:101AF4006E60D9F810B0D9F80480DBF80030D8F85B
:101B04000040B2889E4240F0A780130540F1518105
:101B1400236823F44443BAF1000F14D043F4404340
:101B24002360B08802F025F90646DAF80030EB624B
:101B340093B1DAF804300FE02B69002BD0D16B6835
:101B44009E42CDD1D5E743F400432360B08802F030
:101B540010F906460023EB622B6305F1400233467D
:101B640005F1300105F12C0002F0E5F8E863002FDF
:101B740040F039816F630023AB6305F148023346BB
:101B840005F1380105F1340002F0D5F8002368644A
:101B9400AB62D9F8043026681B681A6842F0400228
:101BA4001A605A6842F0200206F444465A601FB193
:101BB4005A6842F040025A605A6842F080025A6001
:101BC4004FF4FA5B4FF00A0905F1180A0023286B59
:101BD4001946814240F00E810021AF6B0846B8429D
:101BE40040F00F818B4238BF0B460BFB03F22B688E
:101BF4001B68B2FBF3F2C832A2FB0923504600F083
:101C0400F9FB002840F00481AF6A002F33D1B6F508
:101C1400404F1AD12B6CABB9AB6C9BB1D8F80030E8
:101C24001A6822F4444242F400421A601A6842F0EC
:101C340040021A605A6842F020025A605A6842F020
:101C440040025A60266806F444462B6C0BB9AB6C10
:101C54008BB1002EBAD10EE0D8F810100229C2F3CD
:101C6400451317D0032918D0012902D1043B1C2B9A
:101C740017D96FF085072B6813B19B889B0405D493
:101C840000236B6005F1080000F080FB384603B0C8
:101C9400BDE8F08F043B0C2BEAE7082B01D0102B96
:101CA400E7D1636810045C484CBF43F0100323F091
:101CB400100363608368D8F80810DB68FBB101AADD
:101CC400984700281BDB0198002331681A4601332A
:101CD40020FA03FC8C4515D82368504923F04003AF
:101CE4002360236851F8222023F038031343236030
:101CF400B38899070BD4236823F002030AE06FF03A
:101D04000407B8E7082BE0D16FF01507B3E72368A1
:101D140043F002032360B38813F0040F236814BF55
:101D240043F0010323F001032360B38813F4006F2D
:101D3400236823F4444304D0BAF1000F42D043F49F
:101D440040432360B38813F0100F236814BF43F09B
:101D5400800323F080032360236823F4005323606B
:101D6400337D1BB998F818305A072ED5236843F4ED
:101D740000732360636823F004036360B388284A14
:101D840013F0010F236814BF23F4827343F48273A6
:101D94002360B08801F0EDFF0138236852F8202059
:101DA40023F400631343236001238BF85430CBF8EE
:101DB4000060B08801F0DDFF0646BAF1000F7FF441
:101DC400B4AEC7E643F40043BBE7B38813F0010F96
:101DD400236823F40073CCD143F480232360636825
:101DE40043F00403C9E73B686B63002B3FF4C3AEC5
:101DF4007B68C1E6EA6A02EBC1020131526813440E
:101E0400E7E66A6B02EBC002013052681144E6E671
:101E14006FF073072FE700BF68440008F84A000812
:101E24006C4B000810B54FF0E0230F499C691A6908
:101E340008689B690D4902F4803234B993B90346AA
:101E44004AB90A681044C01A10BD002B08BF0346E3
:101E54000AB9A342F5D90A6802440A604FF0E022A5
:101E64001269EEE70446F3E72C040020280400205E
:101E7400094B102283F82320084B42F2D0021A6047
:101E8400074B002018604FF0E02342F2CF025A6162
:101E9400072298611A61704700ED00E02C040020CD
:101EA40028040020684620F007018D4619B5FFF785
:101EB400B9FF114B1149D3E900420868001942F1F6
:101EC4000002C3E900020E4A00230B60D2E900417C
:101ED40042F2D003001BB0FBF3F043431B1941F162
:101EE4000001C2E9003100F0AFFEFEF767FFBDE874
:101EF40019408546704700BF600100202804002077
:101F0400580100202DE9F041DFF8DC8099B1421C32
:101F14000BD14FF0E022136923F0010313614FF05A
:101F24007F43C8F80030BDE8F081D8F8006001288C
:101F340007DC00270BE0431CD8F80060F7D140F21F
:101F4400CC7040F2CD739842A8BF1846471EEFF3F9
:101F54001185102383F31288BFF36F8FFFF762FF9D
:101F6400224C4FF0E0239969D4E90023801843F10F
:101F74000003C4E900031E4B00221A601D4B1A68BB
:101F8400831A2ED442F2D00C0CFB073303F503530F
:101F94000F33B3FBFCF7131A0CFB0733B3F5806F55
:101FA400154A38BF4FF48063934228BF13464FF05D
:101FB400E022C8F80030013B90695361002393612B
:101FC4008142A1EB0003D4E9001238BF9B195B18CE
:101FD40042F10002C4E9003285F31188BFF36F8F28
:101FE400A1E74FF48063E2E72C04002060010020A5
:101FF4002804002058010020C0D5FF0038B5EFF3B5
:102004001185102383F31288BFF36F8F084B1C686C
:10201400084B1B68E41AFFF705FF85F31188BFF32B
:102024006F8F42F2D0032044B0FBF3F038BD00BF01
:10203400600100205801002008B513498B6803F0A3
:102044000C03042B1CD0082B1CD14A684B6849682C
:1020540013F4800314BF0D480D48C1F3881118BF51
:10206400002302F03F02A1FB0001FEF791F8064BAA
:102074005B68C3F3014301335B00B0FBF3F008BDBD
:102084000248FCE70248FAE70038024040787D0144
:102094000024F400002841D0214B1A681A6802F485
:1020A4004042B2F5004F25D11E4A90421DD81E4A27
:1020B4001B68904201D8002005E003F4404301204E
:1020C400B3F5804F24D0194A136823F00703034360
:1020D4001360136803F0070383421CBF136803F003
:1020E4000703C01A18BF012070471B68022003F4BD
:1020F4004043E5E71B6803F44043B3F5804FDAD16E
:10210400084B984208D8084B98424FF00000DAD99F
:10211400012838BF0120D6E70220D4E70120704708
:10212400007000400087930380C3C901003C024053
:1021340038B5EFF31185102383F31288BFF36F8F43
:10214400064B9C6801F0C9FF85F31188BFF36F8FBC
:102154002046BDE83840FEF741BE00BF30040020F1
:1021640038B50A4B53F82040013053F82050A542AB
:1021740000D838BD606830B1037EDB0701D401F0BC
:1021840081FF0834F3E723689847FAE7744B0008A3
:1021940070B52A4B2A4C2B4D012286B003201A70AD
:1021A400FFF7DEFF00F0C8FD0420FFF7D9FF264645
:1021B400AE4204F1300410D300F09AFA204C224EBF
:1021C400AC4226D300F0A8FAFEF74CF91F4A9389D3
:1021D40023F00103938106B070BD54F80C3C0593C1
:1021E40054F8103C049354F8143C039354F8183CEA
:1021F400029354F81C3C019354F8203C009354E996
:102204000A2354E90C0100F01BF954F8303C5E65D4
:10221400CDE7D4E90A23B3F1FF3F08BFB2F1FF3F92
:1022240005D052EA0301206803D101F0F3FF3034F2
:10223400C6E73146183000F077FCF8E75E0400206A
:1022440080480008B0480008B5410008E8010020B3
:1022540070B5002386B00122CDE90423134E144D3A
:1022640001930F22CDE902321249142303FB0055D6
:1022740006EBC01604464FF4C07000FB04110E4B6D
:1022840000954FF4A072304600F0DAF8337C0B4A24
:10229400EE6023F0040333744FF4046304FB03334C
:1022A40013442C746B6006B070BD00BF680100203D
:1022B4003004002000110020E5400008C008002080
:1022C400BFB50020FFF74CFF284B83F30888284C48
:1022D400284F636943F4007363610025F02384F895
:1022E4002230E57725766576A57684F82050636AF2
:1022F40043F4E0236362FEF779FCFEF759FD4FF0E7
:10230400FF33A362E362FEF775FEFEF7D1FD1A48C0
:102314001A4C00F0E1F8FEF7DFF90120FFF720FF87
:102324000220FFF71DFF00F021FA154B15495C61EF
:10233400154B05930123CDE903534FF480623B46CB
:10234400CDE901550095204600F07AF8227C064636
:1023540022F004022046227401F007FF2846FFF70A
:1023640077FF3A4631462046FEF704FD001100206F
:1023740000ED00E09521000868020020E80100203B
:1023840030040020801200205A51000870B5EFF389
:102394001186102383F31288BFF36F8F0468A04261
:1023A4001AD0CCB1D4E9003213605A60237C0025E2
:1023B40023F002032374C4E90055A56004F1180056
:1023C40001F05FFF2046A56701F0CFFE31460848C3
:1023D400BDE8704001F0FCBED0E902329A4218BF59
:1023E4000133836086F31188BFF36F8F70BD00BF24
:1023F4005F04002013B5EFF31181102484F31288D5
:10240400BFF36F8F846844B1013C846081F3118809
:10241400BFF36F8F002002B010BD52EA030406D14F
:1024240081F31188BFF36F8F6FF00F00F3E7CDE9ED
:1024340000230246014800F039F9ECE75F0400206C
:102444002DE9F043073285B022F007020E461F46FD
:102454001099818100F158037F32C0E91633044694
:10246400002322F03F020421836001743F2A0F9865
:10247400A073C4E90633E37306F14009A2F14008EE
:1024840005D883F31188BFF36F8F084602DFB518B0
:1024940029462046FEF79AF907300E9B20F00700E4
:1024A400A066C4E9189802930D9B01932D1A0C9B06
:1024B40000932A463B4631462046FEF729FC00237A
:1024C4006365044B9B6803B1DB6EE366284605B085
:1024D400BDE8F083300400200123037483810023CA
:1024E400C0E91833C366014B98607047300400207C
:1024F400094A93686FF00A019967084958674B685D
:1025040043F080534B60002383F31188BFF36F8F34
:102514009368986F704700BF3004002000ED00E01E
:1025240070B590F91020037C002A36DBD90634D12B
:102534001B4C63F07F032246037452F8183FE16991
:10254400934207D1C0E900210860E06111E099429B
:10255400F8D01B68002BF5D090F90E5093F90E605B
:10256400B542F4D0AE42F2DD5968C0E900310860EA
:102574005860A569954200D005B9E568A3681A7C3E
:10258400D20604D1DA897F2A01D9AA6932B1AB42D1
:1025940002D0284600F048FA656170BD6361FCE72B
:1025A4003004002038B590F91020037C002A01463D
:1025B40004DA03F07F03037401F09DFD0D4D2A46F8
:1025C400AB6852F8184F944200D004B9EC688B42BF
:1025D40007D01A7CD20604D1DA897F2A01D9A269EC
:1025E4002AB1A34202D0204600F01EFA23466B61B2
:1025F40038BD00BF30040020B3F1FF3F08BFB2F183
:10260400FF3F03D00249183000F08EBA704700BF74
:10261400B5410008034648B9EFF3058232B9064ACA
:1026240051699268914201D0FFF762BF83F3118828
:10263400BFF36F8F704700BF3004002038B5194CCA
:10264400A168E0690B68814214BF1A4600224968F8
:102654000B605960A368E1692AB9134AC3E90021F0
:102664000B60E3610CE093F90E0092F90E50A8425E
:1026740014D0854212DD5168C3E900210B60536018
:10268400A569094B9D4200D005B9E568A3689D4240
:1026940002D0284600F0C8F9656138BD9142DCD00B
:1026A4001268D9E73004002048040020F8B50E4B26
:1026B4000C4611460D4A98681060DDE90667EFF391
:1026C4001182102282F31288BFF36F8F9D6828460F
:1026D40001F023FD284632463B46FFF78DFF204696
:1026E400BDE8F840FFF704BF300400205004002088
:1026F400EFF31181102383F31288BFF36F8F054B1F
:102704009A68D37B013BD37381F31188BFF36F8F36
:10271400704700BF3004002070B5EFF3118610231A
:1027240083F31288BFF36F8F0F4DAB68DA7B0132EE
:10273400DA732A4652F8184F944200D004B9EC6870
:102744001A7CD20604D1DA897F2A01D9A2692AB176
:102754009C4202D0204600F067F923466B61304664
:10276400BDE87040FFF756BF30040020024B03F170
:102774001802C3E9062270473004002070B5EFF355
:102784001186102383F31288BFF36F8F1B4CA1684B
:10279400E0690B68814214BF1A46002249680B6045
:1027A4005960A368E1692AB9154AC3E900210B609D
:1027B400E3610CE093F90E0092F90E50A84218D090
:1027C400854216DD5168C3E900210B605360A56999
:1027D4000B4B9D4200D005B9E568A3689D4202D029
:1027E400284600F021F965613046BDE87040FFF7E6
:1027F4007FBE8A42D8D01268D5E700BF30040020DB
:1028040048040020F8B550EA010306460C4603D1FB
:10281400FFF7B4FF0020F8BDEFF31187102383F313
:102824001288BFF36F8F124D124BA8681860FFF720
:10283400B9FEA868104923463246183000F074F9EE
:10284400AA68137C43F00403137404463846FFF764
:102854004FFEAB68D3E90A23B3F1004F08BF002A47
:10286400D8D101F036FD201A20EAE070D3E700BF8A
:102874003004002050040020B5410008014B986842
:10288400704700BF300400202DE9F84304468789CF
:10289400EFF31185102383F31288BFF36F8F037C4A
:1028A400190705D585F31188BFF36F8FBDE8F88349
:1028B400D90943F008025DD10274A36813B120461C
:1028C40001F021FC04F1180001F0DBFCA66D04F119
:1028D4005808B04511D04FF0000976B1304601F0E8
:1028E40012FC06F1180001F0CCFCC6F878903046D2
:1028F400FFF716FEA66DB045EFD1DFF8C080D8F81B
:1029040008309C423ED1EFF30589B9F1000918BFA4
:102914004FF00109D8F81860294A964200D00EB940
:10292400D8F80C60B34202D0304600F07DF820465F
:10293400C8F8146000F093FDB9F1000F02D02148EB
:10294400FFF7CAFDD8F808309C4231D1EFF3058374
:1029540073BBA289D20718D42846FFF7C9FDFB0729
:10296400A4D5002383F31188BFF36F8F0423184683
:1029740002DF9BE703F07F0343F00803037401F0D5
:10298400BAFB9AE74FF00009C4E785F31188BFF357
:102994006F8F83F31188BFF36F8F0423184602DF10
:1029A400EFF31180102383F31288BFF36F8FD4E702
:1029B40085F31188BFF36F8FD1E700BF3004002087
:1029C4004804002068020020027C12F01F02034623
:1029D40010D10A4988420DD00949086868B1D989DB
:1029E4007F2909D893F90E20064B1B689A42B8BF79
:1029F400002070470020704710467047680100208F
:102A0400A000002054040020044BC01A044BC01042
:102A14005843044B01221A54704700BFE8020020B7
:102A2400ABAAAAAA5F04002070B50D4B0D4D1E7C05
:102A3400FFF7CAFF06EB460305EBC3050446284629
:102A440001F01FFC084B00229A553CB1621E284637
:102A54000649BDE87040D31700F066B870BD00BFEA
:102A640030040020E80200205F0400200D2A000842
:102A740038B5EFF31185102383F31288BFF36F8FFA
:102A84000F4B104A9C681068A04206D1FFF7CCFF98
:102A940085F31188BFF36F8F38BD00211B7C116053
:102AA400094AD35C002BF3D02046FFF78DFF0028A2
:102AB400EED0237CDB0601D1FFF7C0FD2046E5E71D
:102AC40030040020500400205F040020024B1868EA
:102AD400984208BF00207047A4000020034B1B68E5
:102AE4000BB9FFF78BBA0020704700BF58040020D1
:102AF40030B570B10B4B5B6898420AD0036843B1A0
:102B0400D3E90421D0E90445121941EB0501C3E9D5
:102B14000421D0E9003213605A600023C0E9003375
:102B240030BD00BFA4000020B3F1FF3F08BFB2F1E5
:102B3400FF3F2DE9F84F0446994615461F467AD0C3
:102B44008160EFF31188102383F31288BFF36F8F32
:102B5400B9F1000FDFF8E4A020DBFFF7BFFFDAE9EB
:102B64000027013549F100092D1849EBE073C4E948
:102B74000453AD18064643EB07074FF00109FFF76E
:102B8400A5FFDFF8BCE0DEF804A00346EBB9C4E916
:102B940000EACAF80040CEF8044028E0DAE900125E
:102BA4006FF001035B1A4FF0FF3161EB02025B1B14
:102BB40062EB0902012B72F10001BCBF0123002268
:102BC400C0E904324FF00009D9E7D3E9041CD4E981
:102BD40004208A4270EB0C0B24DA891A5A686CEBD5
:102BE4000000C3E90410C4E9003214605C60FFF71C
:102BF4006DFF84420ED1134B1B685BB9B9F1000F12
:102C040002D1FFF76BFF0646304601F023FB00219B
:102C1400FFF778F988F31188BFF36F8F2846394698
:102C2400BDE8F88F521A60EB0C009A45C4E9042001
:102C3400ADD01B68AAE700252F46EFE7000300206C
:102C4400A4000020580400202DE9F047EFF311857B
:102C5400102383F31288BFF36F8FDFF8A490DFF89B
:102C6400A480C9F80000FFF731FF00260027D9F837
:102C74000030D8E900ECD91750B1D0E90442A3429E
:102C840071EB020A1CDAE41A62EB0102C0E90442A5
:102C940013EB0E034FF000044CEB01012046C8E98E
:102CA4000031C9F8004001F0D5FA2146FFF72AF9AE
:102CB40085F31188BFF36F8FBDE8F047FFF7D8BEE7
:102CC40014EB0E024CEBE473C0E90467C8E900237B
:102CD400FFF70EFF85F31188BFF36F8F8368984762
:102CE400EFF31185102383F31288BFF36F8FD9F8A4
:102CF40000301B1BC9F80030FFF7E8FEB7E700BF40
:102D0400580400200003002010B5EFF311841023B1
:102D140083F31288BFF36F8FFFF7E0FE054A034683
:102D2400D2E90001181841EBE37184F31188BFF371
:102D34006F8F10BD00030020014800F0EABA00BF05
:102D44005F5100082DE9F04F8DB0436802938378FA
:102D540015469A07804640F10D8100240E78002E16
:102D640000F00A81252E0BD04B1C03930134029BE7
:102D74004146304698470028C0F2F6800399EDE7B3
:102D84004E788B1C252E0393F0D00027B946BB4602
:102D9400BBF11F0F38D8A6F12003102B0AD8DFE8A7
:102DA40003F02A0909300909092109090928092D0B
:102DB40009091F00A6F13003092B33D92A2E37D174
:102DC4001BF0400F55F8043B40F08280002BA7BF56
:102DD4004BF0200B9946C3F100094BF0280B01E09E
:102DE4004BF0010B039B13F8016B0393002ECFD11F
:102DF40030E04BF0020B4BF0040BF3E74BF0080B05
:102E0400F0E74BF0100BEDE7BBF17F0F19D8A6F1FB
:102E14003003092BD2D81BF0400F03D00A2101FB49
:102E24000737DFE70A2101FB09394BF0200BD9E70B
:102E34002E2E06D11BF0400F40F09E804BF0400B2D
:102E4400D0E76C2E31D02BD8682E36D06A2E3CD0E9
:102E54004C2E3AD0002F46F02003B8BF2BF040028E
:102E6400A3F16501BCBF1FFA82FB0027022901D927
:102E7400612B2FD1073525F00705DFF8ACA2083503
:102E840007271BF0080F66D00AEB070B56465E4572
:102E940063D1A4EB0A0A06EB0A02A9EB07096FE166
:102EA400742E9FD07A2E9DD0D4E71BF0800F18BFCC
:102EB4004BF4007B4BF0800B94E71BF4807F18BF2E
:102EC4004BF4007B4BF4807B8CE74BF4207B89E74D
:102ED4001F4687E7A6F16301122900F2F080DFE8BC
:102EE40011F013004F00EE00EE00EE00EE004F0074
:102EF400EE00EE00EE00EE00EE00FE00E900EE0053
:102F0400EE001B00EE00AF0055F8043B8DF81830BE
:102F140001270DF1180AB4E755F804AB834BBAF155
:102F2400000F08BF9A461BF0400F14BF39464FF0FC
:102F3400FF31504601F0E7F90746A2E7029B4146FC
:102F44002020984700280FDB013EB742F6D34C44BB
:102F5400A41BB14698E74E46F7E716F8010B029B0F
:102F640041469847002892DA98F8023043F0040367
:102F740088F802304FF0FF3420460DB0BDE8F08FE2
:102F84001BF0800F34D01BF4007F2CD0073525F0C4
:102F94000705AA4669685AF8080B2BF010050029A2
:102FA400ADB237DA404261EB410145F480650DF181
:102FB400180B0A235A4601F0B2F9A0EB0B03019354
:102FC4006B0662D5019B25F001019F4289B240F353
:102FD400A180002E00F0998015F0100240F09C8032
:102FE400BB460D4623E0AA465AF8040BC117D4E7A2
:102FF400AA461BF4807F5AF8041B01D10846F5E762
:103004001BF4007F15BF48B208B241F3C01141F36D
:10301400C031C2E750EA0103C9D11BF0400FC6D04A
:10302400002FC4D12BF0110295B2BB46019740F298
:10303400064115EA01021CBF0BF1010B00222CE032
:103044002BF010021FFA82FB0A231BF0800C49D0DC
:103054001BF400711DBF073525F00705AA46AA46D3
:103064001ABF5AF8080B69685AF8040B50EA0105AC
:1030740045D12BF016051BF0400FADB242D0002F06
:1030840040D12BF0170295B2019715F0100248D0E9
:10309400019B002E42D103F1010B29075AD4EB07FF
:1030A40006D5D9456FDD0199A9EB0B035F18CB4613
:1030B4005B4649E04BF0100B10237826C5E7782BCC
:1030C40004D1C6F1780343F01003BEE7029B4146E6
:1030D400252098470028FFF647AF023447E6082327
:1030E4000026B2E7AA461BF480715AF8040BBDD03F
:1030F4001BF400711ABFC0B2614680B2B6E72BF070
:10310400060295B20DF1180B54E725F01105ADB286
:10311400BB468CE70D46B8E73B460D4603F1020B70
:10312400BBE7DDF804B082E7A15100089A5100081A
:10313400CDE904324146029B202098470028FFF63F
:1031440013AF049B059A01339945F1DCA4EB0B0101
:10315400CC189B460AB3029B41463020984700286E
:10316400FFF602AF8EB901342744019B391B994203
:1031740024DC1D465DBB019AA9EB0B09224455468C
:103184001446914435E0019F92E7023441463046AB
:10319400029B98470028E7DAE6E640F206410D4232
:1031A400E2D015F0020F14BF2B20202015F4806FFD
:1031B40004F10104414618BF2D20E9E7029B414672
:1031C40030209847002804F10104CEDACCE606AB9F
:1031D400013D4146585D029B98470028CADAC3E680
:1031E400029B414620209847002804F10104FFF681
:1031F400BBAEA9EB0403002BF2DCBFE57047F0B4CF
:1032040003460A461979DB8800681343DC028768A1
:10321400066906D513F4402F03D0DA0748BF83F4B8
:103224004023346801258D4023F48012DB074CBF12
:103234002C43AC4334603B68F0BC184700EBC1003E
:10324400408840087047F8B50346FFF7F7FFB0FA27
:1032540080F0C0F11F0003EB800CCA00DCF81060A2
:10326400171D0C4606328DB256B9012101FA00F041
:10327400D9680143D960CCF81040DD539D52F8BDA4
:10328400F1000431585AD85303EBC0009E52C58054
:103294005D52F4E7043A2DE9F041CC1D114424F0C9
:1032A400070421F007010E1BF708B7FA87F2C2F1F1
:1032B4002405AD004FF000080735C2F12002ED08E7
:1032C40004604146A760C4F80C80920004F1100029
:1032D40001F011F86B0043F00103638004EBC502B5
:1032E4007B1B5900A4F800805180A21924F83550A2
:1032F400A2F80280A35304EBC70329465A8842F07C
:1033040001025A802046BDE8F041FFF79CBF00202F
:1033140070470FB407B504A951F8040B0191FDF7E8
:103324007DF903B05DF804EB04B070477047F0B565
:103334001E4643685C68012067688840C2F38013B6
:1033440027EA00078B403B43636090FAA0F7B7FA83
:1033540087F7D4F808C04FF0030E7F000EFA07F782
:103364002CEA070C90FAA0F7B7FA87F7C2F3C11357
:103374007F00BB4043EA0C03A36090FAA0F3B3FAC6
:1033840083F3E7685B000EFA03F327EA030790FA76
:10339400A0F3B3FA83F302F030055B00C2F34122D9
:1033A4009A403A43202DE26016D107292CD890FA8E
:1033B400A0F3226A33B3B3FA83F39B000F2101FA1B
:1033C40003F322EA030290FAA0F3B3FA83F39B0017
:1033D40006FA03F31343236290FAA0F3B3FA83F3D8
:1033E400226890FAA0F003215B00B0FA80F001FAA1
:1033F40003F340002D0922EA030385401D432560A1
:103404000020F0BD2B46D8E7030A616A93FAA3F2C1
:1034140082B1B2FA82F292000F2793FAA3F3B3FABD
:1034240083F307FA02F29B0021EA02029E4016434C
:103434006662D1E72A46EEE700F05DBF00F04DBFBB
:1034440001460068FDF78EB908B5FDF7BBF9BDE884
:103454000840FDF7B3BC00210120FDF783B96FF0EC
:103464008500704761B662B680F31188BFF36F8F31
:10347400704772B6002383F31188BFF36F8FBFF3D5
:103484004F8F30BF62B6BFF36F8F7047202809D9C2
:10349400B0F1004F08D80138B0FA80F0C0F11F0035
:1034A40040007047082070473E20704708B5FDF77C
:1034B40065FE002008BD08B5062201210020FDF7A5
:1034C400BBFE002211460620FDF7E0FB0121084661
:1034D4000722FDF7B1FE002211460720FDF7D6FBB7
:1034E400082201210220FDF7A7FE00221146082030
:1034F400FDF7CCFB092201210320FDF79DFE0022EC
:1035040011460920FDF7C2FB0A2201210420FDF720
:1035140093FE002211460A20FDF7B8FB0521084658
:103524001722FDF789FE002211461720FDF7AEFB96
:10353400282206210A20FDF77FFE002211462820BA
:10354400FDF7A4FB002008BD01F01F010120884005
:10355400704700F00302043292000F23934043EAC1
:10356400900010B5C3B29B0003F1804303F59C3374
:10357400020C9C6892FAA2F2B2FA82F224EA104097
:1035840091400143996010BD0B88C3F30B0303F50D
:103594007D62C2F30B02782A82B014D803F180430F
:1035A40003F50E3348681A6802431A600B88C3F3A4
:1035B4000B0303F1804303F50E3300201B680193D2
:1035C400019B02B070476FF08500FAE70B88C3F3E4
:1035D4000B0303F57D62C2F30B02782A9FBF03F14C
:1035E400804303F50E3349681A689DBF8A4300205F
:1035F4001A606FF08500704738B50888C0F30B0077
:10360400FDF760FF002818DB4B68FF2B14D099B23C
:10361400C3F3415401F1804101F50E31013401221B
:10362400A240C3F304450868013AAA401B0E20EAED
:103634000202AB4013430B60002038BD0888C0F37E
:103644000B0008B500F57D63C3F30B03782B0AD890
:1036540000F1804000F50E304B680268934314BFBC
:103664000120022008BDFDF72DFF002814BF012012
:103674000220F7E7704743685B681B690B60002012
:10368400704743685B68586942400A4042405A6147
:103694000020704743685B68002099617047436865
:1036A4005B68090499610020704743685B685A6944
:1036B400514059610020704710B503699868F8B10A
:1036C400884219D1DC6808689860A14200D1D860AA
:1036D400002008602AB19A680A60DA68996002B921
:1036E400D960002010E0814206D108682060D868C3
:1036F4008142EDD1DC60EBE7044600680028F2D19A
:10370400002AE8D16FF0150010BD12F400332DE942
:10371400F04106460D4614461DD0A20714D567078E
:1037240068D55022E00611D542F4007204F4C06159
:10373400B1F5806F32D0B1F5C06F19D0B1F5007F0B
:1037440018D142F0800215E01022EBE7A106EDD576
:1037540042F48062EAE7D70305D5D00605D4C2F364
:1037640040129202E2E73022E0E74FF40072DDE714
:1037740042F4C07214F44038376912D113BB29469D
:103784003046FFF7D4FD7B6823FA05F2D20716D53D
:103794000122AA4023EA02037B6010E042F4807213
:1037A400E8E7786820FA05F1C9075FBF0121A9405D
:1037B4000143796033B929463046FFF7B8FD00204C
:1037C400BDE8F08120030DD5716801234968AB4041
:1037D4008B61002329463046FFF7A9FDB8F1000F9D
:1037E400EDD1D0E76103F4D50121A9403046FFF7BC
:1037F40056FFEEE76FF08500E2E770B50B690E4601
:103804009968054609B10C6801B970BD8A682A40F7
:1038140002D04B68304698471CB1236821461C46A9
:10382400F2E72346FAE730B50368136005790468C4
:1038340004EBC504A34202D36FF0010030BD5C79F0
:103844008C4201D00833F0E70020F7E72DE9F84F68
:10385400044600EBC10700254FF00108BC4202D129
:103864000020BDE8F88FD4F800B01BF0100F21D170
:10387400656845F02005CBF34420FCF71BFF814627
:1038840010B3CBF343160BF01F0A53462A463146B6
:10389400FFF74DFD0028E4DBBAF1110F08D1D9F888
:1038A400043029055A6808FA06F358BF1B049361CB
:1038B4000834D3E70BF01F03102B03D0112BDAD1FC
:1038C4006568D8E73025D6E76FF01200C9E743688A
:1038D400C1F34B101B6801F01F01C05801238B403A
:1038E400034214BF0123002313700020704710B556
:1038F4004368C1F34B101A6801F01F018458012377
:103904008B4023438350002010BD10B54368C1F39E
:103914004B14186801F01F01235801228A4023EA3E
:1039240002032350002010BD38B504460D46FFF7AE
:10393400DEFF29462046FFF7E8FF002038BD82B0AD
:1039440003680193019B43680193019B02B0704794
:1039540008B54368186802680368D9070368C2F3A6
:10396400C00248BF42F002029B07036848BF42F00E
:1039740004025907036848BF42F02002DB0542BF36
:103984006FF4807342F008020360D10701D5FFF79A
:10399400D6FF930701D5FFF7D2FF510701D5FFF7F3
:1039A400CEFF930601D5FFF7CAFF104608BD436852
:1039B4001A6802F10C0353E8003F43F0400302F19C
:1039C4000C0040E800310029F3D1704743681A68BD
:1039D40002F10C0353E8003F23F0400302F10C0012
:1039E40040E800310029F3D1704743681B68186828
:1039F40010F080001CBFD868C0F380107047436883
:103A04001B681868C0F38010704743681A6802F195
:103A14000C0353E8003F43F0200302F10C0040E89C
:103A240000310029F3D1704743681A6802F10C038E
:103A340053E8003F23F0200302F10C0040E800317A
:103A44000029F3D1704743681B681868C0F340101D
:103A5400704743681B681A68910602D5DA689206B3
:103A640007D4186810F0400004D0D868C0F3801060
:103A7400704701207047012070470369C3E90112B0
:103A84007047026953680BB191681847704708B5CD
:103A9400002225201146FDF7F9F8BDE8084025204D
:103AA400FDF7E6B837B5034604680D4619B96FF05B
:103AB400150003B030BD406819698368DB6803B33F
:103AC40001AA98470028F4DBE368019923F4004332
:103AD4001920E360AA00AB0FA1FB0001FCF758FB1F
:103AE4006422B0FBF2F102FB11031B013233B3FB7E
:103AF400F2F303EB01130F2BD9D99BB2A36000207F
:103B0400D7E76FF05700D4E710B543681B6810205F
:103B14001A681206FCD5EFF3118280F31288BFF302
:103B24006F8F1C68240604D482F31188BFF36F8F4F
:103B3400EEE7596082F31188BFF36F8F10BD08B5AB
:103B44004368186803681A0701D5FFF7F8FE03688D
:103B54009B0643BF43680B7000204FF0FF3008BD45
:103B64002DE9F341476805467868396983681B681D
:103B7400002B47D09847002841DB786A01AA00212E
:103B8400FFF751FE00283ADB019B002219791868DF
:103B9400FFF75CFE002832DB6E682B693468D3F8CB
:103BA4000080E36823F40053E360B06800F082FA15
:103BB40058B3D6E902018368DB6803B1984704F17E
:103BC4000C0353E8003F43F00C0304F10C0141E8FB
:103BD4000032002AF3D141462846FDF72BFE002887
:103BE40016DB337E1BB1636943F008036361E3684A
:103BF40043F40053E3602846BB6A9847002002B0B0
:103C0400BDE8F0816FF05700F9E76FF01200F6E7B6
:103C14006FF01500F3E710B543681868C468C3680B
:103C240014F4805403D013F4C06F12D00024131B77
:103C3400002B02DD03689B0601D4204610BD4368B7
:103C44000B5503681B0704F10104F0D5FFF777FE59
:103C5400EDE76FF08504F0E730B543681B68DC6876
:103C6400D868E40402D510F4C06F1AD0186810F0B4
:103C740080000ED0EFF31184102080F31288BFF37C
:103C84006F8F0020151A002D04DC84F31188BFF314
:103C94006F8F30BD1D682D06F7D50D5C5D6001305A
:103CA400F0E76FF08500F4E703691B681B680B609D
:103CB40043681B68DB6803F4C063B3F5806F2FD0DF
:103CC400A3F5C06CDCF1000343EB0C030B714368F8
:103CD4001B681B6903F44053B3F5805F22D0B3F52E
:103CE400405F21D0002B0CBF012303234B71436899
:103CF4001B68DA68DB68D20403F4C06316D5002BB2
:103D040014BF032304238B7143681B685B6903F4AA
:103D14004073A3F5407253425341CB710020704766
:103D24000223D3E70023E1E70223DFE7002B14BFDC
:103D340002230323E7E730B50446086808B9106096
:103D440008E0206845689D4205D3B5FBF3F515608E
:103D54002368186830BD083020600868013808609E
:103D6400EBE7036823F04003036003685B06FCD4BD
:103D74007047C0F34510082804D910288CBF0420CC
:103D8400022070470120704708B523200022052136
:103D9400FCF77CFFBDE808402320FCF769BF02461E
:103DA400806810F4B87082B00AD093685B0605D5B9
:103DB400D3680193019B93680193019B6FF0040006
:103DC40002B0704713B5406801AA0C46FFF72BFDFB
:103DD400002805DB019B002219791868FFF736FDDE
:103DE400012C02D1831C08BF002002B010BD38B5DD
:103DF4000B6805469888FFF7BCFF02280C4603466B
:103E0400D1E9111208D001280DD194F854000128E9
:103E140009D9206D012806D9E86809B102B10880E2
:103E2400A26CEAB938BD287BC0B219B1002AF9D016
:103E34000870A26C002AF5D00121521AA264AAB912
:103E4400626B08326263A26B013AA26304F1380127
:103E540004F1480204F13400FFF76DFF6064E1E708
:103E64000221B1FBF3F19142DCD8E6E7626C002A4F
:103E7400D8D001FB03226264D4E738B50B68054649
:103E84009888FFF776FF02280C460346C96B08D0D2
:103E9400012811D194F85420012A0DD9E26C012A89
:103EA4000AD939B1226C02B10A8892B2AA81226C71
:103EB4000ABB38BD0A46F8E7D9B1226C02B10A78C8
:103EC400D2B22A73226C002AF3D00121521A22643E
:103ED400BAB9E26A0832E262226B013A226304F15F
:103EE400300104F1400204F12C00FFF724FFE063E9
:103EF400DFE70A46E4E70221B1FBF3F19142D8D8A7
:103F0400E4E7E26B002AD4D001FB0322E263D0E7AA
:103F140010B5036944681A6922B95A6003F10800AC
:103F2400FEF734FA2068FFF71CFF002010BD07B528
:103F34004268034610681A69436823F080034360AB
:103F4400436823F040034360436823F02003436045
:103F5400036803F48273B3F5827F0ED183681B0672
:103F64000BD503685B0608D5036803F44443B3F533
:103F7400004FF3D1FFF7F5FEF0E783689B0606D503
:103F840083680193019B036823F040030360136873
:103F94009B88DB0401D4FFF7E4FE916202F1180070
:103FA40003B05DF804EBFEF7F1B92DE9F041476881
:103FB40004693B7E3D6813F00108064602D02B6875
:103FC40059065DD52846FFF7EAFE014620B1304682
:103FD400BDE8F041FFF7ABBF236C0BB9A26C22B371
:103FE40022689288D20728D4B8F1000F17D12B6821
:103FF40003F44448B8F5004F07D138688368D907FB
:10400400FCD52146FFF7F3FE09E0AB689807FCD521
:1040140021462846FFF731FFB8F5404FEDD1386807
:10402400FFF7BDFE01460028D1D12B6813F44443A9
:104034001CD1236C23BBA36C1CE0AA68920710D587
:104044007BB121462846FFF718FFAB68DB07E6D5AE
:10405400636C002BE3D0A36C002BE0D021462846F0
:10406400D0E76B6823F080036B60EEE7B3F5404F55
:1040740003D1236C23B90021A9E7B3F5004FDAD0AB
:10408400BDE8F08110B5436904463BB90020E268FD
:10409400537843F001035370404210BD9847002801
:1040A400F4D00028B8BF4042E368FF28A8BFFF202F
:1040B4001870ECE740B1C368587810F001001EBFD7
:1040C4001878B0FA80F040097047EFF31183102399
:1040D40083F31288BFF36F8FFEE708B5FFF7F5FF90
:1040E40008B51024EFF3118384F31288BFF36F8FA4
:1040F400FFF7BFF9F6E7D0E9003213605A600023F6
:10410400C0E90033704708B5FFF7F5FF037C23F0DF
:10411400020303740023836008BD38B504460D46CA
:10412400FEF740FA237C43F002032374E5B1A56053
:104134002B689D4209D16B68C4E900531C606C6014
:1041440012E06A689A42F6D01B68002BF3D094F907
:104154000E2093F90E108A42F3D09142F1DD5A6891
:10416400C4E9003214605C6038BD10B5EFF311840B
:10417400102383F31288BFF36F8FFEF7D1F984F312
:104184001188BFF36F8F10BD08B5037C13F0280F9F
:1041940001460CD183680BB1FFF7B5FF0B7C23F00C
:1041A40004030B740846BDE80840FEF7B9B908BD1E
:1041B40010B5EFF31184102383F31288BFF36F8FCC
:1041C4001838FFF7E1FF84F31188BFF36F8F10BD38
:1041D4000846FEF71FBA38B504460D46FEF712FB33
:1041E400B5F1FF3F08BFB4F1FF3F0346204610D0AE
:1041F40013F109004FEAE37141F100010A2200239F
:10420400FBF7C6FFB0F1004F71F1000128BF6FF05A
:10421400004038BD38B50446EFF31185102383F30D
:104224001288BFF36F8F037C5B070ED5183000F044
:1042340028F8237C23F0040320462374FEF770F946
:104244002846BDE83840FEF7E5B985F31188BFF389
:104254006F8F38BD08B50246FEF738FC70B1D0E95F
:1042640004319B1A61EBE272B3F1004F72F1000169
:1042740004DA002AACBF1846002008BD6FF00040E5
:10428400FBE738B50246EFF31185102383F3128858
:10429400BFF36F8F0368CBB1FEF718FC04461046DA
:1042A400FEF726FC00224FF000438442C0E90423B9
:1042B40006D1FEF713FCFFF7CDFF0021FDF722FE28
:1042C400002085F31188BFF36F8F38BD6FF01500A0
:1042D400F7E708B5FEF718FD08BD0A44914200F15E
:1042E400FF3300D1704710B511F8014B03F8014FAB
:1042F4009142F9D110BD02440346934200D1704764
:1043040003F8011BF9E710B5024601448A4213463B
:1043140003D01C780132002CF8D1181A10BDF0B566
:10432400C3F137070446FFB203F01F031046082BFE
:10433400E6B233D0102B3ED06508A40844EA817459
:1043440045EAC1752D194FEA910242EB5102290940
:1043540041EA02716D1842EB1212290A41EA026124
:104364006D1842EB1222290C41EA02416D1842EB0E
:104374001242AD1842F10002EC0844EA4274D1083A
:1043840004EB8402A6EB4205EDB2092D0CD90134ED
:10439400A5F10A0541F10001EDB212E0E40844EA96
:1043A400417406F00705C908303554EA010200F8E3
:1043B400015BBCD1F0BD240944EA017406F00F0589
:0C43C4000909092D84BFED19EDB2EDE7E9
:0843D000F8BDFF7F01000000B1
:1043D800000000006844000885060008000000008E
:1043E8000000000084440008000000004845000860
:1043F8000000000064450008000000002C4500088B
:10440800000000008045000800000000104500087A
:1044180000000000F444000800000000D844000830
:1044280000000000BC44000800000000A044000890
:10443800BB34000800000000000000009C45000894
:104448008D16000800000000751E0008000000001E
:10445800A91100080000000000000000B84500088D
:104468000F51000800000000EC480008CE000020B2
:1044780000000000E9140008000000001C510008BA
:10448800A04A0008D4480008D0000020000000001E
:104498000000000000000000574C00086C490008AC
:1044A800B0480008BC000020080300209906000856
:1044B80000000000654C000880490008B04800086A
:1044C800BE00002018030020990600080000000024
:1044D800734C000894490008B0480008C000002048
:1044E800280300209906000800000000814C0008FD
:1044F800A8490008B0480008C2000020380300207E
:1045080099060008000000008F4C0008BC4900080C
:10451800B0480008C400002048030020990600089D
:10452800000000009D4C0008D0490008B048000871
:10453800C60000205803002099060008000000006B
:10454800AB4C0008E4490008B0480008C800002047
:10455800680300209906000800000000B94C000814
:10456800F8490008B0480008CA0000207803002075
:104578009906000800000000E35000080000000051
:1045880000000000CC00002000000000CD11000851
:10459800000000002D510008A44A0008084900083E
:1045A800D200002030000020653B00080000000019
:1045B8003D510008184B0008E4480008D4000020CA
:0C45C80044000020711A000800000000F0
:1045D400000000005B340008000000005B340008A9
:1045E400000000005B340008000000005B34000899
:1045F400000000005B340008000000005B34000889
:104604000D510008551200080B51000855120008FE
:1046140009510008551200080751000855120008F6
:104624000551000855120008000000005B34000822
:10463400000000005B340008000000005B34000848
:10464400000000005B340008000000005B34000838
:10465400000000005B340008000000005B34000828
:10466400000000005B340008000000005B34000818
:10467400000000005B340008000000005B34000808
:10468400000000005B3400080351000855120008C4
:10469400000000005B340008000000005B340008E8
:1046A400000000005B340008000000005B340008D8
:1046B400000000005B340008000000005B340008C8
:1046C400000000005B340008000000005B340008B8
:1046D400000000005B340008000000005B340008A8
:1046E400000000005B340008B8450008AF3F000834
:1046F400000000005B3400089C450008873A00086D
:10470400000000005B340008000000005B34000877
:104714000151000855120008000000005B34000835
:10472400000000005B340008000000005B34000857
:10473400000000005B340008000000005B34000847
:10474400000000005B340008000000005B34000837
:10475400000000005B340008000000005B34000827
:10476400000000005B340008000000005B34000817
:10477400000000005B340008000000005B34000807
:10478400000000005B340008000000005B340008F7
:10479400000000005B340008000000005B340008E7
:1047A400000000005B340008000000005B340008D7
:1047B400000000005B340008000000005B340008C7
:1047C400000000005B340008000000005B340008B7
:1047D400000000005B340008000000005B340008A7
:1047E400000000005B340008000000005B34000897
:1047F400000000005B340008000000005B34000887
:10480400000000005B340008000000005B34000876
:10481400000000005B340008000000005B34000866
:10482400000000005B340008000000005B34000856
:10483400000000005B340008000000005B34000846
:10484400000000005B340008000000005B34000836
:10485400000000005B340008000000005B34000826
:10486400000000005B340008000000005B34000816
:08487400000000005B340008A5
:10488000D800002080040020000400004505000836
:104890000000000000000000000000000700000011
:1048A00000000000454C000800000000000000006F
:1048B0000F3700087B360008873600089936000855
:1048C000A3360008AF360008DD160008BD36000824
:0448D00000000000E4
:1048D400D3380008F33800080F3900082D390008D0
:0848E400C91A0008153F000885
:1048EC008D350008D135000800000000C113000808
:0C48FC004136000800000000FD350008F7
:10490800433B00080D3B0008553900083D190008D5
:10491800AD3C00085D3C00081B3C0008B3390008AA
:10492800D1390008EF3900080F3A00082D3A00087D
:10493800033A00084B3A000889170008E1170008F5
:0C494800573A00087B3A00087F3A00084C
:104954004400000000400000484500080900000031
:104964004845000808002000FFFF0000001C02402A
:10497400070000003000000080000000FFFF00007E
:104984000018024006000000300000004000000053
:10499400FFFF00000014024005000000300000008A
:1049A40020000000FFFF000000100240040000008F
:1049B4003000000010000000FFFF0000000C024067
:1049C400030000003000000008000000FFFF0000AA
:1049D4000008024002000000300000000400000053
:1049E400FFFF00000004024001000000300000004E
:1049F40002000000FFFF0000000002400000000071
:104A0400300000000100000064450008484500082B
:104A14002C45000810450008F4440008D844000858
:104A2400BC440008A044000800000000000000008E
:104A34000000000000000000000000000000000072
:104A44000000000000000000000000000000000062
:104A54000000000000000000000000000000000052
:104A64000000000000000000000000000000000042
:104A7400000000200000000000000B0602000000FF
:104A8400884A000800000008D450000822000206EA
:104A940000000020DC5000081E000B11003802400A
:104AA40000100140684400088444000884040000A5
:104AB400D04A0008010000000000000000000000CF
:104AC40000000000D84A0008933A0008440000009F
:104AD40010000000E04A000801000000E84A000855
:104AE400020000002701000000020000470100004E
:104AF400000000000000000008000000100000009A
:104B04001800000020000000280000003000000011
:104B140038000000003001403C4B0008344B0008D2
:104B240001000000030000008D3D000800000000AB
:104B34004400000000100000444B00080100000085
:104B44004C4B0008040000008500000080030000B6
:104B5400A500000080050000C500000080050000DD
:104B6400E5000000800500000000000000080000CF
:104B7400D8430008D84300085044000858440008AB
:104B840068440008684400080010000000304455E0
:104B9400542044494F20696E697469616C697A6173
:104BA40074696F6E206661696C65643A2025640AD5
:104BB400004455542053504920696E697469616CEE
:104BC400697A6174696F6E206661696C65643A2004
:104BD40025640A00445554204669726D77617265F4
:104BE40020537461727465640A0044555420535010
:104BF4004920736C61766520746872656164207302
:104C04007461727465640A004455542053504920F9
:104C14007472616E73666572206572726F723A2087
:104C240025640A00445554205350492052582030DA
:104C34007825303258205458203078253032580A9C
:104C4400006475745F7370695F7468726561645F32
:104C54006964006770696F403430303231633030DA
:104C6400006770696F40343030323138303000675B
:104C740070696F40343030323134303000677069DD
:104C84006F403430303231303030006770696F40FB
:104C94003430303230633030006770696F40343004
:104CA400303230383030006770696F403430303221
:104CB40030343030006770696F4034303032303017
:104CC40030300072302F61313A202030782530386E
:104CD40078202072312F61323A2020307825303804
:104CE40078202072322F61333A20203078253038F2
:104CF400780A0072332F61343A2020307825303816
:104D040078207231322F69703A202030782530387B
:104D140078207231342F6C723A2020307825303864
:104D2400780A0020787073723A2020307825303861
:104D3400780A004661756C74696E6720696E7374D5
:104D440072756374696F6E20616464726573732035
:104D5400287231352F7063293A203078253038781D
:104D64000A00556E68616E646C6564204952516E28
:104D74003A2025640A002A2A2A2A2A204D5055203E
:104D84004641554C54202A2A2A2A2A0A0020205314
:104D94007461636B696E67206572726F7220286339
:104DA4006F6E746578742061726561206D696768DF
:104DB40074206265206E6F742076616C6964290AC0
:104DC400002020556E737461636B696E6720657291
:104DD400726F720A0020204461746120416363652C
:104DE40073732056696F6C6174696F6E0A002020BA
:104DF4004D4D46415220416464726573733A2030CC
:104E04007825780A002020496E737472756374697A
:104E14006F6E204163636573732056696F6C6174B0
:104E2400696F6E0A002020466C6F6174696E672D8D
:104E3400706F696E74206C617A7920737461746523
:104E440020707265736572766174696F6E20657225
:104E5400726F720A002A2A2A2A2A2055534147458A
:104E6400204641554C54202A2A2A2A2A0A00202066
:104E74004469766973696F6E206279207A65726F0E
:104E84000A002020556E616C69676E6564206D654B
:104E94006D6F7279206163636573730A0020204E1D
:104EA4006F20636F70726F636573736F7220696EC6
:104EB400737472756374696F6E730A002020496C91
:104EC4006C6567616C206C6F6164206F6620455867
:104ED400435F52455455524E20696E746F205043BF
:104EE4000A002020496C6C6567616C20757365202D
:104EF4006F662074686520455053520A0020204193
:104F04007474656D707420746F206578656375744E
:104F14006520756E646566696E656420696E737478
:104F240072756374696F6E0A002A2A2A2A2A20423B
:104F34005553204641554C54202A2A2A2A2A0A002D
:104F44002020537461636B696E67206572726F729F
:104F54000A0020205072656369736520646174617E
:104F640020627573206572726F720A0020204246B7
:104F7400415220416464726573733A203078257815
:104F84000A002020496D707265636973652064614D
:104F9400746120627573206572726F720A0020203A
:104FA400496E737472756374696F6E2062757320D1
:104FB4006572726F720A0052657365727665642059
:104FC400457863657074696F6E202800537075723C
:104FD400696F757320696E746572727570742028B8
:104FE4004952512000535053454C20696E20746837
:104FF40072656164206D6F646520646F6573206EF3
:105004006F7420696E646963617465205053500A3B
:10501400002A2A2A2A2A2048415244204641554C33
:1050240054202A2A2A2A2A0A00202042757320663C
:1050340061756C74206F6E20766563746F72207472
:1050440061626C6520726561640A002020446562B7
:105054007567206576656E740A0020204661756C5C
:105064007420657363616C6174696F6E2028736565
:10507400652062656C6F77290A00415243485F4599
:105084005843455054207769746820726561736F82
:105094006E2025780A0A002A2A2A2A2A20446562D0
:1050A4007567206D6F6E69746F72206578636570C3
:1050B40074696F6E202A2A2A2A2A0A002A2A2A2A8E
:1050C4002A20257320256429202A2A2A2A2A0A002C
:1050D400464C4153485F30005352414D5F300069A4
:1050E4006E746572727570742D636F6E74726F6C0A
:1050F4006C6572403430303133633030000A060559
:1051040005040103010201010100017263634034DB
:10511400303032333830300072657365742D636F0C
:105124006E74726F6C6C65720073657269616C4049
:1051340034303031313030300073706940343030C5
:105144003133303030000000000000000000010264
:105154000304060708096D61696E002A2A2A2042A1
:105164006F6F74696E67205A6570687972204F5347
:10517400206275696C642076342E332E302D3831DC
:1051840039332D673338383562313335633065351B
:10519400202A2A2A0A00286E756C6C29002A666C5B
:0851A4006F61742A0000000095
:1051AC0040420F0001010000000000000000000060
:1051BC000000000000000000000000001333000895
:1051CC0000000000B13400080000000000000000E6
:1051DC003C000020000000000000000000C20100A4
:1051EC000001030000000000000000004C00002043
:1051FC004C00002000000000010000005C000020BA
:10520C005C00002000000000010000000000000015
:10521C000000000000000000000000000000000082
:10522C000000000000000000000000000000000072
:10523C000000000000000000000000000024F4004A
:10524C00C8000000A4000020A4000020FFFFFFFF06
:0C525C00FFFFFFFFFFFFFFFFFFFFFFFF52
:105268000000000000000000000000000000000036
:0C5278000000000000000000000000002A
:0452840015E015E03C
:0400000508000C1DC6
:00000001FF
