:020000040800F2
:10000000402A00207D4C000833A30008694C0008FA
:10001000694C0008694C0008694C000800000000A9
:10002000000000000000000000000000C14C0008BB
:10003000694C000800000000854E0008A16200081D
:10004000014F0008014F0008014F0008014F000850
:10005000014F0008014F0008014F0008014F000840
:10006000014F0008014F0008014F0008014F000830
:10007000014F0008014F0008014F0008014F000820
:10008000014F0008014F0008014F0008014F000810
:10009000014F0008014F0008014F0008014F000800
:1000A000014F0008014F0008014F0008014F0008F0
:1000B000014F0008014F0008014F0008014F0008E0
:1000C000014F0008014F0008014F0008014F0008D0
:1000D000014F0008014F0008014F0008014F0008C0
:1000E000014F0008014F0008014F0008014F0008B0
:1000F000014F0008014F0008014F0008014F0008A0
:10010000014F0008014F0008014F0008014F00088F
:10011000014F0008014F0008014F0008014F00087F
:10012000014F0008014F0008014F0008014F00086F
:10013000014F0008014F0008014F0008014F00085F
:10014000014F0008014F0008014F0008014F00084F
:10015000014F0008014F0008014F0008014F00083F
:10016000014F0008014F0008014F0008014F00082F
:10017000014F0008014F0008014F0008014F00081F
:10018000014F0008014F0008014F0008014F00080F
:04019000014F000813
:100198007BB972B90029BEBF00204FF0004106E0CC
:1001A80008BF00281CBF6FF000414FF0FF3000F07F
:1001B80057B8ADF1080C6DE904CE002909DB002B16
:1001C8001ADB00F069F8DDF804E0DDE9022304B089
:1001D8007047404261EB4101002B1BDB00F05CF8EB
:1001E800DDF804E0DDE9022304B0404261EB41019F
:1001F800524263EB43037047524263EB430300F000
:100208004BF8DDF804E0DDE9022304B0404261EB7D
:1002180041017047524263EB430300F03DF8DDF8BB
:1002280004E0DDE9022304B0524263EB4303704764
:1002380053B94AB9002908BF00281CBF4FF0FF3145
:100248004FF0FF3000F00CB8ADF1080C6DE904CEAA
:1002580000F022F8DDF804E0DDE9022304B070477D
:10026800704700BF10F8012B11F8013B012A28BF85
:100278009A42F7D0D01A7047034611F8012B03F8B9
:10028800012B002AF9D17047034613F8012B002AE5
:10029800FBD1181A013870472DE9F04786468C467D
:1002A8000846089E154674461946002B40F0C28041
:1002B8008542B2FA82F245D94AB1C2F1200300FA66
:1002C80002FC2EFA03F3954043EA0C0C94404FEAE3
:1002D800154EA8B2BCFBFEF8230C0EFB18CC08FB8D
:1002E80000F943EA0C43994528D9EB1808F1FF3780
:1002F80004D2994502D9A8F102072B44A3EB0903BC
:10030800A4B2B3FBFEFC0EFB1C330CFB00F044EA6A
:100318000344A04214D92C190CF1FF3304D2A04293
:1003280002D9ACF102032C44241A43EA07401EB157
:10033800D440002334607360BDE8F0874746DDE7AA
:100348006346F1E792BB431B01214FEA154EAFB25A
:10035800B3FBFEFC200C0EFB1C330CFB07F840EA39
:100368000343984562D9EB180CF1FF3004D2984545
:1003780002D9ACF102002B44A3EB0803A4B2B3FBEF
:10038800FEFC0EFB1C330CFB07F744EA0344A742B0
:100398004ED92C190CF1FF3304D2A74202D9ACF183
:1003A80002032C44E41B43EA0040C0E7C2F12003E7
:1003B80020FA03F1954090402EFA03F303434FEAE5
:1003C800154EAFB2B1FBFEFC0EFB1C10190C0CFB5A
:1003D80007F841EA0041884504FA02F422D969186D
:1003E8000CF1FF3004D2884502D9ACF1020029444F
:1003F800A1EB08019BB2B1FBFEFC0EFB1C110CFB30
:1004080007F743EA01439F420ED9EB180CF1FF317D
:1004180004D29F4202D9ACF102012B44DB1B41EA12
:10042800004192E76046E3E76146F7E76046A3E7E5
:100438006346B7E7834206D916B9002108467BE729
:10044800C6E900E0F9E7B3FA83F78FB9834201D32D
:10045800724508D8BEEB020460EB030301209C46FA
:100468001EB9002168E73846FAE7C6E9004CF8E704
:10047800C7F1200CBB4022FA0CF41C432EFA0CF1F5
:1004880020FA0CF3B84001434FEA14490EFA07F575
:10049800B3FBF9F81FFA84FE09FB18300B0C08FBB4
:1004A8000EFA43EA00439A4502FA07F240D9E318E4
:1004B80008F1FF3004D29A4502D9A8F1020023447A
:1004C800A3EB0A0389B2B3FBF9F809FB183308FB5D
:1004D8000EFE41EA03418E452CD9611808F1FF331D
:1004E80004D28E4502D9A8F10203214443EA004010
:1004F800A0FB0298A1EB0E014145CE46434602D32C
:1005080006D14D4504D2B9EB020E68EB040301385D
:10051800002EA6D0B5EB0E0261EB030101FA0CFC2C
:1005280022FA07F34CEA0303F940C6E9003198E7D9
:100538004046C5E74346D9E72DE9F047044688B069
:10054800884617460AF04FFD0A220023FFF770FE7F
:10055800B8F1010F06460D4607D102460B46204664
:10056800274908F049FE002011E07F6825483946F0
:10057800FFF778FE70B124483946FFF773FE48B19B
:10058800204622493A4608F053FE6FF0040008B0AE
:10059800BDE8F0873046294617A3D3E90023FFF7C3
:1005A800F7FD06460D4610461946194A0023FFF77F
:1005B800EFFD80460F46104619464EF6602200238E
:1005C800FFF7E6FD82468946104619464FF47A72CF
:1005D8000023FFF7DDFDCDE902A9CDE90623CDE92A
:1005E8000401CDE900870B4932462B46204608F026
:1005F80003FEB8E7AFF30080005C260500000000AA
:1006080072C6000883C6000886C600088FC60008A0
:1006180080EE3600A7C6000808B5024908F0ECFDD0
:10062800002008BDBAC2000808B5024807F010FF4C
:10063800002008BDC0C200082DE9F0478A4600AF77
:1006480000297AD004680E1F361BF50826F0070625
:1006580004EB0608B8F8023013F0010319D1384842
:10066800026852070DD0E94688B06A463549C2E9A2
:10067800051A032142F8101F4FF4C25101F01EFA67
:10068800CD46002383F31188BFF36F8F04231846E8
:1006980002DF2946204607F02AFD284434F8303086
:1006A800C01A85421AD02648036859070ED0E94671
:1006B80088B06A46244BC2E9053A032342F8103F42
:1006C80000234FF4C25101F0F9F9CD46002383F31A
:1006D8001188BFF36F8F0423184602DFB8F8023081
:1006E80023F00103A8F802302946204607F0FFFC52
:1006F80005EB000804EBC8035B88DA0708D4414619
:10070800204607F03DFD42462946204607F07BFD7E
:10071800A65BAE1B04EBC6035B88DB0709D4314636
:10072800204607F02DFD2A463146204607F06BFD8E
:1007380035462946204607F0DFFCBD46BDE8F08770
:10074800F80000204AC3000821C300082DE9F04F33
:1007580091B08407009302F004030293C2F3C2032A
:1007680003F10103DDF86880039205460E46059300
:1007780040F0BA81041D30B1072909D86FF01B0079
:1007880011B0BDE8F08F01F007063444C6F1080641
:10079800009B4FF00009591E4FF0040A4FF0FF3339
:1007A8000193CDF810904F46CB4653460DB1009AB1
:1007B80022600598002800F3E8809848009A824251
:1007C80003D397488242C0F0E080039AA4EB050E59
:1007D80092074FEA9E0000F103810F2F00F2B180CB
:1007E800002D00F0058107F140020DEB020C019A83
:1007F8000CF8200C0CF8102C049801300490E7E059
:100808007A285DD84B280ED8472859D829282DD8BA
:10081800252852D054D820287AD02338D0F1000B7C
:100828004BEB000B74E04C382E2849D8DFE800F079
:100838007048484848484848484848484B48484805
:10084800484848484859484B4B595959704B6D4886
:100858007048184B184848827F4B48484B487F00DF
:1008680000204FF0000B4FF0040A38E02A38C0B2DD
:10087800012202FA00F010EA0E0F49D110F0625C72
:100888002FD110EA020B43D06046013C5444B4FB1C
:10089800FAF40AFB04F4002D61D0A3EB050CA44480
:1008A800B4453FF66BAF002868D1042B47D158F800
:1008B800043B2360043404232AE0019A013A01929C
:1008C8004FF0000B24E011F8010C6C2834D111F81A
:1008D800023C00206C2B8346C5D14FF0080A5346D2
:1008E800D3E708F1070828F007080734F8E802AB4F
:1008F80024F0070435B106982044B0423FF63EAFD5
:10090800C4E900AB08344FF0000B4FF0080A534617
:1009180011F8010F002878D0BBF1000F7FF470AFF9
:100928002528F5D1019B013301934FF0010B4FF0BE
:10093800040AECE7584694E700208346A5E7082B0D
:1009480002D06FF015001BE708F1070828F0070828
:10095800F8E80223C4E9002308340823D8E768B973
:10096800042B02D108F10408A4E7082BE9D108F107
:10097800070828F0070808F10808EDE7059A013A82
:10098800059258F8042B009210E7039A900720D597
:10099800A4EB050E4FEA9E004FF0010CBEF5007F58
:1009A800CFD20F2FCDD8F5B107F140020DEB020ED3
:1009B800C0B2019A0EF8200C0EF8102CBCF1000FF2
:1009C8003FF41AAF60F07F000EF8200C09F101091E
:1009D8000137C5F10802043406924FF6DA7E97E72C
:1009E8004FF0000CDAE7BCF1000F01D00136EFE759
:1009F800029802360028EBD10098CDE90631FFF7BE
:100A080043FCDDE906310644E2E7631BB3F5806F7A
:100A180097D23DB9A6F10804E018B1E698B30008EA
:100A280020E00008029A28609B082B709DF810307F
:100A3800C2B1EB7085F80290B9F1000F05D008A893
:100A48000022C5F1010C97420ED1C5F101030DF149
:100A580020084FF0000A01930DF1300B574512D1D1
:100A6800601B8DE66B70E5E710F8013B190608D5A9
:100A78000CEB040EB64503F07F033FF67FAE04F897
:100A8800013B0132DFE7B9F1000F03D098F90020EC
:100A9800002A17DB029BD3B11AF80B2004F8012BAC
:100AA8000022019B18191044B0423FF667AE98F82F
:100AB800000004F8010B0099039220460AF074FB29
:100AC800039A14440AF1010A08F10108C6E798F8E4
:100AD800002055F822300093029B45F822300098F8
:100AE800FFF7D2FB421CDCE76FF00D0048E600BFC1
:100AF8002DE9F04F97B000AF90F802A0D7F880B07A
:100B08003B62CBF3C0030446FA62BB61894641B934
:100B1800457800780AEB800020444D4517D8A0EBB3
:100B28000409E378FB61BAF1000F02D01BF0010F52
:100B380016D1FB6953BBFB6A1BB13A6A494620468A
:100B480098474D4628465C37BD46BDE8F08F461CA1
:100B58003046FFF799FB0130304409F10109DCE721
:100B6800237862687A62FA6A9900796104EB8301F2
:100B7800002A40F004814D460E4601EB0A094FF069
:100B880000084E4550D101EB0A0610E01BF0020F99
:100B9800D1D023789A007A6162687A62FA6A04EBA3
:100BA8008301002A7BD14D4601EB0A0690461BF0D3
:100BB800050F0CBF02230123FB62FB6906EB430A06
:100BC8000BF00203BB625645BCD016F8021B16F8A0
:100BD800013C54F823909B4B994502D39A4B994575
:100BE8003AD3BB69002B44D0786A07F0DAFB0028B7
:100BF8003FD09648036813F0060F13D0E9468AB031
:100C08006A46934B53617B6AC2E906314FF400731D
:100C18001384904B42F8103F00234FF4125100F018
:100C28004DFFCD46023DCEE716F8013BF96254F878
:100C38002300FFF729FBD7F88430F96A01304BB15C
:100C4800D7F8883098453EBFD7F8843023F8180085
:100C580008F10108054494E7BB6923B1786A07F0F5
:100C6800A0FB0028C5D11BF0010F05D1FB6AED1AC6
:100C7800A9E7BB6A002BA6D04846FFF705FBD7F8C3
:100C8800843053B1D7F8883098453FBFD7F88420CF
:100C9800431C22F8183008F10108054493E7BAF11B
:100CA800000F72D01BF0040672D0D046002607F160
:100CB800480052463B61B9620AF076FAB96A3B6964
:100CC80001EB0A02BA62FA69F9695200FA60BA6A73
:100CD80002EB41023A610BF00202BA603A69B96A62
:100CE8008A4257D162787A621BF0020F32440CBFF5
:100CF8004FEA580100211BF0010FD2B240F09F804B
:100D08001BF0040F14BF40460020BB616270A07046
:100D1800E1703A6A7969FB6A20469847051EFFF632
:100D280011AFBB6923707B6A6370FB69E37041464E
:100D38003A6AFB6A84F802A007F148009847B0F1C4
:100D48000008C0F2BB807B693A6AA9EB0A01C91A9C
:100D5800FB68C91AD7E90A0398470028C0F2B0808F
:100D6800A84408EB00054FF0000B07F1380AB3451B
:100D780072D300213A6AFB6A08469847E2E656466B
:100D88004FF0000807F1380093E75646D04697E73A
:100D9800B04695E7BA6A12F8021BBA6212F8015C0B
:100DA800284A54F82500904202D3274A90421ED37D
:100DB800BA6932B1786A7B6007F0F3FA7B68002879
:100DC8008CD1BA6802BB08F1280207F1300C08F18F
:100DD8000100944407F1580252FA80F008F1020821
:100DE8000CF8101C5FFA88F800F8105C76E7BA690E
:100DF8003AB1786A7B6007F0D4FA7B6800287FF400
:100E08006DAF1BF0010F09D006F1280207F1300081
:100E1800711C161806F8205CCEB25FE71BF0040FB1
:100E28003FF45CAF08F1280207F1300008F1010136
:100E380002EB000808F8105C5FFA81F84EE7002022
:100E480063E700BF98B3000820E00008E000002036
:100E580077C30008040000011BF80A3087F8373010
:100E680054F82390D7F884302BB3D7F888309B45B3
:100E780021D2D7F8843033F81B803A6AFB6A012103
:100E880007F13700984700281ADB0544B8F1000F2E
:100E980006D14846FFF7F8F900F101081FFA88F86B
:100EA8003A6AFB6A414648469847002808DB0544E9
:100EB8000BF1010B5BE74FF00008DEE7454641E622
:100EC80005463FE630B50446EFF31185102383F35A
:100ED8001288BFF36F8F044B0FCB84E80F0085F3A4
:100EE8001188BFF36F8F30BD3801002001281FB56E
:100EF8000C4605D004281DD06FF0150004B010BDB5
:100F08000AF071F842F210720023FFF791F9104BC2
:100F18005A43C4E90001A2606846FFF7D3FF694657
:100F2800204607F063FA18B90A4B0FCB84E80F0084
:100F38000020E3E70AF057F842F210720023FFF7A7
:100F480077F9034B5A43C4E90001A260F0E700BFF8
:100F5800A0860100F8BA000801287FB50D462DD1FA
:100F68008A68184B9A4229D80AF03DF842F2107262
:100F78000023FFF75DF9144B404261EB41016C46D9
:100F8800CDE9000153432046029300F0C9F82946F1
:100F9800204607F02BFAEFF31186102383F312880B
:100FA800BFF36F8F94E80F00084D85E80F0086F3B4
:100FB8001188BFF36F8F002004B070BD6FF015006B
:100FC800FAE700BFFFC99A3B6079FEFF38010020AD
:100FD800014B1860704700BF0000002080B505462F
:100FE8000E461746984606F049F8034603F096FF62
:100FF800DFF81890044649F8003042463046394632
:10100800A84754F8090003F023FF00BF08000000B8
:101018002DE9F84344690569C76840F26C73E11724
:101028000135E41841F10001022D8CBF0023012392
:10103800E41A61F100010029064607F1FF3751DA89
:101048006FF4C77020184FF4C8724FF0000361F1B5
:101058000001FFF79DF8264B03FB0044D6E9008307
:10106800B6684FEAE37C4FF03C0E99466346C6FBF0
:101078000E93A9FB0EC60EFB0366A30840F26D1E75
:10108800022D0EFB043302463B448CBF6FF0020076
:10109800092064270544B4FBF7F499201B1B154C61
:1010A80045431CEB080C4FF0050005F10205B5FBA4
:1010B800F0F5A2FB04202B4404FB010146EBE87683
:1010C80098180D4A41F1000380180C4A63F1000397
:1010D800A0FB020102FB031110EB0C0041EB06011F
:1010E800BDE8F8834FF4C87200232046B1E700BF7B
:1010F80070FEFFFFB13A02009405F5FF8051010030
:1011080010B5FFF785FF024603F008FF0B460349B9
:10111800002444501046194610BD00BF0C000000C2
:1011280070B5204B82689A4216DDD0E90016012975
:1011380076F1000503F1010392FBF3F34FEAE37440
:101148001DDAC91844EB0604C0E90014164901FB6E
:1011580003238360012070BD002AFBDAD0E9004137
:101168000029124EA3EB0203B3FBF6F310DA01F1E8
:1011780000459C4275F100050ADA0020EBE7CD43F3
:101188009D426FF00045A5EB0605A541D9DAF4E7C5
:10119800E41A61F1000106FB0322C0E90041826004
:1011A800D8E700BFFFC99A3B003665C400CA9A3B1E
:1011B80008B500F0B9F80A4941610A490122C0E9B5
:1011C80000220A6008490A60084A00231360084A96
:1011D80003611360C0E90233064A136008BD00BF0B
:1011E8004CC90008200000201C000020180C00201A
:1011F800140C0020100C00202DE9F04107460E4683
:10120800154600F091F8C36804461BB943691A787B
:10121800002A41D10023E3606368BB4256F82320CB
:1012280008DB324B6361204600F062F84FF0FF3074
:10123800BDE8F081511C616192F80080B8F12D0F72
:10124800EFD1911C61615178A1602D2904D1927868
:101258006AB901336360E4E749B9244B63614146E5
:10126800284609F0E1FF0028DDD0C4F80880D4F84A
:1012780008802846414609F0D7FFB8F13A0F63695C
:1012880000D070B91B7813B96368013363602046D6
:1012980000F02EF83F20CBE75A1C42611B78836090
:1012A800E5E742783A2A0BD0002222611B7813B96D
:1012B800636801336360204600F01AF8A068B7E756
:1012C80018786268094928B901329742626004DDDA
:1012D80056F82230C4E90431EAE761612D783A2DE5
:1012E8002046D5D100F004F82846A1E74CC90008EB
:1012F800084A01681160084A41681160074A816814
:101308001160074AC168074B116002691A6004F04E
:101318001DBA00BF200000201C000020180C00206F
:10132800140C0020100C0020004870470400002016
:10133800034A536823F0020353600020704700BF3C
:10134800002004E008B54168054883681B680C3133
:101358001BB1984700EAE07008BD6FF05700F9E745
:1013680038B40008192810B502D90024204610BD49
:10137800044B53F82040204609F00CFC0028F5D116
:10138800F3E700BF70BC0008084B1A6842F480728B
:101398001A601A6842F400721A601A6842F480628D
:1013A8001A60034B034A1A60704700BF003C0240B2
:1013B8006C0000200024F4002DE9F047DFF8588085
:1013C800044607464FF0010914B93846BDE8F087CE
:1013D80094FAA4F5B5FA85F509FA05F32E0108EB98
:1013E80005156FEA030A24EA03042B7B002BEBD0D4
:1013F80058F806301B694BB94644032273682846DF
:10140800196807EA0A0707F0FAFBDDE72846984754
:101418000028D9D1F0E700BF64B9000830B51049F9
:10142800104889B0002209F026FE0F4D0F4900220E
:101438000023CDE9062300240E23CDE90334CDE9AA
:1014480001440B4B00944FF44072284605F088FB8A
:101458000849284605F0B6FA204609B030BD00BF55
:10146800811400080806002048010020001100200F
:10147800C9170008EAC40008014805F049BA00BFC6
:10148800280100202DE9F047804620480F4607F044
:1014980086FB0646002832D000252846BDE8F0879E
:1014A800237B83B12368DB680BB1204698476368C8
:1014B80083F8069023681B69CBB96368032219680F
:1014C800204607F09CFB013610345445E8D3B8F1A8
:1014D800000FE2D0002DDFD02846FFF76DFF05464C
:1014E800002FF7D00021642009F0CAFCF2E720465B
:1014F80098470028E1D009FA06F31D43E3E7044CB6
:10150800DFF810A005464FF00109DEE7AC0C00201B
:1015180064B9000874B9000808B5034608462BB139
:10152800044A136000F06CFD002008BD6FF0150040
:10153800FBE700BF2400002010B5044C237813B942
:10154800034805F0E5F90123237010BDB010002011
:101558002801002010B504460B4807F020FB5CB1B9
:10156800BFF35B8F094B53E8001F013943E80012B2
:10157800002AF8D1BFF35B8F054809F088FD0548BC
:10158800BDE8104005F0C4B9A40C0020A80C002048
:1015980008060020280100200020064BBFF35B8FBF
:1015A800014653E8000F43E80012002AF9D1BFF3BF
:1015B8005B8F7047A40C002070B5FFF7EDFF084C57
:1015C800084E0546B44200D370BD63685B792BB101
:1015D80023685B6813B12946204698471034F1E721
:1015E80064B9000874B9000810B5044C04492046D1
:1015F80007F03EF8034B1C6010BD00BFA40000209C
:10160800D8BC00089C0C00200E4A0F48002310B5D7
:1016180013700E4A13600E4A4FF47A711360FFF785
:101628007BFFFFF7E1FF00F079F90A4B0A491846FA
:101638008B4200D310BD1A1A5C6812110132227154
:101648001033F5E7B1100020C18B0008A40C00206E
:10165800A80C002064B9000874B9000801460022EB
:101668000148002307F025B8A4000020014807F02E
:10167800BEB800BFA4000020024B0146186807F05E
:1016880011B900BF9C0C0020014807F046B900BF03
:10169800A40000202DE9F041324B187800285FD0D3
:1016A800FFF7E4FF0446002856D12F4B2F4C1B6848
:1016B800002B12DD09F097FC0A220023FEF7B8FD83
:1016C800D4E90032C01A40F2E93361EB02019842D2
:1016D80071F1000101D3FFF76FFFD4E9003213F570
:1016E8007A7342F10002C4E90032BDE8F041FFF725
:1016F800CBBF6B685B793BB121784B0717D52B685B
:1017080021461B682846984710354545F1D32046A1
:10171800FFF7B2FFBFF35B8F154B53E8001F01398A
:1017280043E80012002AF8D1BFF35B8FBDE72046DB
:101738002688C1F3C20700F0A1FAC6F38216024652
:10174800002EDCD00028DADB01233946284600F0D9
:101758008FF9B042D8D3D2E7064DDFF81C80D4E722
:10176800BDE8F081B0100020A40C00200006002085
:10177800A80C002064B9000874B9000870B50D4DB4
:10178800297861B90120FFF77DFE0B4C0B4EB4425E
:1017980006D3FFF77FFF0028FBD101232B7070BD14
:1017A80063685B791BB1236820469B6898471034AF
:1017B800EDE700BFB110002064B9000874B9000853
:1017C80000212DE9F0470846FFF75CFE044658B3B0
:1017D8004FF4FA784FF0000903F0A0FB1B4B1C4AAA
:1017E8001B58136033B11B4B1B68092B02DD1A48C9
:1017F80005F08EF8194FDFF860A0002544B12046A7
:10180800FFF7DAFD044618B94FF0FF384FF0FF39FB
:10181800FFF740FF064628B9B5B942464B46504641
:1018280005F0AAF83546E9E74FF0FF384FF0FF39E1
:10183800D2E72B689B691BB10022114628469847BE
:101848001035BD42F5D3E8E7054DFAE7080000007A
:10185800A00C0020A80C00202801002074B9000862
:1018680064B9000813B5184807F099F9174B1B78A5
:1018780073B1EFF31184102383F31288BFF36F8FD2
:10188800FFF708FF84F31188BFF36F8F02B010BD14
:101898000F4B1B68002BF9D050B900220023CDE96B
:1018A80000230C4842F21072002305F025FFEDE7F3
:1018B8000928EBD1074809F0EAFB074802B0BDE860
:1018C800104005F025B800BFA80C0020B11000207A
:1018D800A00C0020080600202801002010B5064BA7
:1018E8001B68044698472146A060044806F060FF3C
:1018F800BDE81040FFF7B6BF24000020A400002078
:10190800044A054B9B1AB1EBD30F34BF52F8310090
:1019180000207047FCB8000864B90008084B094A61
:1019280009489B1ADB080021994200D170470268D8
:1019380022F0070242F0030240F8042B0131F3E7DA
:1019480064B90008FCB80008E0000020F8B50B4FA7
:101958000B4DED1B0646ED080024AC4203D14FF0B9
:10196800FF342046F8BD57F8340020B13146FEF761
:1019780079FC0028F5D00134EFE700BFFCB8000877
:1019880064B9000800282DE9F047884615461F4627
:101998001DDADFF89890264E4FF0000AA6EB0906EC
:1019A80036095446B24509F1100902D12046BDE86E
:1019B800F08759F80C0C3B4600792A464146FFF758
:1019C800E1FF844238BF04460AF1010AEAE7194BED
:1019D800194AD21AB5EBD20F26D203EBC5031C79EC
:1019E800BC4228BF3C46154EC0B200EB400056F83A
:1019F80025300722824023EA020304F007028240CE
:101A080013430021032223FA02F000F00700814269
:101A180002F1030238BF01461E2AF4D123F007035E
:101A28000B4346F82530C1E70024DCE764B9000819
:101A380074B90008FCB8000864B90008E000002088
:101A4800F8B5094D094BED1A06460F46ED08002476
:101A5800AC4200D3F8BD002122B23B4630460134E7
:101A680007F0C5F8A4B2F3E764B90008FCB80008A9
:101A780070B14168097973B1002A17DBCBB20C4900
:101A880051F8220003EB4303D84000F007007047E9
:101A98004FF0FF31EFE707490748401AB2EBD00F84
:101AA8003ABF01EBC2010879184670470420704715
:101AB800E0000020FCB8000864B900082DE9F04FE8
:101AC8008FB004AFC1F34A28B8600D4691467B60D9
:101AD8000C0DB8F1000F67D0002607F114034FF082
:101AE800040B4FF00A0AC7F80C80C7E907667E6244
:101AF8000193CDF808B0CDF800A007F11C03F968F0
:101B080032464846FEF7F4FFB0F5006F034620D38F
:101B18002A48036813F0060F17D06C468AB0D9F824
:101B2800041004AB264DC3E9055140F2FF71D96199
:101B38001A464FF400711984224B42F8103F4FF4B3
:101B480012513346FFF7BAFFA5462C37BD46BDE80C
:101B5800F08FC0F30A0804F11700184420F00700BA
:101B680080083B60FFF77AFD68F35325044690B17F
:101B78003B68154AC7E9083600F1100107F114035C
:101B8800F961CDE900A3CDF808B0F96807F11C03A5
:101B98004846FEF7ADFF68F353257B68B9682A46C7
:101BA800204607F060F8D0E704F1170020F007009E
:101BB8008008FFF753FD0446EDE700BFE80000206A
:101BC800FFC4000804000001418C00082DE9F04F13
:101BD80087B0DDE91279DDE9105A0446039193468E
:101BE8009846DFB1CDF800903B46524610210020C0
:101BF800CDF81490FEF7AAFDB0F5006F06460ED397
:101C08001C48036813F0060F30D01B4A40F2FF73DC
:101C1800022107B0BDE8F04F07F07EB83E4604F059
:101C280007040BF0070BE40044EA8B1444EA46244B
:101C380044EA055405F11700304420F007008008F5
:101C4800FFF70CFD054640B13FB1CDF800903B468B
:101C5800524631461030FEF779FD03994346224635
:101C6800284607B0BDE8F04F06F0FDBF07B0BDE855
:101C7800F08F00BFE80000203EC50008406820B192
:101C8800034BC01A40F38F0070474FF0FF30704786
:101C9800E00000200EB403B503AB014653F8042B53
:101CA8000448019303F0CAFA02B05DF804EB03B0EC
:101CB800704700BF6B8D0008CA0605D48B064CBF61
:101CC80002490349FFF7E6BF704700BF4BC9000848
:101CD80076C500082DE9F04F89B09B46149B069302
:101CE8009DF84CA0159B0593169B179E04930446DC
:101CF8000D469046BAF1000F00F09D8006F48073FF
:101D0800079306F072FF06F00209024600283ED04B
:101D180091492046FFF7BEFF0746B9F1000F08D0EA
:101D280016F0440F35D18D492A462046FFF7B2FFF9
:101D3800074406F0010353B1894B8A4953F82A2016
:101D4800894B2046002A08BF1A46FFF7A3FF06F46E
:101D58008073002B49D006F00803002B63D1B8F13B
:101D6800000F66D0814942462046FFF793FF05469B
:101D7800069B3D44002B6DD1049B002B73D1F307C8
:101D880000F1E48031462046FFF796FFD8E0074689
:101D9800C3E7774B18680028CAD0764B4FF47A7996
:101DA8001B68B5FBF3F54FF46163B5FBF0F100FB7D
:101DB800115509FB05F54FF03C0CB1FBF3F203FBA1
:101DC8001211B5FBF0FEB1FBFCF300FB1E550CFB3A
:101DD800131109FB05F50091B5FBF0F56649CDE94E
:101DE80001E52046FFF756FFA2E706F00803EBB12E
:101DF800624B634953F82A202046FFF74BFF0546FC
:101E0800B8F1000F05D0594942462046FFF742FF76
:101E18000544BBF1000FABD05A495A462046FFF79C
:101E280039FF0544A4E74FF0000BE1E706F0080589
:101E3800E6E745469CE7BBF1010F069B06D1002B60
:101E480064D1049B002B7BD000250CE0002BF8D03C
:101E58004D485CE04D48069B4D49224606F070FA15
:101E6800049B002B68D0DFF82C81DFF82C91049FAD
:101E78003146102F204628BF1027FFF71DFF4FF0CF
:101E8800000B5D4545DC059B49461A782046FFF75F
:101E980001FF4FF0010B1BF0070F03D1414620460D
:101EA800FFF7F8FE5F453BD9059B494613F80B2021
:101EB8002046FFF7EFFE0BF1010BBBF1100FEAD143
:101EC800364920464FF0000BFFF7E4FE5A46059BC3
:101ED8009A5CA2F120015F2928BF2E2230492046B2
:101EE800FFF7D8FE0BF1010BBBF1100F1DD01BF053
:101EF800070F03D141462046FFF7CCFE5F455A46FF
:101F0800E5D841462046FFF7C5FEEBE71F48554692
:101F1800A1E741462046FFF7BDFE0BF1010BB0E7F4
:101F280020492046FFF7B6FEC5E7059B3B440593CD
:101F3800049BDB1B04939AD1BAF1000F7FF41FAF07
:101F4800204609B0BDE8F04F06F0FEBE064A054936
:101F58002046FFF79FFE15E764D300087EC50008FA
:101F6800ECBC0008FCCB000879C50008A3C5000834
:101F7800B40C0020B00C002087C5000800BD000884
:101F8800A7C50008ADC50008A18D00086B8D000825
:101F980045520008BAC50008B2C50008BCC500080B
:101FA80048D30008B8C5000873B542F20F738B42D6
:101FB80028BF0B4605680F4A04460521684605F008
:101FC800ADFC63680C495B6806460B22284606F0A0
:101FD800ADFE63683246694628465B6806F0A6FE91
:101FE800636806495B681B22284606F09FFE02B01C
:101FF80070BD00BFF5D90008DAC50008BEC50008E5
:10200800074A00210123904206D8064A01B9012354
:102018001360054B1860704740085B000121F2E728
:1020280040420F00B00C0020B40C0020014B0360AC
:102038000020704714BD000810B5044604F0F6F9F6
:1020480003490246204607F0D7F8002010BD00BF1C
:102058001DC6000837B5134600220192054601AA9D
:1020680058680A2101F0CAFD019C4CB920EAE070C9
:102078000A2180FB010108F003FF204603B030BDB0
:1020880022460349284607F0D3F8019CF5E700BF2C
:1020980049C6000808B5034A034907F0ADF800200F
:1020A80008BD00BF39C7000840C70008F7B5174684
:1020B8000023054601AA0A21B868019301F09EFD94
:1020C8001749C6B2284607F0A5F8019C44B1224634
:1020D8001449284607F0ACF8019C204603B0F0BD2F
:1020E800042E09D910493246284607F0A1F8284697
:1020F80007F0D2F80124F0E77868FFF727FC021E02
:1021080007DA7A680949284607F092F86FF015044B
:10211800E3E7334612B22146204606F068FDDCE7C5
:102128006BC70008D1C70008F8C700080FC8000827
:1021380007B500230090694604488DF8043005F07F
:10214800E5F89DF8040003B05DF804FB278E00084D
:1021580010B5044604F04CF907490246204607F03A
:102168004BF82046054907F047F80548214605F091
:10217800E7F8002010BD00BF6EC800088DC8000831
:102188008D21000870B58EB004460D46D0F8A060C9
:1021980008F096FD034602F0C1FE214A2149105875
:1021A800214A002B18BF1A460092204A234684422F
:1021B80018BF0A4628461E4907F01EF8D4E90A2324
:1021C800CDE90023284694F90E30A289194907F071
:1021D80013F806A92022204604F004FCA36E164931
:1021E8000246284607F008F805A9204608F076FDBB
:1021F800024628B11149284606F0FEFF0EB070BD10
:10220800059B6422F11A4A430091B2FBF6F20C498D
:10221800CDE901622846324606F0EEFFEEE700BF40
:1022280008000000BAC5000897C8000834DD000897
:102238009AC80008A6C80008D2C80008E9C800085B
:1022480016C90008F0B5002591B00446294608AF24
:102258001C2209A808F0D0FF134E1A222021384664
:1022680008F0CAFF2146114805F06AF807AA4FF49A
:102278000061304608F026FD079A0097C2F5006114
:1022880064234B43DB0A05934FF40063CDE9031342
:10229800CDE90132204606492B46A6F1400206F058
:1022A800ABFF284611B0F0BDC01C0020BD220008BD
:1022B80067C9000870B50446D0F8A06088B00D461C
:1022C80007A908F00BFD024628B10F49284606F079
:1022D80093FF08B070BD204608F0F2FC079B0096FB
:1022E800F11ACDE90131094B64224A43002818BF8D
:1022F8000346B2FBF6F20649CDE9036228462246B8
:1023080006F07AFFE5E700BFE9C8000897C80008AB
:10231800B0C9000838B51346054610225868002190
:1023280005F09CFB0446FFF703FF38B90E49224627
:10233800284606F07DFF6FF0150038BD02F0EEFD6F
:102348000A4B1B589C4204D10949284606F070FFE5
:10235800F1E7204604F01EFD28460649224606F00D
:102368004BFF0020E9E700BF14CA0008080000007E
:102378002FCA000857CA000838B513460546102268
:102388005868002105F06AFB0446FFF7D1FE38B90A
:102398000E492246284606F04BFF6FF0150038BD5F
:1023A80002F0BCFD0A4B1B589C4204D1094928463F
:1023B80006F03EFFF1E7204608F0DEFC2846064915
:1023C800224606F019FF0020E9E700BF14CA0008FA
:1023D8000800000096CA0008BCCA000838B51346B1
:1023E800054610225868002105F038FB0446FFF71F
:1023F8009FFE38B90E492246284606F019FF6FF0AD
:10240800150038BD02F08AFD0A4B1B589C4204D1C6
:102418000949284606F00CFFF1E7204602F018FDAE
:1024280028460649224606F0E7FE0020E9E700BFF5
:1024380014CA000808000000F7CA00081CCB0008EE
:1024480010B50C46002107F0BAF900B10068034A3C
:1024580020600023C4E90123E36010BD3CCC0008E0
:1024680010B50C46002107F0AEF900B10068034A28
:1024780020600023C4E90123E36010BD3CCC0008C0
:1024880070B506465068154607F0A1F9044640B9EC
:102498006A681049304606F0CBFE6FF012042046F9
:1024A80070BD08F077FB30B16A680B49304606F01A
:1024B80095FE0024F3E7204608F063FB044630B19C
:1024C80003466A680549304606F0B2FEE7E76A68DF
:1024D8000349EBE754CB000869CB00088BCB000815
:1024E800B8CB00082DE9F04F8FB0044601A80F467D
:1024F800904604F02BF8019B2C4A03EB401B082163
:10250800204606F05EFE019D5D4503D300200FB016
:10251800BDE8F08F2E680EB1337833B9244A2B46C4
:10252800302102A805F0FAF902AE022F07D1D8F837
:102538000410304608F0B3FE08B92035E4E71D4A18
:1025480033460821204606F03CFE284608F022FBC8
:10255800194A1A4B0821002808BF1346184A204672
:1025680006F02FFEEB69002BE7D01E68002EE4D0A2
:102578003368002BE1D0134A0821204606F021FEDB
:10258800B2464FF0000933680F4A4B4505D80F4A49
:102598000821204606F015FECFE75AF8043F082127
:1025A800204606F00EFE09F10109ECE7EBCB000826
:1025B800F5CB0008FACB0008E2CB0008DCCB00081A
:1025C80062CB0008FFCB0008FBCB00084BC9000812
:1025D8001FB50C68D1E9043203944C6802948C68E6
:1025E8000194C96800910133034902F26C7206F044
:1025F80003FE04B010BD00BF86CC0008F7B5137801
:102608003A2B06460F46154614D1541C23783A2B0C
:1026180028D101340A2201A9204605F0A9F9019A16
:102628003860A242034617D01078A8B93C2B15D9B8
:1026380015490EE00A2201A9284605F099F9019CDE
:10264800B860AC4208D023783A2B05D1172807D9AF
:102658000E49304606F0ECFD6FF0150003B0F0BDF2
:102668000134D3E70A2201A9204605F081F9019B2C
:102678007860A342F0D01A783A2AEDD13B2801D9E4
:102688000349E6E75C1CC5E7C5CC0008A7CC0008F1
:10269800B5CC00082DE9F04190B00D46044602A9DA
:1026A80001201746FEF722FC07A902A805F088F8C2
:1026B800032D55D17D680A2201A9284605F058F94D
:1026C800019EB542804615D032782D2A12D10136A6
:1026D8000A2201A9304605F04BF9019B9E4209D018
:1026E8001A782D2A06D1451E0B2D0CD928492046CB
:1026F80006F09EFD204606F0CFFD6FF01505284632
:1027080010B0BDE8F0815E1C0A2201A9304605F030
:102718002FF9019B9E42EDD01B78002BEAD1431E76
:102728001E2B01D91B49E2E7A8F26C73CDE90B53C4
:10273800BA680A9007A92046FFF760FF0028D9D198
:1027480007A8FEF7DDFCB1F1FF3F08BFB0F1FF3F7E
:10275800CDE9020108D11049204606F069FDCCE711
:10276800022DC7D17A68E5E700230493012002A966
:10277800FEF7F2FB054628B102460849204606F056
:1027880057FDBAE707A92046FFF722FFB7E700BFC2
:10279800D5CC0008E4CC0008F1CC00081ACD00081C
:1027A8002DE9F0411446884607461022606800214A
:1027B80005F054F9B8F1020F064606D8244920223C
:1027C800384606F019FD326815E00A220021A06893
:1027D80005F044F9C5B21E492A46384606F00CFDF4
:1027E800B8F1030F19D1102D0CD0202DEBD0082DE6
:1027F8000BD13278D2B217490023384606F0FCFCD8
:10280800002008E0328892B2F5E73846124906F00F
:10281800F3FC6FF01500BDE8F081E068102200219C
:1028280005F082F90B4602460C490446384606F084
:10283800E3FC102D06D0202D07D0082DE5D1E4B2F9
:102848003470DDE7A4B23480DAE73460D8E700BF3B
:102858005FCD00088ACD000874CD00089DCD000822
:102868002DE9F04F87B000230193544BDFF850A1B6
:1028780091460122074688461A60FEF799FC4FF0F8
:10288800FF3620253446524649464046FEF7B4FCFA
:10289800431C06D1711C41D14A49384606F0C8FC90
:1028A80017E073281AD0772828D0612811D1DFF8CB
:1028B80018B101AADBF80000102101F09FF9019B73
:1028C8000646002BDFD0DBF800204049384606F0EA
:1028D800AFFC6FF0150007B0BDE8F08FDFF8E8B087
:1028E80001AADBF80000002101F088F9019B0446E9
:1028F800002BC8D0DBF800203549E7E7DFF8C8B07F
:1029080001AADBF80000002101F078F9019B0546D7
:10291800002BB8D0DBF800202E49D7E7621C01D184
:102928002D49BAE7EDB2A5F10803DBB2182B0ED892
:102938002A4A22FA03F3DB0709D54FEAD508002C07
:102948003AD002AB30461A46A8EB060C0FE02449F1
:102958002A46384606F050FCBBE7102D1BD0202D28
:102968001FD0082D01D10178197040444344A04577
:1029780003D80CEB00011029EFD9102CA14628BF71
:102988004FF0100931464B46384601F01FF8103613
:10299800A4EB0904D3E7018889B21970090A5970B0
:1029A800E3E701681970C1F3072E090C9970090A49
:1029B80083F801E0D970D8E720468CE71C00002096
:1029C800EDCD0008F4CD0008100C0020B3CD0008B0
:1029D800C6CD0008D9CD000811CE000801010001BC
:1029E8002BCE000870B5104E044633780D4671B1F1
:1029F80023B1BDE870400D4906F01ABC01233370BD
:102A08000B49204606F0F8FB0123337004E083F0FD
:102A180001033370002BF3D1294620460022BDE87C
:102A2800704006F053BC00BFB210002045CE00082D
:102A380080CE00082DE9F041DFF8F0803C4E0546D5
:102A48000C468F18A74201D1BDE8F08198F8002004
:102A580014F8013B182A22D1112B20D1354C3649C4
:102A680022680026284688F8006006F0C5FB28463C
:102A78003146FFF7B7FF314B18780028E4D1304AC8
:102A880023681168042B2EDC08B12360116013F051
:102A980003012FD1126813681BBA1360D4E7A3F19E
:102AA8003002092A88F8003004D923F02002413A7C
:102AB800052A04D83168234A5354013131603368F8
:102AC800022BBFD110221F48002104F0C7FF1E4A65
:102AD800136803F8010B1360164A13680133136077
:102AE80000233360AEE7086800BA41F8040B043BE2
:102AF8000120C7E75B4203F0030358BF594202298C
:102B080004D1126813885BBA9BB2C6E703299BD12C
:102B1800106802681104C2F3074301F47F010B43F4
:102B280002F47F42134303608EE700BFB310002016
:102B3800B80C0020BC0C0020AACE0008B41000205D
:102B4800C00C0020B5100020C40C00202DE9F84F5F
:102B58000C462B49DFF8AC80DFF8AC90DFF8ACB05E
:102B680000230B602A4988F8003006460B6015469A
:102B7800012C2F4655F804AF1ED90222494650466B
:102B880008F05FFB80B99AF80220003A18BF0122CA
:102B9800924420490222504608F053FB30B90123E1
:102BA80088F80030013CE3E70022F1E74946504647
:102BB800FDF758FBA8B9043700221146786804F0DD
:102BC8004DFF154B002211461860786804F046FF47
:102BD800124B134918603046FFF704FF0020BDE888
:102BE800F88F9AF800202D2AE6D19AF80120002AB9
:102BF800E2D052465946304606F0FEFAD2E700BF08
:102C0800B80C0020B4100020C4CE0008CACE0008BA
:102C1800BC0C0020C7CE0008C40C0020C00C00204B
:102C28003D2A000807B50A4807F0B4FF60B1094A11
:102C380007491268084804230093012300F02CFF79
:102C4800002003B05DF804FB6FF01200F9E700BF45
:102C580098B5000830BE000874B9000810B544687B
:102C6800C4E90012A36042681346402153F8404B60
:102C780053625163002302F13801C2E90413C2E927
:102C88000A33C2E90633082113631162C2F8B83067
:102C9800A36823B19B6C13B1044920469847A368E5
:102CA8009B6A0BB120469847002010BDB92C00083C
:102CB8002DE9F34705460C4683685B6C03B19847DA
:102CC800AB685B6B73BB4FF0000904F1240704F198
:102CD8002808218E238D626B5B1A9BB2D31A93420C
:102CE80028BF1346414601AA384605F02FFE824602
:102CF800002844D0AB6801999B69002B33D0024669
:102D080028469847064688B332464146384605F075
:102D180053FE56454FF00109DBD0D4E901310020BC
:102D2800984703E0284698470028CCD1AB685B6AEF
:102D3800002B37D1628BE38A9B1A226A9BB293429B
:102D480004F1100704F11A0828BF1346414601AAE6
:102D5800384605F0FBFD064658BB284606F087F8BE
:102D6800C4F8B86031E06FF05706CDE70246414637
:102D7800384605F021FEB9F1000FD7D0CDE7174846
:102D8800036813F0060F03D0154A022105F0BBFFB4
:102D9800AB689B69002BEED001220DF10301284698
:102DA8009847E8E7284698470028C3D102B0BDE80D
:102DB800F087AB6801995B6963B10246284698477A
:102DC80002464146384605F0F7FDD4E901310120B5
:102DD8009847EBE76FF05702F3E700BF00010020C8
:102DE80031D0000810B581680446183101F096F911
:102DF800A168034A20461831BDE8104001F02AB9FD
:102E080073D0000838B58368D3F88032DB050446F0
:102E18001DD4C06907F01EF8606803685B689847AE
:102E2800054620B9E06807F01EFAA3681D75A36877
:102E38005B6C13B1294620469847A36802F06EF8E8
:102E48000022C3F8A022034B185802F001F86FF0D3
:102E58000F05ECE708000000014906F08EB800BF36
:102E68004BC900082DE9F04FA7B0044654220021B1
:102E780011A808F0C1F90023CDE90533A36820465D
:102E88005C33029306F0BEFD204606F002FD10B941
:102E98006069FFF7E1FFA06814220021183008F0EC
:102EA800ABF9204606F050FCA168E068B1F8542060
:102EB8005C31002607F09CF9204607F0FDF94FF039
:102EC800FF38B246039611AFB3463546B146DDE941
:102ED8000532012A6CD0132B6DD8B8F1000F2BD115
:102EE800BBF1000F0AD0204607F007FAA2681423A6
:102EF8005C3211A90DEB030006F0A5FAB9F1000F39
:102F08000CD099F81130FE2B08D1059B26AA02EBAC
:102F1800830252F8542C0AB101330593A068059D29
:102F2800436A002B40F0B580C6B1C3699E422BD0DE
:102F38000D9600F1180522E0029A0223394606A8E8
:102F480006F081FA06997A680292034631B101299E
:102F58000AD148B1694A204606F003FE6FF007051A
:102F6800284627B0BDE8F08F059B002B32D0386883
:102F780001F002F998B166B1A5680D9618350CAE46
:102F88000FCE0FC533682B602046FFF72BFF0125B6
:102F9800E6E75B4A0121204606F0E3FDDEE7059BF4
:102FA800C3B13A682946204601F088FA022809D1B7
:102FB800059B132B94D9069B022B91D1514B524A56
:102FC8000121C8E7032805D0059B013305934FF07D
:102FD800010B7CE7039B2BB9396807AA484606F022
:102FE80029FB0546043708F1FF38A5B3EB68BBF1A8
:102FF800000F08D0FBB1204606F004FD204606F07D
:103008005FFC424AC6E7B3B1A368DDF814A0AE4638
:1030180003F1180CBEE80F00ACE80F00DEF8003032
:10302800CCF80030AB6833B96B7CFE2B04BF95F845
:10303800108008F1FF38D5F804C0BCF1000F08D0A3
:10304800AE46BEE80F000CAE0FC6DEF800303360A7
:103058006646A94603E0059B63B101230393069BDB
:10306800B8F1000F02D1022B7FF431AF059B013379
:1030780005932CE7A368DB6A13B1DB68002BECD15E
:10308800234B0093234A119B0121204606F069FD3A
:10309800E3E790F82830A5EB0A05BBB190F82910B2
:1030A8004FF6FF72FF2918BF0A469D4202D3134408
:1030B8009D420BD98369184A0121204606F051FD2B
:1030C8002046FFF78FFE6FF0150549E7012105F04F
:1030D80073FFA06805F064FFA36811AA29465B6A1C
:1030E80002EB8A02204698470546A06805F05CFF77
:1030F800A068002105F060FF32E700BF81D000081A
:1031080095D00008F6D000082AC80008B3D00008F7
:10311800E2D00008DFD300081AD10008F7B504464A
:1031280080680D46817D002949D1D0F880325A0542
:1031380004D505F04CFFE06807F02CF8E368DB687D
:1031480073B9002D3BD0A66806F15C07384605F038
:1031580021FF002835D0394606F5AE70FDF78CF80A
:10316800A268E0680DF106035C32294607F015F8FD
:1031780058B9A06800F5AE715C30FDF77DF8A0681D
:103188005C3005F007FFADF80600204606F033FC7A
:10319800A368D3F87C329B0603D50B49606905F018
:1031A800ECFE204600F090FDA268BDF80630A2F8BB
:1031B8005630A2682046A2F8543006F081FB03B0CE
:1031C800F0BD86F85C01CBE720BB000810B583682A
:1031D80002221A7583689B6C0446BBB905F0A4FEED
:1031E8008368D3F88032DB040BD50321084B094AE6
:1031F80006F0B7FCA0686FF4805100F5207005F068
:10320800ADFE2046BDE8104000F0E4BE10BD00BF92
:1032180035D10008FCCB00082DE9F04FB1B00023F0
:1032280004460993A3686068D3E9126703681D69B7
:1032380009AB0EB310221BA9A847099BCBB10121EA
:10324800A06805F0B9FEA06805F0AAFE3B46099AF9
:103258001BA92046B047A06805F0A6FEA06800217B
:1032680005F0AAFEA3689B6C002BDBD12046FFF774
:10327800ADFF31B0BDE8F08F01220DF12301A84761
:10328800099B002BF5D09DF923209DF82330A068D9
:10329800002AC7DB427D032A00F21583DFE812F01B
:1032A80004009502AC0213030D2B5FD00A2B43D008
:1032B800B0F88022092B6FF30702A0F8802278D09B
:1032C80029D8002B00F00C81082BA06800F0F281AF
:1032D8000246D2F87C12890740F10281013B162B85
:1032E80000F2FE80DFE813F0D80203020702FF01B4
:1032F800D2022002FC00FC00FC00FC002402280290
:10330800FC003D02FC004202FC00FC00FC00440200
:103318005402FC0069021B2BA06847D07F2B00F0E9
:10332800D581A3F120015E290246D2D8012105F0FA
:103338004EFE9DF82310C1E0D0F88022D2B222B10F
:10334800D0F88022D2B20A2AC2D1B0F8802263F320
:103358000702A0F88022A568AB7D012B10D1606917
:10336800FFF77AFDA36802229A7582E7D0F88022D7
:10337800D2B2002AE9D0D0F88022D2B20D2AE3E7EF
:10338800B5F8541061B9284605F021FEE06806F04A
:1033980001FF6069FFF760FD2046FFF717FF41E76F
:1033A8002046FFF75FFDC5F8A402F5E70123437542
:1033B80096E0A068D0F87C329B0740F1918001210B
:1033C80005F005FEA068857D002D40F08980B0F8E5
:1033D8005430FF2B00F08480B0F8562000F15C01D7
:1033E80000F5AE7007F0E0FEA368B3F8562013446A
:1033F8001BA983F85C51A268142302F5AE720BA8CE
:1034080006F021F80B9914296AD830AB03EB810335
:1034180043F8545CA368B3F85620002A52D01344EA
:1034280093F85B30202B02D0093B042B4AD80029A3
:103438004BD100250A950A9B30AA02EB830300268C
:1034480053F854AC504605F0A5FDB3468146B04646
:10345800374616AA3946284600F096FB0346002848
:1034680042D1012E68D10A9B30AA02EB830353F89C
:10347800540C05F08FFDA2680646183241462846CE
:1034880000F082FB0568284605F084FD864205D0D9
:10349800821B92B2A919204606F0AAFBA068B0F8D0
:1034A8005630034493F85C30202B34D0093B042B6E
:1034B80031D9D0F87C32DF0732D42021204600F001
:1034C80051FD0DE00129B4D9013900200CAB00935E
:1034D80001900AAB1BAA06F0D8F805460028AAD125
:1034E800606905F0FEFE9DE61B6803934A46514657
:1034F800184607F0A6FE60B9039B1846FCF7C4FE01
:10350800584538BF58461FFA80FB002E08BFB846FA
:10351800013601379DE70121204606F005FADFE76D
:10352800002105F05FFD2021204600F01BFDA0686A
:10353800012105F057FDD3E70490D1D90A9A30ABA1
:1035480003EB8202C24652F8543C0393184605F036
:1035580021FDA268049B0590A2F840300496A26859
:1035680051461832284600F00FFB039BD0F8009014
:103578000AF1010A4BB1B9F1000F06D0059A1946B4
:10358800484607F05EFE0028E9D1A168B9F1000FAE
:103598004ED1A1F84090049B013B0493DFD16069B0
:1035A800FFF75AFC204600F015FD0A9B30AA02EBF3
:1035B800830308F1010A53F8540C05F0EBFC41466B
:1035C80011AA8146284600F0DFFA0746A068396844
:1035D800FF2200F5AE7007F046FE3B6803934FF6F6
:1035E800FF77B84616AA514628460AF1010B00F0A3
:1035F800CBFA002852D0A168036801F25B110022BF
:1036080011F801EF985C704503D110B101324245C1
:10361800F6D1B9F1000F01D04A4507DBBA4206F1ED
:10362800FF36A8BF3A46012E97B237D0DA46D9E717
:10363800A648069105F0AEFC069907914A8F00EB63
:103648000B07BFB2121A484692FBF7F292B20692E3
:1036580005F0A0FC0799069A3F1AB1F8400000F15E
:10366800010CA1F840C0B0FBF2F102FB110080B2DE
:10367800BFB260B9954B964ACDF800900621204616
:1036880006F06FFA3946204600F008FB83E7914AB6
:103698004B460621204606F064FAF3E7002F3FF474
:1036A8001FAF0399A7EB090292B24944204606F0DE
:1036B8009FFA15E7D0F87C329E077FF511AF0121FC
:1036C80005F085FC204606F0B4FA09E7D0F87C320C
:1036D8009D077FF505AF012105F079FCA368D3F8B4
:1036E8007C321807EED4204606F084FAF8E6204625
:1036F80006F091F9F4E6204606F084F9204606F033
:10370800C8F810B96069FFF7A7FBA068012105F0A8
:103718005EFCA3689A7D012A02D103229A75DFE62E
:103728002046FFF753FDDBE6204606F07DF9D7E695
:10373800204606F084F9D3E6D2F87C329F0603D5FA
:103748006549606905F019FCA368D3F87C329E06C8
:1037580003D56249606905F010FC204600F03AFC88
:10376800BEE600212046FFF7D9FCB9E60121F9E7BA
:10377800E06983681B79012B02D106F06BFBAFE689
:10378800022B7FF4ADAE126D214606F04CFBA7E686
:10379800204606F030F9204605F0C6FB0121A06856
:1037A80005F015FCA368D3F87C329D067FF598AE2A
:1037B8004B49606905F0E1FB92E6204600F0FEFA0D
:1037C800A068012105F003FC8AE65B2B01D10223E6
:1037D800EDE5D0F87C22900706D5622B08D14FF092
:1037E800FF31204606F0C9F8A36800225A7577E62B
:1037F800662BF9D10121F4E700224275A268D2F8BC
:103808007C1289077FF50EAD313B1B2B3FF668AE66
:1038180001A151F823F000BF9D380008A93800081D
:10382800BD38000891380008E9340008E934000878
:10383800E9340008E9340008E9340008E9340008EC
:10384800E9340008E9340008E9340008E9340008DC
:10385800E9340008E9340008753700086B370008B8
:1038680031370008F7360008E934000895380008B1
:10387800E9340008A1380008E9340008E9340008F0
:10388800E9340008AD38000803235375204606F0D4
:10389800B9F825E603235375204606F0ACF81FE671
:1038A80003235375A068D0F87C1201F0010181F060
:1038B80001013EE603235375A368D3F87C329B07C6
:1038C8007FF50EAE0FE7002371E500BFB9C500080C
:1038D80079D10008FCCB000825BB00082ABB0008EA
:1038E80020BB00082DE9F34104468068154600F521
:1038F800207000293AD04FF4804105F020FBA368DE
:103908001D656068036800219B68984798BB20463E
:1039180005F0E3FB78BB194DDFF864804FF0FF3604
:103928004FF0FF37A06800F5217000220721CDE98C
:10393800006707F036FCA06805F036FB2A4604212C
:10394800204605F0AEFB42460121204605F0A9FBC2
:1039580020460C4A022105F0A4FB606803685B69F5
:1039680003B19847A06805F01BFBDBE76FF48041C3
:1039780005F0F4FAC3E702B0BDE8F0810D2E0008A7
:10398800799000080B90000810B50B49044605F023
:1039980033FC2046094905F02FFC2046084905F06C
:1039A8002BFC2046074905F027FC2046064A002143
:1039B80000F050FB002010BD7FD10008BDD10008E9
:1039C8001CD2000870D200080BD30008F8B51746BF
:1039D8001E460A462949044605F00EFC3EB33A78CD
:1039E8002749204605F008FC01256A0703D1254927
:1039F800204605F001FCAE421ED97A5D20492046DA
:103A080005F0FAFB0135102DEFD11F49204605F0CE
:103A1800F3FBB6B91B49204605F0EEFB0125AE4283
:103A28002B4610D81749204605F0E6FB15E0174944
:103A3800204605F0E1FB01251449204605F0DCFB92
:103A4800E0E700252B46FA5C1149A2F120035F2B21
:103A580028BF2E22204605F0CFFB0135102D06D0B9
:103A68006B07DCD10749204605F0C6FBD7E720469F
:103A78000849BDE8F84005F0BFBB00BF21D30008E6
:103A8800B2C50008BAC50008BCC50008B8C500081A
:103A980048D3000828D300082DE9F041044680687F
:103AA800D0F8A06288B0884615461F46002E50D12F
:103AB8004FF42A72314607F09FFBA06800F5217089
:103AC80007F063FBA06800F524700122114607F097
:103AD800E5F8A3691E60A0684FF4007100F5207036
:103AE80005F02DFAA36850225A87A36818221A876E
:103AF8002168204605F0AAFBA368174A66F38205E9
:103B0800C3F87C526068036841461D682346A8478D
:103B18000546D0B9A36801221A75D4E90A01002222
:103B28000023CDE906230E2303930E9B0495CDE9CC
:103B380001730094094B4FF4006203F011F8A36875
:103B4800C3F8A002616A02F03DFF284608B0BDE84C
:103B5800F0816FF07705F8E765900008ED38000808
:103B680010B5044613460A460146064801F066FBAE
:103B780023691B7923B12046BDE8104005F0B1BB8D
:103B880010BD00BF0393000838B50B46154648B969
:103B98001449154A521AB3EB920F05D251F8235023
:103BA800284638BD84680CB90025F9E70F4A9442C5
:103BB8000AD30F4A944207D21846226829469047EA
:103BC8002B68002BECD1EFE70A4A944202D30A4A49
:103BD800944205D3246814225343E518E358F0E7C8
:103BE8000133F8E7A4B90008D4B90008ECBA000812
:103BF800F4BA0008D4B90008ECBA0008F7B503789D
:103C08002D2B0446164605D16FF0150333600020AE
:103C180003B0F0BD01F082F90B4F00230546C351F4
:103C28000A46204601A903F019FFEB59222B02D1BD
:103C38006FF02103EAE7002BE6D1019BA342E3D012
:103C48001B78002BE4D0DFE70C0000008368D3F872
:103C58007C329B0603D50249406905F0FBBD7047DD
:103C680030BB0008014905F0F5BD00BF4BC900088D
:103C78000A1E0DDC0ED042238168D1F87C12890619
:103C880008D5002A04494069B8BF524205F0E2BD90
:103C98004123F1E7704700BF44D300080A1E0DDC3A
:103CA8000ED044238168D1F87C12890608D5002AF1
:103CB80004494069B8BF524205F0CCBD4323F1E73F
:103CC800704700BF44D300082DE9F0478568DFF846
:103CD8006890044605F15C00FCF7D6FA002395F8D5
:103CE8003C7086B29846A268558FED1BB54209DB39
:103CF800002E1FDD5C3360691049BDE8F0471A44A7
:103D080005F0A8BD1D442A445C3392F85CA082F8F3
:103D18005C80A26860691A44494605F09BFDA36867
:103D28002B4483F85CA0A3685B8FDB1BF61A002783
:103D38002B46D8E7BDE8F0872AC80008FCCB000866
:103D480008290A4617D8836893F83E10914212D082
:103D580083F83E208368082AD3F87C3205D0990678
:103D680009D50549406905F075BD9B0603D503498A
:103D7800406905F06FBD70474BD3000835BB00089C
:103D880038B50D4609780446FFF7DAFF6A78072A3E
:103D980011D8A36893F83F1091420CD083F83F20C4
:103DA800A368D3F87C329B0605D560690249BDE853
:103DB800384005F04FBD38BD54D30008F8B58368C6
:103DC800B3F854200446002A55D0B3F856100029F9
:103DD80051D05B3103F15C050B441846A84206D369
:103DE800014611F80169202E3CD0A8423CD286B287
:103DF8009DB2AB1B9BB2591C471CD21A01443846D2
:103E080007F0E0F9A268B2F85430711B13FA81F395
:103E1800A2F85430A368B3F854201344002283F85E
:103E28005C2009B2204605F07FFDA368D3F87C32F8
:103E38009A0603D51049606905F00CFD3B460F4A08
:103E48000821204605F08DFE2046FFF7FFFEA368F7
:103E5800D3F87C329B060ED560690949BDE8F84065
:103E680005F0F8BC0846B9E7014611F80169202EAB
:103E7800BDD00846B9E7F8BD3ABB0008FCCB00083E
:103E88003EBB00082DE9F84F04460F4690460AB19C
:103E9800FFF7DCFEA668D6F87C32B6F856505B070A
:103EA80024D505F15C003044FCF7EEF92A4E0546AE
:103EB800B5B9A368B3F85420A3F85620A06805F054
:103EC800D6FC30B1B8F1000F00D017B16069FFF728
:103ED800C9FE7942204609B2BDE8F84F05F024BD75
:103EE8006069314605F0B6FC013DE1E73046FCF774
:103EF800CBF9B6F85490738F19FA80F915FA80F057
:103F0800B0FBF3F2B9FBF3F39A42AA461BD0134D68
:103F1800A3684845CDDA5A8FB0FBF2F302FB1303CE
:103F2800461C13B96069FFF79DFEA36853442046F9
:103F380093F85C300AF1010B2A46082105F011FEBE
:103F4800DA463046E4E75C35054A7319082120460D
:103F580005F007FEADE700BF34DD000848D30008D0
:103F6800FCCB000813B583688DF80710D3F87C22C2
:103F78000446D00725D5B3F85610B3F854208A4222
:103F88001FD0481CA3F856000B449DF8072083F85F
:103F98005C20A368D3F87C12890710D5D3F87C324B
:103FA80060690B4913F0040F18BF2A2205F052FC70
:103FB800204605F06EFC10B16069FFF753FE02B0B1
:103FC80010BD01220DF10701204605F0D7FDF6E7E7
:103FD80048D3000810B583689A7D04461AB9094A7F
:103FE800022105F0BEFDA368D3F87C329B0707D5F4
:103FF8002046FFF769FE2046BDE8104005F06FBC7B
:1040080010BD00BFFCCB0008014905F0ABBF00BFE5
:104018004BC90008F8B50F465168044615461E46B8
:1040280011B11A4605F0ABFFAB6883B131462046A3
:10403800FFF734FE2046064A3B46082105F091FD6D
:10404800A968F21D2046BDE8F84005F098BFF8BD04
:104058005DD300082DE9F04F0E46002189B00446D3
:1040680017460D4603AA304601F10108FFF78CFDFB
:10407800A8B98DB127B13A460821204605F071FD4F
:10408800DFF88C90DFF88CB0002103AA304601F1EC
:10409800010AFFF779FD60B909B0BDE8F08F006843
:1040A80010B1FCF7F1F880B2854238BF05464146A9
:1040B800D8E7D0F80080B8F1000F0FD098F800309A
:1040C80063B14768144ACDE900584B460821204699
:1040D80005F047FD27B96069FFF796FF5146D4E719
:1040E8004B4620465A46082105F03BFD384605F068
:1040F80027FFAB1D9BB228B13A4641462046FFF741
:1041080089FFEBE71A463946204605F038FFE5E710
:104118007DD30008ADC5000868D30008F7B50F685F
:1041280005460E46D7B13846FCF7AEF884B2104BB8
:10413800009308213B4628460E4A05F012FD716897
:10414800084605F0FDFEE31C9BB248B10A463168FB
:10415800284603B0BDE8F040FFF75CBF3C46E6E701
:104168001A46284603B0BDE8F04005F008BF00BF76
:1041780079D300087AD1000810B507490446FCF73E
:1041880071F838B105492046FCF76CF8B0FA80F0B0
:10419800400910BD0120FCE76FD3000872D3000866
:1041A80010B58368D3F87C329B06044603D50649CC
:1041B800406905F054FFA36850225A87A368182263
:1041C8001A87002010BD00BF42BB000808B58369EC
:1041D80002491A6805F010F8002008BD80D30008CD
:1041E8002DE9F3410D490E4C0E4EDFF83C80054693
:1041F80005F002F80022B44202F1010703D30020BF
:1042080002B0BDE8F081636A0093A36892B24146A8
:10421800284604F0F1FF30343A46ECE790D3000822
:1042280074B90008A4B90008A8D3000808B5024961
:1042380005F00CF8002008BD4CC9000873B50E4EF7
:1042480004460025A268E0680DF1060302F5AE7287
:10425800012105F0A2FFBDF80600A36840B12A4677
:1042680003F5AE733146204604F0C6FF0135E9E791
:1042780083F85C0102B070BDB9D3000810B50446DC
:1042880005F01CF803490246204604F0B5FF00205B
:1042980010BD00BFC0CE0008022907B50BD1536876
:1042A800009312680B4B0C4904F0C2FF6FF0150025
:1042B80003B05DF804FB8368084AD3F87C320849E8
:1042C80013F0020F074B18BF1A4604F095FF0020A1
:1042D800EEE700BFC7D30008DCD30008C3D300084B
:1042E800E5D3000858C7000810B58368D3F87C32B6
:1042F8009A06044603D50749406905F0B0FEA3684D
:10430800D3F87C329B0603D50349606905F0A7FE04
:10431800002010BD49BB00084EBB0008F0B50129BC
:1043280085B004460AD05368009312685D4B5E4915
:1043380004F07EFF6FF0150005B0F0BD8368D3F878
:104348007C32990603D55949406905F088FE6FF01B
:10435800F9012046FFF78CFCFA212046FFF79EFC66
:10436800A06800254FF48072294600F5AE708DF8DC
:104378000B5006F041FF4E49606905F070FE606918
:1043880004F0AFFF4FF47A766068036801221F6972
:104398000DF10B0103ABB847039BEBB9013E4FF49A
:1043A8007A70B6B206F0C7FB002EEDD1A368D3F839
:1043B8007C329B0603D53F49606905F050FEA3682F
:1043C8003D4950225A87A368182220461A8704F0CC
:1043D80021FF6FF00700AFE79DF80B20A3681B2AA9
:1043E80053D093F85C111B29CED1522A4DD15A19BA
:1043F800002382F85C31A66896F85D215B2A2BD1F0
:1044080006F25D10022510F8011F2A463B2905F126
:104418000105ADB223D1FF2AC8D002F5AE7216FA53
:1044280082F1002211F8010F18BB86F85C01FA2A04
:10443800A16828BFFA224A87FA2BA26828BFFA2364
:104448001387A368D3F87C329A0603D519496069A3
:1044580005F005FE00206FE786F85C31A6E703EB60
:104468008303303901EB4301B5F5807F8BB2CAD1A4
:104478009CE7013502EB8202ADB2303800EB420016
:10448800B5F5807F82B2CDD190E72B440135ADB22E
:10449800092D83F85C217FF677AFA368002283F8A3
:1044A8005C2183E7C7D30008DCD3000854BB0008AD
:1044B80030D4000858BB0008F6D300082DE9F04FA7
:1044C800074689B01546894621B1104605F0E0FE39
:1044D80000285BD1032455E05C463CE029460AF5F8
:1044E800AE7006F0DCFE0646002854D0FBF7CCFE82
:1044F80082B2601C01323146304406F063FE224627
:104508005946304606F050FE4FF020033355BAF8AE
:10451800583001331C44AAF8584008F10108002417
:1045280001994B1C03AA48460193FFF72DFB064649
:10453800E8B131680022284605F040FF0028EFD195
:10454800D6F800B0D7F808A0BBF1000FC4D0584681
:10455800FBF79AFE84B2BAF858302344FF2BBDDD2E
:104568000E4A2B460321384605F0FBFA0124B8F120
:10457800000F07D0B8682A4600F1580100F5AE7060
:1045880005F031F8204609B0BDE8F08F4FF000087B
:1045980041460224C5E70224E9E700BFF8D800082D
:1045A80008B50348034A0021121A05F0B6FE08BDF3
:1045B80038010020D81000200748084A084908B5E3
:1045C800121A05F0ACFE0748074A0849BDE808403A
:1045D800121A05F0A4BE00BF000000203801002018
:1045E80020E00008000000200000002020E0000873
:1045F8002DE9F843054600AF0C46002948D0DFF8FE
:10460800B890D9F800305A0742D06E468AB0D1E93E
:104618000001A3686A46DFF8A4C04FF00508C2E9A4
:1046280005C0C2E9071342F8108F00234FF4215147
:104638004846FDF743FAD9F800305B07B54627D05E
:104648008AB0D4E9030163696A46DFF874C0C2E935
:104658000713C2E905C042F8108F002348464FF4FB
:104668002151FDF72BFAD9F800305807B5460FD07D
:10467800E3690121134A484604F04EFBD9F800309B
:10468800590705D0A369104A0121484604F044FBA4
:10469800012D0AD1EFF3058307480268520704D0B9
:1046A8000A4A103B294604F037FB2146284601F008
:1046B8006BFFBD46BDE8F883F40000204AD9000826
:1046C80079D90008A8D90008B7D90008E5D90008A1
:1046D80030BFFFF7FDBF00BF2DE9F0410B4EDFF8FB
:1046E800308006EB0807CC1B0546324609492046B0
:1046F80006F05AFDA01942460021083C06F07CFD50
:10470800C5F8AC4007F10800BDE8F08100000000E2
:1047180008000000F4BA0008F8B5374C23685B07B6
:1047280006460D4603D03549204605F005FE344BB4
:104738009B6ADF0451D52368580703D031492E48B6
:1047480005F0FAFD17202E4B9B6A190507D523683B
:104758005A0703D02C49284805F0EEFD1820284FA9
:10476800BB6A9B0519D52368580703D027492248F7
:1047780005F0E2FDBB6BBA6A11040DD52268520739
:1047880004D0234A1C48012104F0C6FA26B11C4A69
:10479800936A23F4004393621920194B9B6A5B05C3
:1047A80007D523685F0703D01A49134805F0C4FDED
:1047B8001A20134B9A6AD60511D52368590703D0D6
:1047C80015490D4805F0B8FD1B200D4A936A43F4BE
:1047D8007F43936200232B70F8BD1620B3E79B6AD2
:1047E8009A04F2D523685B0703D00C49024805F008
:1047F800A3FD1C20E9E700BFF4000020F8D9000859
:1048080000ED00E00EDA00081FDA000832DA0008CE
:104818004BDA000860DA00087BDA000893DA00084F
:1048280010B52D4C23685A0703D02C49204605F0B3
:1048380083FD2B4B9B6A9B014BD52368580703D0FC
:104848002849254805F078FD1E20254B9B6AD9018B
:1048580007D523685A0703D023491F4805F06CFD84
:104868001F201F4B9B6A1B0307D52368580703D0DB
:104878001E49194805F060FD2120194B9B6A590310
:1048880007D523685A0703D01949134805F054FD82
:104898002220134B9B6A9B0307D52368590703D033
:1048A80014490D4805F048FD23200D4B9B6ADA0397
:1048B80007D523685B0703D00F49074805F03CFD7F
:1048C8002420074A936A6FEA03436FEA134393620B
:1048D80010BD1D20B9E700BFF4000020C2DA0008AF
:1048E80000ED00E0DADA0008EDDA000807DB00087E
:1048F80025DB00084ADB000864DB00082DE9F047E7
:10490800454D2B68894659078046174603D04349C9
:10491800284605F011FD424B9B6ADA0639D52B680B
:104928005B0703D03F493C4805F006FD11243C4B8A
:104938009B6A1E0707D52B68580703D03A493648A3
:1049480005F0FAFC1224DFF8D8A0DAF82830990725
:1049580021D52B685A0703D034492F4805F0ECFCC1
:10496800DAF83460DAF828301B0651D52B685C0772
:1049780005D02F4A28483346012104F0CDF9B9F172
:10498800000F04D0264A936A23F08003936213240D
:1049980003E01024CBE76FF01506214B9B6AD8077C
:1049A80007D52B68590703D022491B4805F0C4FCDA
:1049B80014241B4B9B6A9A0607D52B685B0703D008
:1049C8001D49154805F0B8FC1524154B9A6AD506FB
:1049D80002D49A6A90070AD55B68190507D541463B
:1049E800304600F0E7F910B180F3098802240C4B37
:1049F8009A6A920642BF5A6A22F400525A629A6A26
:104A080042F0FF029A6200233B702046BDE8F0871F
:104A18006FF01506BBE700BFF40000208FDB00082D
:104A280000ED00E0A5DB00081FDA0008D8DB00086D
:104A3800F0DB000806DC000893DA00082DE9F041F5
:104A4800744B8AB0D3F8048000AF0446C8F3080654
:104A5800002585F31188BFF36F8F02F07F43B3F110
:104A68007F4F0AD102F00C03082B15D16A4803685E
:104A7800590702D0694905F05FFC00252C46002340
:104A8800FB71F31E092B00F29F80DFE803F00A9107
:104A9800948D9D9D9D9D9D9712074CBF0C460125A9
:104AA800EDE75D4E33685B0703D05D49304605F09E
:104AB80043FC0023FB71574BDA6A900708D533682B
:104AC800590703D05749544805F036FC00233CE009
:104AD800DA6A002A04DA33685A07F7D05249F2E74B
:104AE800DB6A5B00F2D53368580703D04F494A4860
:104AF80005F022FC474BA1695A6942F480725A6159
:104B0800BFF34F8FBFF36F8F5A6931F8021C22F43D
:104B180080725A61BFF34F8FBFF36F8F4DF60272E9
:104B2800914208D09A6AD2B28AB3FA1D012120466E
:104B3800FFF7E4FE3AE03368590705D023683C4A9A
:104B48003548012104F0E8F82368FA79DAB907F161
:104B5800080604F1200C20686168324603C2083454
:104B680064451646F7D17A6A002D4DD0C2F3080184
:104B780021B96FEA52226FEA42227A6207F10801EC
:104B88001846FFF735FD2837BD46BDE8F0819A6A1B
:104B980012F47F4F04D0F91D0120FFF7BDFD05E099
:104BA8009B6AB3F5803F91D3FFF73AFE0346CCE703
:104BB800FA1D0021BBE7F91D0020EEE7164803683F
:104BC8005A0783D01B497FE7134803685B073FF404
:104BD8007DAF194A194B18F4F87FE8468AB018BF18
:104BE80013466A461649C2E905134FF40073138445
:104BF800103E144BD66142F8103F00234FF4115178
:104C0800FCF75CFFC54661E722F4FF7222F001025F
:104C1800B3E700BF00ED00E0F400002053DC00081B
:104C28007EDC000895DC0008B6DC0008C4DC00085F
:104C3800E3DC0008FFDC00083ADC000825DC00089B
:104C480023DD000804000001044B5A6942F01002F9
:104C58005A615A6922F008025A61704700ED00E073
:104C6800EFF30880EFF3098101B57246FFF7E6FE1E
:104C780001BD00BF0E4880F30888102080F311881A
:104C88000C484FF0AA014FF4046205F046FB0948AE
:104C98004FF40461401880F30988EFF3148002216F
:104CA800084380F31488BFF36F8F00F04BF80000BF
:104CB800402A0020801C00201EF0040F0CBFEFF3D8
:104CC8000880EFF30980816911F8021C0229FFD0DE
:104CD80001B5724605F025FB01BD00BF40B20028B2
:104CE80007DB044A4109012300F01F00834042F812
:104CF8002130704700E100E040B20028A8BF00F171
:104D0800604001F10101B8BF064B4FEA0111ACBF89
:104D180000F5614000F00F00C9B2B4BF195480F823
:104D28000013704714ED00E0044B054A23F07F039D
:104D38009360BFF34F8FBFF36F8F70470000000879
:104D480000ED00E008B5FFF7EFFF0B4AD2F8883016
:104D580023F47003C2F88830EFF3148323F00403BC
:104D680083F31488BFF36F8FFFF71AFCFFF724FC57
:104D780000F0B6F801F044FD00ED00E042F8203CF8
:104D8800009B42F81C3C0A49019B42F8183C029BD4
:104D980042F8143C21F001014FF0807342F8043CC2
:104DA80042F8081C0023203A0265C0F8B03070476A
:104DB800E50F00080A4A0346906878B113F1160F08
:104DC800D0F89C0005D0A0F14002934205D383425D
:104DD80003D2814228BF002070470020704700BFDF
:104DE8008010002008B515460C4A0D4B9060D0F88D
:104DF800AC201A600E4600F0A3F82C4686F309880A
:104E08000020044B98472046002100220023024C32
:104E18002047000057A30008E50F00088010002075
:104E2800C80F0020014B10221A61704700ED00E006
:104E3800054B5A699B689A421FBF044A536843F05E
:104E480080535360704700BF8010002000ED00E0E1
:104E5800084B9B6883420BD1EFF3058343B1064BA4
:104E68005A6842F080525A605A6A22F400425A62E2
:104E780002F00AB98010002000ED00E015498A68A8
:104E88004FF030001044EFF3098C80E8F01F102039
:104E980080F31288BFF36F8F0F4F4FF000664A6997
:104EA8008A603E60D2F8AC000C4C2060D2F8B000AA
:104EB8000023C2F8B03080F3118804B5104600F022
:104EC8003FF8BDE8044002F1300090E8F01F8CF391
:104ED800098870478010002004ED00E0C80F00200A
:104EE800044800231021C2180133552B82F80013FF
:104EF800F9D1704700E100E008B5EFF30583064AF1
:104F0800103B02EBC30152F8330049688847BDE8FB
:104F18000840FFF78DBF00BFB8B50008014800681A
:104F280070470000C80F0020024B034A03480121C4
:104F380000F092B8000001200000002094C1000891
:104F4800D0F89C20054B403A1A60054A4021C3E935
:104F580001121846012100F089B800BFCC0F0020CB
:104F680000000B1508B503461148D0F89020C2F38D
:104F78000722013A93420AD90E480268520703D021
:104F88000D4A012103F0C8FE6FF0150008BDC0F8F6
:104F980098300A6822F01F021A4342F01002C0F843
:104FA8009C208A6842F00102C0F8A0201846EDE76C
:104FB80000ED00E0F00000203ADD0008F0B50E46F4
:104FC80085B01F4604460025B54210DA606828B34C
:104FD800AFB1431E18420DD0124803685B0704D0D6
:104FE800114A2B46012103F097FE6FF01502104677
:104FF80005B0F0BD1F28EFD921680B42ECD123681A
:10500800019305F0B8F9A36801A90343D0B203934B
:10501800FFF7A8FF10F1160FE7D0421C01350C343A
:10502800D2E700BFF000002060DD0008044B052235
:10503800C3F89420BFF34F8FBFF36F8F704700BF43
:1050480000ED00E0BFF35F8F024B0022C3F894200D
:10505800704700BF00ED00E010B5034C0123227833
:10506800FFF7ACFF207010BDD510002008B50B4A23
:1050780000231278FFF7A2FF10F1160F07D0084A95
:105088000021D2F89030C3F30723984200DB08BD13
:10509800C2F89800C2F8A0100130F2E7D51000203D
:1050A80000ED00E02DE9F0435E485F49D0F890300C
:1050B8000D68C3F307239D4285B000F2B080FFF767
:1050C800C1FF49680022954201F10C011BD1574CE0
:1050D800574F25706846FCF7A9FFDFF85881DFF8BD
:1050E800589106460025AE4220D123784D4900202C
:1050F800D1F89020C2F307229342C0F28A80FFF7CA
:1051080095FF00204FE0C0F8982051F80C3C23F0A0
:105118001F03134343F01003C0F89C3051F8043CBC
:1051280043F00103C0F8A0300132CCE7009800EB4F
:1051380005114FEA051CCB683B40B3F5000F49D079
:105148000AD8B3F5001F31D0B3F5800F37D0B3F5C7
:10515800801F13D00135C6E7B3F1007F43D0B3F108
:10516800805F49D0B3F1807FF4D150F80C30886863
:105178004A6805F000F940F0887009E050F80C30F2
:1051880088684A6805F0F7F840F0885040F4302005
:10519800039001A92078CDE90123FFF7E3FE002859
:1051A80033DA6FF0150005B0BDE8F08350F80C3025
:1051B80088684A6805F0DFF840EA0900E8E750F82F
:1051C8000C3088684A6805F0D6F840F0C06040F4B2
:1051D8000030DDE750F80C3088684A6805F0CBF8F5
:1051E80040F08270D4E750F80C3088684A6805F0BF
:1051F800C2F840F48020CBE750F80C3088684A6841
:1052080005F0B9F840EA0800C2E7237801332370B3
:10521800A0E7C1F89830C1F8A000013368E74FF063
:10522800FF30C0E700ED00E0A0C10008D510002065
:105238000000F0FF0000021100000811F0B587B06F
:1052480007460E4614460021102268461D4605F002
:10525800D3FF02238DF802302A46054B01932146DD
:105268006846CDE9047602F0E5FC07B0F0BD00BF62
:105278009FA3000808B5024B1B689847002008BD8B
:10528800D80F0020034B044A1860937843F00203B8
:1052980093707047D80F00204800002008B50649D1
:1052A800064821F00701C1F1005202F5803203F0EF
:1052B8000AF8002008BD00BF872C0020DC0F002062
:1052C8002DE9F04F89B01E46129B049204460D4604
:1052D800002B00F02082A34631461BF8010B05F095
:1052E80065F85FFA80F90246287805F05FF8B9F1A9
:1052F8003F0FC3B20293484629D012F0C00F09D11C
:10530800B9F1000F17D0B9F12A0F38D0029B99458F
:1053180033D022E0B9F15B0F00F08480B9F15C0F63
:10532800F4D1F307F2D4607805F040F804F1020BE9
:105338005FFA80F9EAE7F10602D5029B2F2B03D02A
:10534800029B181E18BF012009B0BDE8F08F029B10
:105358001BB12F2B03D1B2070FD50120F4E7029B15
:105368002E2B0AD1730708D5049B9D42F5D0B707A9
:1053780003D515F8013C2F2BEFD001352EE06078CE
:1053880005F014F8C1B22A291AD0029B2E2B0AD193
:10539800740708D5049B9D42DFD0B00703D515F8E4
:1053A800013C2F2BD9D079B916F00200CCD0F206E7
:1053B80000F1B3812F21284605F036FF0038C1E7F8
:1053C8001BF8010F3146DBE72F2909D1B30707D5B1
:1053D800284605F029FF05460028BED05C467AE736
:1053E800129B06F0020903F1FF38029B2C46002BA2
:1053F800B3D0049ACDF80080334629465846FFF7C3
:105408005FFF0028A0D02078314604F0CFFFC3B258
:105418002F2B05F101050293E7D1B9F1000F9CD1BB
:105428002C46E6E7029B002B97D02F2B21D1B707FC
:1054380093D46378212B01D05E2B2AD1A31C069329
:10544800012302980793314604F0B0FF03909DF8BA
:105458000C30DDF818800593002498F800305D2B97
:105468001ED1069B434523D2079B08F1010BA3429B
:1054780082E7029B2E2BDCD17007DAD5049B9D4274
:105488003FF46BAFB107D4D515F8013C2F2BD0D121
:1054980063E7CDF818B00023D3E70124D046DCE752
:1054A800002B3FF433AF2F2B36D1B2073FF555AF62
:1054B800C24631461AF8010B04F078FF98F801301B
:1054C8002D2BC2B240F0228198F80230002B00F058
:1054D8001D815D2B00F01A815C2B08F1020A03D1B3
:1054E800F00758BF08F1030A1AF8010B314604F017
:1054F8005DFF10F0FF003FF409AF310705D5A0F1BB
:105508004103192B98BF2030C0B2059B9342C5D3E5
:10551800834298BF0124C1E75C2B98F8011004D19D
:10552800F307C5D408F10108C2E75B2B9DF80C20EE
:10553800BED13A29BCD1002108F102000B468246AF
:1055480010F801CBBCF1000F48D17548754FBB422C
:1055580008BF814200F0CC80884277EB03005CD31F
:105568007148A7F510276FF4817C6744BB4208BFD8
:10557800814200F0AD80884277EB030039D307F110
:10558800D0476A48A7F50D37173F834208BFB9428D
:1055980000F0918000F57F4007F1C167F13007F511
:1055A8000037834208BFB94200F08B80A0F57F40E6
:1055B80007F1E067F33807F50037834208BFB942BF
:1055C8007FF476AF039B03F0DF03413B192B7FF693
:1055D80064AF303A092A98BF01245FE710F802EC5B
:1055E800BEF15D0FB1D01B0243EA11634CEA012101
:1055F800A5E74F484F4FBB4208BF81426FD007F124
:10560800E0474D4807F57437F637834208BFB9427B
:105618007FF44EAF213A5D2A63E04848484FBB42C9
:1056280008BF81426AD0884277EB030023D34548FC
:10563800A7F53F37A7F5FC77BB4208BF81425AD090
:1056480000F1754007F20537BB4208BF81427FF47D
:105658002FAFA2F121030E2B7FF61FAFA2F13A0361
:10566800062B7FF61AAFA2F15B03052B7FF615AF69
:105678007B3A032AAFE72A48334FBB4208BF81422F
:1056880042D007F1F04700F18060A7F588176FF462
:10569800E16C00F500306744BB4208BF81427FF4EB
:1056A80007AF303A092A7FF6F8AE039B03F0DF0311
:1056B800413B052B8FE7039B03F0DF03413B192B8D
:1056C80089E7202A3FF4E9AE092A08BF0124E5E664
:1056D800039B13F0E00F3FF4E0AE7F2AF5E7303A82
:1056E800092A94BF00220122012A18BF0124D5E605
:1056F800613A192AF5E7203A5E2AF2E7202A3FF4B0
:10570800CCAE093A042A66E7413AF2E7059B934290
:1057180008BF0124C2E6032016E6084614E600BFC7
:105728005D3A7265776F6C005D3A6C72706C6100FF
:105738005D3A746967696400617267005D3A656320
:10574800617073005D3A746E70707500064B026884
:105758001A60064B42681A60054B82681A60054B4E
:1057680002691A60704700BFF00F0020EC0F00209C
:10577800E80F0020F40F002007B5094A92E803005B
:105788006B4683E8030007488268126822B119460D
:10579800904703B05DF804FB6FF05700F9E700BFCE
:1057A80018BB000838B400081F2808B5034609D9F3
:1057B80009480268520703D0084A012103F0ACFAED
:1057C800002008BD064B01225B6982409A430CBF4A
:1057D80001200020F5E700BFE400002095DD000867
:1057E800003C014000F01F0201211F2808B501FA02
:1057F80002F2034609D907480268520702D0064A4E
:1058080003F08AFA6FF0150008BD044B00205A61B6
:10581800FAE700BFE400002095DD0008003C0140E5
:10582800044B184400230133994200F8012BFADC99
:10583800704700BF7C0000202DE9F041104F05465D
:1058480000264FF001086B78F4B2A34201D8BDE8F6
:10585800F0812B781C442046FFF7A6FF68B120464C
:10586800FFF7C0FF57F834303BB107EBC40204F030
:105878001F04516808FA04F098470136E3E700BFAF
:10588800F80F0020034660B1B0FA80F2C2F11F029F
:10589800D2B205498856054A11680B431360FFF7D1
:1058A8001DBAFF22F5E700BF7C000020003C014044
:1058B800024A136823EA000313607047003C014062
:1058C800032921D8DFE801F0020C10190F4B9A6860
:1058D80022EA00029A60DA6822EA0002DA60704777
:1058E8000A4B9A680243F5E7084BDA680243DA6024
:1058F8009A6822EA00029A607047044B9A68024349
:105908009A60DA681043D860704700BF003C0140D5
:1059180030B5B0B1B0FA80F3C3F11F03DBB20B4866
:1059280050F833408C4204D100EBC3056D689542B2
:1059380005D044B940F8331000EBC30042600020A2
:1059480030BDFF23EBE76FF00F00F9E7F80F0020F9
:1059580060B1B0FA80F3C3F11F03DBB2044A00213F
:1059680042F8331002EBC30251607047FF23F5E79A
:10597800F80F002000F00302043292000F23934036
:1059880043EA9000C3B20233054A52F82320030CBD
:1059980002EA104093FAA3F3B3FA83F3D8407047AE
:1059A8000038014038B508883D4BC0F30B00162875
:1059B8001B680D4614463ED810B96FF0850039E0D3
:1059C80001381528F9D801A252F820F0315A0008F8
:1059D800975A00082D5A0008975A0008935A000849
:1059E800675A00087B5A0008C3590008C3590008C1
:1059F800C3590008C3590008C3590008C35900080F
:105A0800C3590008C3590008C3590008C3590008FE
:105A1800C3590008C3590008C3590008315A00087F
:105A2800315A00084FF4FA4323602968B1F5805FC2
:105A38002FD2002038BD44280ED82F28BDD900F514
:105A48007D61C1F30B0101228A4016490A42EBD15C
:105A58004028B2D15B08E7E7A828E5D0ADE700F019
:105A6800D5F84FF4A8721923B0FBF3F353439B08FE
:105A7800DAE700F0CBF84FF4A8721923B0FBF3F380
:105A880053430722B3FBF2F3CEE7074BCCE70023DF
:105A9800CAE7C1F313310131B3FBF1F32360C8E75F
:105AA8006C0000201101100040787D01162808D8EC
:105AB800054BC34013F0010F14BF00206FF08500A1
:105AC80070476FF085007047EA006000F8B54A4EED
